:020000040800F2
:100000005809002029020008452400081F1E000886
:10001000CD2300081F0400081DA8000800000000F0
:100020000000000000000000000000001D77000834
:10003000D50A000800000000F17600089577000856
:10004000430200084302000843020008430200087C
:10005000430200084302000843020008430200086C
:10006000430200084302000843020008430200085C
:10007000430200084302000843020008430200084C
:10008000430200084302000843020008430200083C
:10009000430200084302000843020008D50B000891
:1000A000430200084302000843020008430200081C
:1000B000430200084302000843020008430200080C
:1000C00043020008430200084302000843020008FC
:1000D00043020008430200084302000843020008EC
:1000E00043020008430200084302000843020008DC
:1000F00043020008430200084302000843020008CC
:1001000043020008430200084302000843020008BB
:100110004302000843020008AD7A000843020008C9
:10012000430200084302000843020008430200089B
:10013000430200084302000843020008430200088B
:10014000430200084302000843020008430200087B
:10015000430200084302000843020008430200086B
:10016000430200084302000843020008430200085B
:100170004302000843020008430200080000000098
:10018000430200084302000800F002F800F03CF8C7
:100190000AA090E8000C82448344AAF10107DA45E2
:1001A00001D100F031F8AFF2090EBAE80F0013F0F8
:1001B000010F18BFFB1A43F00103184708AF0000F6
:1001C00028AF0000103A24BF78C878C1FAD8520787
:1001D00024BF30C830C144BF04680C6070470000C1
:1001E0000023002400250026103A28BF78C1FBD840
:1001F000520728BF30C148BF0B6070471FB50AF0D7
:100200004DFF1FBD10B510BD00F0CFF81146FFF730
:10021000F5FF0AF071FD00F0EDF803B4FFF7F2FF0F
:1002200003BC00F0F5F80000094880470948004782
:10023000FEE7FEE7FEE7FEE7FEE7FEE7FEE7FEE796
:10024000FEE7FEE704480549054A064B70470000F3
:100250002D78000889010008580300205809002063
:10026000580500205805002053EA020C00F0698070
:100270002DE9F04B4FF00006002B1FBFB3FA83F5BA
:1002800003FA05F424FA05F65E4012BF1643B2FAEB
:1002900082F502FA05F4C5F120051EBF22FA05FC1D
:1002A00044EA0C04203556EA044C4FEA144418BFC3
:1002B000641C4FF000084FF00009904271EB030CF2
:1002C00039D3002919BFB1FA81F701FA07F6B0FA5C
:1002D00080F700FA07F6C7F120071EBF20FA07FCD7
:1002E00046EA0C062037B6FBF4FCA7EB0507103FE7
:1002F00007F01F0BCBF120060CFA0BFB2CFA06F6CD
:1003000044BFB3460026202FA4BF5E464FF0000B2B
:100310005BEA060C08BF4FF0010B19EB0B09ABFBB6
:10032000027C48EB0608C01B06FB02CC0BFB03CC8F
:1003300071EB0C01C1E70B46024641464846BDE859
:10034000F08B13B54FF000004FF00001AFF30080C9
:10035000BDE81C4070474FF0000200B513469446BC
:100360009646203922BFA0E80C50A0E80C50B1F10D
:100370002001BFF4F7AF090728BFA0E80C5048BF21
:100380000CC05DF804EB890028BF40F8042B08BFBF
:10039000704748BF20F8022B11F0804F18BF00F8BB
:1003A000012B7047704770477047754600F02CF876
:1003B000AE4605006946534620F00700854618B052
:1003C00020B5FFF73FFFBDE820404FF000064FF09B
:1003D00000074FF000084FF0000B21F00701AC467A
:1003E000ACE8C009ACE8C009ACE8C009ACE8C00999
:1003F0008D46704710B50446AFF300802046BDE837
:100400001040FFF70ABF000000487047F4020020C8
:1004100001491820ABBEFEE7260002007047FEE748
:100420000B49B1F900100C2909D00B2909D0042976
:100430000AD017290AD0162905D1064902E0064933
:1004400000E00649086070470549FBE70549F9E700
:10045000240000206C0000205C00002060000020D0
:1004600064000020680000202DE9F043F7486FF099
:100470002C055A26D0F80080F6482D246F0002681B
:10048000F548F349C1460368F4484FF0010CB8F150
:100490005A0F006803D0B9F1010F74D002E12D2B7F
:1004A00002D0012B1DD03CE0012A05D110F15A0FDA
:1004B00023D010F12D0F22D012F15A0F04D10128B0
:1004C0001BD010F12D0F03D012F12D0F03D028E017
:1004D000C1F800C025E010F15A0FF9D001280ED064
:1004E0001FE02D2A05D110F15A0F06D010F12D0F63
:1004F00005D012F15A0F04D008E00D6011E00F6032
:100500000FE02D28F9D010F12D0F03D012F12D0F8F
:1005100002D006E00C6004E010F15A0FFAD02D284A
:10052000EDD013F15A0F1ED1012A02D02D2A0AD084
:100530000EE02D2803D010F12D0F02D008E00D6041
:1005400011E00C600FE00128F9D010F12D0F03D05D
:1005500012F12D0F03D006E0C1F800C003E02D28F2
:10056000FAD00128EDD013F12D0F0BD1012A04D1BF
:1005700010F15A0F0DD02D2816D012F15A0F03D0BA
:100580002D2A08D08EE011E0012802D02D2808D0B5
:1005900088E00C6086E010F15A0F02D0012803D0E9
:1005A00080E0C1F800C07DE00F607BE02D2B02D021
:1005B0005A2B1CD03BE05A2A05D110F15A0F22D0F9
:1005C00010F12D0F21D012F15A0F04D15A281AD050
:1005D00010F12D0F03D012F12D0F02D027E00E6085
:1005E00025E010F15A0FFAD05A280ED01FE02D2A1C
:1005F00005D110F15A0F06D010F12D0F05D012F1D0
:100600005A0F04D008E00D6011E00F600FE02D28B4
:10061000F9D010F12D0F03D012F12D0F02D006E00A
:100620000C6004E010F15A0FFAD02D28EDD013F130
:100630005A0F1DD15A2A02D02D2A0AD00EE02D2899
:1006400003D010F12D0F02D008E00D6010E00C6017
:100650000EE05A28F9D010F12D0F03D012F12D0F12
:1006600002D005E00E6003E02D28FBD05A28EED022
:1006700013F12D0F16D15A2A04D110F15A0F88D038
:100680002D2891D012F15A0F02D02D2A05D009E061
:100690005A28F4D02D280CD004E010F15A0F08D0BD
:1006A0005A2881D019F15A0F05D0B9F12D0F7AD0FF
:1006B00006E10E60F6E72D2B04D05A2B1AD0012B41
:1006C00032D04FE05A2A02D0012A06D00AE001288F
:1006D00035D010F12D0F17D004E05A282FD010F18B
:1006E0002D0F39D012F12D0F3CD1012834D05A28CA
:1006F0000AD037E02D2A02D0012A08D00CE00128C8
:100700001DD010F12D0F07D1C1F800C02AE02D280F
:1007100015D010F12D0F14D012F12D0F22D1012878
:100720000FD02D28F0D01DE05A2A02D02D2A0AD051
:100730000EE02D2803D010F12D0F02D008E00D603F
:1007400010E00C600EE05A28F9D010F12D0F03D004
:1007500012F12D0F02D005E00E6003E02D28FBD032
:100760005A28EED013F12D0F05D15A2A04D0012AB0
:1007700007D02D2A0DD0A3E0012807D02D280FD0B7
:100780009EE05A2802D02D2808D099E00C6097E00E
:1007900009E0012802D05A2802D091E00E608FE0D3
:1007A000C1F800C08CE0012B02D05A2B1CD03CE0D9
:1007B0005A2A05D110F15A0F22D010F12D0F21D055
:1007C00012F15A0F04D15A281AD010F12D0F03D06C
:1007D00012F12D0F02D028E00E6026E010F15A0F22
:1007E000FAD05A280ED020E0012A05D110F15A0F74
:1007F00006D010F12D0F05D012F15A0F04D008E0E9
:100800000D6012E00F6010E00128F9D010F12D0FFB
:1008100003D012F12D0F03D007E0C1F800C004E0AF
:1008200010F15A0FF9D00128ECD013F15A0F29D149
:100830005A2A02D0012A16D01AE0012803D010F15A
:100840002D0F0DD014E00D601CE000005C000020B6
:100850006800002064000020600000206C00002080
:10086000C1F800C00EE05A28EDD010F12D0F03D0D2
:1008700012F12D0F02D005E00E6003E00128FBD03D
:100880005A28EDD013F12D0F1AD15A2A05D110F1A3
:100890005A0F3FF47BAF012811D012F15A0F02D04A
:1008A000012A07D00CE05A283FF47AAF01283FF420
:1008B00075AF05E010F15A0FF9D05A2800D10F603A
:1008C00019F12D0F4CD12D2B02D05A2B19D035E018
:1008D0005A2A04D110F15A0F20D0012821D012F148
:1008E0005A0F02D0012A06D028E05A2816D0012833
:1008F00024D10E6022E010F15A0FFAD05A2810D0FD
:100900001CE02D2A04D110F15A0F07D0012808D07D
:1009100012F15A0F07D0012A0BD00FE0C1F800C026
:100920000CE00F600AE02D28F8D0012806D10C60F9
:1009300004E010F15A0FFAD02D28F2D013F15A0F1B
:1009400004D0012B0CD15A2A19D01DE05A2A09D003
:100950002D2A0FD0012A03D12D2827D05A281FD0A5
:10096000BDE8F0832D2802D0012819D0F8E7C1F89E
:1009700000C0F5E75A28FAD0012817D0F0E710F1A7
:100980005A0F0DD02D2809D012F15A0F0AD02D2A56
:10099000E6D110F15A0F09D05A28E1D10F60DFE7F4
:1009A0000C60DDE75A28FBD02D28D9D10E60D7E79F
:1009B0002DE9F047444F0024444DB7F90000444E60
:1009C0004FF4FA7A4FF47A79012821D0B8464FF4DF
:1009D0009677022828D04FF4E169032834D0042800
:1009E00048D0052846D006281ED007284ED0082813
:1009F00053D04746092857D00A285CD0112861D126
:100A000000F06AF84FF4C86000F0EAF83C8017E0A4
:100A1000642000F0E5F80AF0F5F8504600F0E0F840
:100A200000F05AF84846EFE7384600F0D9F800F0F1
:100A300053F8484600F0D4F80AF0E4F8504620E0B5
:100A40002C803480322011E0384600F0C9F800F0E4
:100A500043F8484600F0C4F80AF0D4F8504600F0D5
:100A6000BFF8A8F800402C8034801420BDE8F0477F
:100A700000F0B6B8384600F0B3F80AF0C3F85046B4
:100A800005E000F0ADF8A8F80040D9E7384600F0DE
:100A9000A7F800F021F84846F3E7C82000F0A0F8D6
:100AA0000AF0B0F83846ECE7322000F099F80AF086
:100AB000A9F86420A8E7322000F092F80AF0A2F822
:100AC0005046A1E7BDE8F087420000204C0000201E
:100AD0004E000020704700001A4B1B4840F2B6320F
:100AE000B3F9001005291DD008DC012911D0022915
:100AF00012D0032919D0042908D110E0172914D0E5
:100B0000222914D02D2915D0332916D00020188081
:100B1000704740F6020112E040F20E610FE04FF420
:100B2000E1710CE040F6C41109E00260704740F248
:100B3000465104E040F6921101E040F2E2410160CA
:100B4000704700004C0000203804014010B500211F
:100B50001C4801F0AFF804211A4801F0ABF8082155
:100B6000184801F0A7F80C21164801F0A3F800215D
:100B7000154801F09FF80421134801F09BF8082163
:100B8000114801F097F80C210F4801F093F80F4934
:100B90004FF4AF600860091D40F2AA500860091DBB
:100BA00040F2DC500860091D086009490860091D11
:100BB00040F602000860091D4FF448700860091DE6
:100BC000086010BD8C0100201C0200203408004089
:100BD00034040140202000F01FB872B6FEE7000088
:100BE00070B5044600F026F90546601C02D00448A2
:100BF0000078044400F01EF9401BA042FAD370BDF7
:100C000074000020202803D102480168491C0160BB
:100C10007047000058000020044910B50A680242DD
:100C200002D00860FFF7EEFF10BD0000143C014049
:100C30002DE9F84FDFF8BCA10022012503264FF073
:100C40000F090AF1040BAAF1040E00BF0B6805FAA4
:100C500002F42340A34270D10F7907F00307012F5C
:100C600001D0022F16D187684FEA420806FA08FC25
:100C700027EA0C07D1F80CC00CFA08FC4CEA070C68
:100C8000C0F808C04768A7430C79C4F30014944027
:100C90003C4344600C79E443A4070AD0C4684FEA9B
:100CA000420C06FA0CF7BC438F6807FA0CF727438F
:100CB000C7600C7904F00304022C12D1D40800EBB5
:100CC000840CDCF820405707FF0E09FA07F824EAE5
:100CD0000804D1F8108008FA07F848EA0408CCF8AC
:100CE000208004684FEA420C06FA0CF7BC430F79E7
:100CF00007F0030707FA0CF7274307604C6814F462
:100D0000403F70D03C4C276847F4804727602468F8
:100D100022F0030704F480440094384C07EB040CE1
:100D2000DCF8084897074FEA177809FA08F7BC4338
:100D3000334FB84202D1002724E054E0314FB8428B
:100D400001D101271EE0304FB84201D1022719E03E
:100D50002E4FB84201D1032714E02D4FB84201D1E4
:100D600004270FE02B4FB84201D105270AE02A4F94
:100D7000B84201D1062705E0284FB84201D1072724
:100D800000E0082707FA08F72743CCF80878DAF8D4
:100D900000405746D1F804C09C435FEACC2C00D5F4
:100DA0001C433C60DBF800405F46D1F804C09C4324
:100DB0005FEA8C2C00D51C433C60DEF8004077468F
:100DC000D1F804C09C435FEA8C3C00D51C433C60D6
:100DD000084F083F3C68D1F804C09C435FEACC3C14
:100DE00000D51C433C60521C102AFFF42FAFBDE815
:100DF000F88F0000083C01404438024000300140B8
:100E0000000002400004024000080240000C0240C2
:100E1000001002400014024000180240001C024072
:100E20000069084000D0012070470AB18161704715
:100E30000904FBE701488068704700007400002047
:100E40000248816802781144816070477400002074
:100E50000B4810B5016841F400710160016841F46C
:100E600080610160016841F480710160032000F03D
:100E70006FF8002000F006F800F024F8002010BD04
:100E8000003C024070B50D4D04464FF47A7128784D
:100E9000B1FBF0F00A490968B1FBF0F000F0EAFAA2
:100EA00048B9102C07D200222146501E00F030F81D
:100EB00000206C6070BD012070BD00007400002037
:100EC000800000200A4808B5016841F480410160B3
:100ED000006800F4804000900548001F016841F060
:100EE00080510160006800F08050009008BD000053
:100EF00044380240002809DB00F01F020121914024
:100F00004009800000F1E020C0F8001170470000A7
:100F1000F0B40E4B1B680C46C3F30223C3F1070564
:100F2000042D00D90425191D072901D2002300E052
:100F3000DB1E012606FA05F1491E214099409E401C
:100F4000761E16403143F0BC09F04CBE0CED00E0BB
:100F5000064900F0070208684FF6FF03184040EA10
:100F60000220034A10430860704700000CED00E0C7
:100F70000000FA052DE9F0470E46050065D0DFF8C0
:100F80001481D8F80000F7B200F00700B04207D291
:100F900088F80070D8F8000000F00700B04254D183
:100FA00028683D4C810712D5400703D5206840F4DE
:100FB000E05020602878000703D5206840F46040A6
:100FC00020602068A96820F0F0000843206028789D
:100FD000C0072DD0304968680839012812D002288E
:100FE00013D0032811D00968890700292DDA216858
:100FF00021F0030101432160FFF71CFF814641F20C
:10100000883A0EE009688903EFE709688901ECE78F
:10101000FFF710FFA0EB0901514502D90320BDE8FD
:10102000F0872068696800F00C00B0EB810FEFD109
:10103000D8F80010404601F00701B14207D9077007
:10104000006800F00700B04201D00120E7E72878EF
:10105000400705D52068E96820F4E0500843206087
:101060002878000706D52068296920F4604040EA06
:10107000C100206000F018F82168084AC1F303118C
:10108000515CC8400649086006480068FFF7FAFE50
:101090000020C4E7003C024008380240A6B0000827
:1010A0008000002078000020154810B5006810F07E
:1010B0000C02144813D04110042A0FD0082A0ED174
:1010C0000F4C241F2268236802F03F025B0207D501
:1010D0002068C0F38810A0FB010106E0084610BD9F
:1010E0002168C1F38811A1FB00010023FFF7BCF8C0
:1010F0002168C1F30141491C4900B0FBF1F010BD6A
:10110000083802400024F4002DE9F84F04006ED0A6
:101110002078DFF84C93C007A9F104054AD009F103
:1011200004000168C1F38101012908D00068C0F3FF
:10113000810002280AD1D9F80000400206D52868AB
:10114000800337D560680028E1D033E06068B0F5EF
:10115000803F10D0B0F5A02F286810D020F4803048
:101160002860286820F4802028606068A8B1FFF714
:1011700061FE06460DE0286840F48030F4E740F454
:1011800080202860F7E700BFFFF754FE801B64282B
:1011900073D828688003F7D50CE0FFF74BFE0646AE
:1011A00005E000BFFFF746FE801B6428F0D82868E2
:1011B0008003F7D42078DFF8AC8280074FF0000A74
:1011C0003ED5A748001D016811F00C0F08D000683B
:1011D000C0F3810002280BD1D9F80000400207D4E7
:1011E0002868800716D5E068012800D112E033E1B5
:1011F000E068B8B10120C8F80000FFF71BFE064602
:1012000005E000BFFFF716FE801B0228C0D8286843
:101210008007F7D52868216920F0F80040EAC1006E
:1012200028600DE0C8F800A0FFF704FE064604E0C1
:10123000FFF700FE801B02281FD828688007F7D41C
:101240002078000722D5864F87486169703771B1D1
:1012500001210160FFF7EEFD064604E0FFF7EAFD1D
:10126000801B022809D838688007F7D50EE0C0F83F
:1012700000A0FFF7DFFD064605E082E0FFF7DAFD9C
:10128000801B02287DD838688007F7D42078400773
:1012900068D5DFF8CCB100270BF13C0BDBF8000080
:1012A000C0000BD4DBF8001041F08051CBF80010E7
:1012B000DBF80000012700F0805000906B4E306892
:1012C000C00510D4306840F480703060FFF7B2FD84
:1012D000009005E0FFF7AEFD0099401A022850D8B3
:1012E0003068C005F6D55E4EA0686C3601280FD078
:1012F0000528306810D020F001003060306820F000
:1013000004003060A068B8B1FFF794FD00900FE0D2
:10131000306840F00100F4E740F004003060F7E787
:10132000FFF788FD0099411A41F28830814266D862
:1013300030688007F4D50EE0FFF77CFD009007E0F1
:10134000FFF778FD0099411A41F28830814256D862
:1013500030688007F4D42FB1DBF8001021F0805101
:10136000CBF80010A069C8B33D49091D0968C1F355
:10137000810102294AD00228504607D0C8F86000EF
:1013800000E03CE0FFF756FD04463BE04746C8F866
:101390006000FFF74FFD064605E000BFFFF74AFD7E
:1013A000801B02282BD828688001F7D4D4E90701D4
:1013B0000843A16A2E4A490802EB0141626A41EAE8
:1013C0008211084394F82C1040EA0161C9F800101A
:1013D00001203866FFF72EFD044606E03EE000BF20
:1013E000FFF728FD001B022809D828688001F7D5DF
:1013F00034E000BFFFF71EFD001B022802D90320C6
:10140000BDE8F88F28688001F4D427E00128F7D0E0
:10141000D9F80000E26900F4800191421CD1226AEF
:1014200000F03F01914217D147F6C071626A014056
:10143000B1EB821F10D1A26A4FF0FF3300F44031AC
:1014400003EB5202B1EB024F06D194F82C1000F0DE
:101450007060B0EB016F01D00120D1E70020CFE731
:101460000438024000004742800E474200700040AE
:101470000000FFFF10B5401EB0F1807F01D30120B6
:1014800010BD4FF0E02460610F21601709F0AAFB46
:101490000020A06107202061002010BD7047704728
:1014A00010B590F83C20012A22D0012280F83C207F
:1014B000CA688C6822F4407222434C6822F480622D
:1014C00022430C6822F4006222430C6922F4805209
:1014D00022434C6922F400522243C969002322F4BA
:1014E00080420A4301684A6480F83C30002010BD05
:1014F000022010BD70B590F83C20012A32D00124A2
:1015000080F83C40022280F83D2003685A689D68BC
:1015100022F070060A6832435A60134B02689A42FE
:1015200014D0B2F1804F11D0104B9A420ED0104B14
:101530009A420BD00F4B9A4208D00F4B9A4205D0DB
:101540000E4B9A4202D00E4B9A4204D1496825F0C4
:1015500080031943916080F83D40002180F83C10E1
:10156000084670BD022070BD00000140000400402C
:1015700000080040000C0040000401400040014011
:101580000018004010B5040003D094F83D0010B1DD
:1015900007E0012010BD002084F83C00204600F048
:1015A0001FF8022084F83D00211D206806F084FA0F
:1015B000012084F8460084F83E0084F83F0084F857
:1015C000400084F8410084F8420084F8430084F825
:1015D000440084F8450084F83D00002010BD000060
:1015E00008B51D4902681D488A4207D1016841F0CB
:1015F00001010160006800F001000BE01749184B81
:10160000091F9A4208D1086840F004000860086881
:1016100000F00400009008BD124B9A4211D10868F6
:1016200040F0100008600868002200F010000090F0
:1016300001213620FFF76CFCBDE808403620FFF79B
:1016400059BC09498A42E6D1016841F002010160B2
:10165000006800F00200DDE700000140443802406D
:1016600000080040001000400004014090F83D10C8
:10167000012901D001207047022180F83D10016846
:10168000CA6842F00102CA6000681149884214D059
:10169000B0F1804F11D00F4988420ED00E498842D8
:1016A0000BD00E49884208D00D49884205D00D491B
:1016B000884202D00C49884204D1816801F00701B8
:1016C000062903D0016841F0010101600020704744
:1016D000000001400004004000080040000C0040F1
:1016E00000040140004001400018004070B504466D
:1016F00090F83C000025012817D0012684F83C60B2
:10170000022084F83D002068826822F0770222F4EB
:101710007F4282600868502838D00DDC20284FD0E6
:1017200005DC90B3102811D14AE0022070BD3028AA
:1017300046D040280AD13BE060282FD070280DD039
:10174000B0F5805F03D0B0F5005F12D0012584F8BA
:101750003D60002084F83C00284670BDCB68D1E98C
:101760000121206806F021FA2068816841F07701A4
:1017700009E0CB68D1E90121206806F016FA20685B
:10178000816841F480418160E1E719E0CA684968F5
:10179000206806F0DFFA5021206806E0CA68496830
:1017A000206806F0E8FA6021206806F008FACEE723
:1017B000CA684968206806F0CDFA40212068F4E73D
:1017C000226801461046F0E72DE9F0410D4604007D
:1017D00003D094F83D0018B108E00120BDE8F08185
:1017E000002084F83C00204600F040F8022084F8F5
:1017F0003D002068816844F2070291438160211D09
:10180000206806F059F9226890689169166A2B6879
:10181000AF69034340F20330814341EA0721A868DE
:10182000EF6908434FF6FC418843E96840EA072026
:10183000014328692F6A000140EA073008436968BC
:101840006D6926F0AA0646EA0515294393602268C9
:10185000906154F8460B0162012004F81F09E075FD
:101860002076E0762077A0750020B7E770B586B0C7
:10187000044614216846FEF76EFD214A25680023C0
:101880001F49103A02241F48B5F1804F1ED01E4E4A
:10189000B54219D10D6845F002050D60096801F0E7
:1018A00002010591116841F001011160116801F018
:1018B00001010591C0210091CDE90143CDE9033437
:1018C000694600BFFFF7B4F906B070BD0D6845F07A
:1018D00001050D60096801F001010591116841F0F1
:1018E00001011160116801F00101059103210091CE
:1018F000CDE901430121CDE903316946E2E700006A
:1019000040380240000002400004004070B590F8EA
:101910003E60044690F83F5090F8423090F84320E3
:10192000022021B104290ED0012E1BD114E0012E7A
:1019300018D1012B16D184F83E0084F84200012210
:101940000021206820E0012D0CD1012A0AD184F861
:101950003F0084F8430014E0012D03D1012B01D195
:10196000012A01D0012070BD84F83E0084F83F00B8
:1019700084F8420084F8430001220021206806F028
:1019800007F901220421206806F002F920680168A5
:1019900041F001010160002070BD70472DE9F04168
:1019A00004460068C66805694FF00007A90713D50B
:1019B000B10711D5F91E01610120207720688069E7
:1019C0008007204602D0FFF7E8FF04E000F0DCF8D3
:1019D000204600F06EF92777680716D5700714D5F2
:1019E00021686FF004000861022020772068806978
:1019F00010F4407F204602D0FFF7CFFF04E000F054
:101A0000C3F8204600F055F92777280715D5300789
:101A100013D521686FF00800086104202077206842
:101A2000C0698007204602D0FFF7B7FF04E000F04E
:101A3000ABF8204600F03DF92777E80616D5F0060A
:101A400014D521686FF01000086108202077206805
:101A5000C06910F4407F204602D0FFF79EFF04E0EB
:101A600000F092F8204600F024F92777E80708D024
:101A7000F00706D021686FF001000861204600F0F1
:101A80007DF9280608D5300606D521686FF080005C
:101A900008612046FFF702FD680608D5700606D5E6
:101AA00021686FF040000861204600F0B7F9A806F1
:101AB0000AD5B00608D521686FF0200008612046DD
:101AC000BDE8F041FFF7EBBCBDE8F08110B586B092
:101AD000044614216846FEF73EFC2368234C00218F
:101AE00023480222A34212D1036843F0010303609A
:101AF000006800F0010005904FF410600090CDE9FF
:101B000001210120CDE9031069461A4813E01A4C5F
:101B1000A34214D1036843F008030360006800F097
:101B2000080005904FF470400090CDE90121CDE907
:101B3000031269461148FFF77BF806B010BD104C40
:101B4000A342FAD1036843F004030360006800F085
:101B5000040005904FF470700090CDE9012103203E
:101B6000CDE9031069460748E5E7000000000140A1
:101B7000303802400000024000080040000C0240E3
:101B80000004014000080240704770B5044690F818
:101B90003C0000260D4601280FD0012084F83C00AF
:101BA0006AB1042A1DD0082A2FD00C2A3FD0012662
:101BB000002084F83C00304670BD022070BD2068D3
:101BC00006F006F82068816941F00801816120680B
:101BD000816921F004018161206881692A691143CA
:101BE00011E0206806F024F82068816941F4006162
:101BF00081612068816921F4806181612068816947
:101C00002A6941EA02218161D2E7206806F046F89C
:101C10002068C16941F00801C1612068C16921F0F3
:101C20000401C1612068C1692A69114311E020687B
:101C300006F068F82068C16941F40061C16120685C
:101C4000C16921F48061C1612068C1692A6941EAE2
:101C50000221C161ACE710B5040003D094F83D0047
:101C600010B107E0012010BD002084F83C002046A0
:101C700000F01EF8022084F83D00211D206805F0C8
:101C80001BFF012084F8460084F83E0084F83F00E2
:101C900084F8400084F8410084F8420084F843004E
:101CA00084F8440084F8450084F83D00002010BD0D
:101CB0007047704710B50446022249B104290ED07E
:101CC000082913D094F84100012816D0012010BD36
:101CD00094F83E000128F9D184F83E200FE094F8F2
:101CE0003F000128F2D184F83F2008E094F840003A
:101CF0000128EBD184F8402001E084F84120012242
:101D0000206805F045FF16492068164A884201D030
:101D1000904203D1436C43F40043436420688842FB
:101D200013D0B0F1804F10D00F4988420DD00F4929
:101D300088420AD00E49884207D0904205D00D490A
:101D4000884202D00C49884204D1816801F0070121
:101D5000062903D0016841F001010160002010BD97
:101D60000000014000040140000400400008004061
:101D7000000C0040004001400018004070B50068B1
:101D80001D49884237D1022005F0B4FC1B4D286064
:101D9000032005F0AFFC1A4C4042206005F08AFD9C
:101DA00018480088012801D100F098FC164895EDEC
:101DB000000AD0ED000AB8EEC00A144800F044FB57
:101DC000BDEEC00A124A134882ED000AD0ED000AA7
:101DD00094ED000A0D48B8EEC00A483000F09AFBB6
:101DE000BDEEC00A0C4810EE101A01601068BDE884
:101DF000704005F095BC70BD001000400000002050
:101E00000400002054000020100000206402002084
:101E100008000020140000200C0000207047FEE79E
:101E2000F0B5DFF88CE023494FF0010CDEF80070CC
:101E3000D7B10846002302681F4C204D204E9FED6D
:101E4000210A501E012F1ED0022F0CD1002A2CDD9A
:101E500008609FED1D0A84ED000A9FED1C0A00BF7B
:101E600085ED000A3360F0BD002803DD0860CEF880
:101E700000C0F0BDFDDAC0F1000008604FF00200C4
:101E8000CEF80000F0BD002A05DD08609FED100AC5
:101E900084ED000AE4E7F5D184ED000A85ED000A3F
:101EA000CEF80030C6F800C0F0BDF5D0F0BD00009F
:101EB000840000202C0000201000002014000020CE
:101EC0002800002000000000000091C3000096C31D
:101ED000000096432DE9F04F87B014216846FEF7C5
:101EE0003AFA48480024016841F010010160016895
:101EF00001F010010591016841F080010160016865
:101F000001F080010591016841F001010160016863
:101F100001F001010591016841F0040101600168CF
:101F200001F004010591016841F0020101600168BE
:101F300001F002010591016841F0080101600068AB
:101F4000DFF8C49000F00800059000221F214846E9
:101F5000FEF76BFFDFF8B4A04FF47047002239465C
:101F60005046FEF762FFDFF8A8B04FF480780022F9
:101F700041465846FEF759FF1F200126CDE90006CD
:101F8000022569464846CDE90245FEF751FE20206C
:101F900000904FF48810CDE9010469461D48FEF712
:101FA00047FE30208DE8310069461B48FEF740FEB1
:101FB00003208DE8310069465046FEF739FE4FF4A4
:101FC000FF408DE8310069464846FEF731FECDE915
:101FD000007669465046CDE90245FEF729FECDE977
:101FE000008669465846CDE90245FEF721FE0022EB
:101FF00002211720FEF78CFF1720FEF77BFF07B0AA
:10200000BDE8F08F3038024000100240000402406A
:10201000000C0240000002400008024010B596B0DB
:1020200000240F9410941194129413941C21684668
:102030001494FEF790F9202107A8FEF78CF92C489C
:102040002A49C0E9001444F29F11C0E90241046129
:1020500044618461FFF796FA08B1FEF7BEFD4FF4C4
:1020600080500F900FA92248FFF740FB08B1FEF700
:10207000B4FD1F48FFF7EFFD08B1FEF7AEFD139466
:1020800013A91B481494FFF735FA08B1FEF7A5FD14
:102090006020CDE900040294039404940594002286
:1020A000694613480694FFF770FD08B1FEF795FDE9
:1020B0000C2269460E48FFF768FD08B1FEF78DFD5A
:1020C0000794089409944FF400500A94CDE90B400A
:1020D00007A907480E94FFF7E3F908B1FEF77DFD65
:1020E0000348FFF7F3FC16B010BD000000000140EC
:1020F000B400002010B58CB024216846FEF72BF9FF
:102100000024154809944FF080410A94C0E9001456
:102110004FF6FF71C0E90241046184610320CDE9FB
:1021200000040120CDE902040494CDE905400794A0
:10213000694609480894FFF747FB08B1FEF74DFDD3
:10214000099409A904480A94FFF7D4F9002801D09A
:10215000FEF743FD0CB010BDFC00002010B58CB0A4
:1021600024216846FEF7F7F800241648099414491C
:102170000A94C0E900144FF6FF71C0E902410461FE
:1021800084610320CDE900040120CDE90204049418
:10219000CDE90540079469460A480894FFF714FB07
:1021A00008B1FEF71AFD099409A906480A94FFF739
:1021B000A1F9002801D0FEF710FD0CB010BD000001
:1021C000000400404401002010B58EB000240794A4
:1021D000089409940A940B941C2168460C94FEF709
:1021E000BAF82A48284901605321C0E9011444F68D
:1021F0001F61C0E903148461FFF7C4F908B1FEF759
:10220000ECFC4FF48050079007A92048FFF76EFAC6
:1022100008B1FEF7E2FC1D48FFF71DFD08B1FEF70F
:10222000DCFC0B940BA919480C94FFF763F908B177
:10223000FEF7D3FC6020CDE9000402940022694639
:1022400012480494FFF7A1FC08B1FEF7C6FC042273
:1022500069460E48FFF799FC08B1FEF7BEFC08225C
:1022600069460A48FFF791FC08B1FEF7B6FC0C225C
:1022700069460648FFF789FC08B1FEF7AEFC034843
:10228000FFF724FC0EB010BD000800408C010020B8
:102290001CB500240E4800940C49019401605321A0
:1022A000C0E9011442F20F718461C160FFF76AF95D
:1022B00008B1FEF792FC0094694605480194FFF7C7
:1022C00019F9002801D0FEF788FC1CBD0010004061
:1022D000D401002010B596B000240F9410941194EE
:1022E000129413941C2168461494FEF734F82021AC
:1022F00007A8FEF730F8344832490160A721C0E949
:10230000011444F61F61C0E9031444618461FFF7BE
:1023100039F908B1FEF761FC4FF480500F900FA916
:102320002948FFF7E3F908B1FEF757FC2648FFF705
:1023300092FC08B1FEF751FC139413A9224814949F
:10234000FFF7D8F808B1FEF748FC6020CDE900049B
:102350000294039404940594002269461A48069452
:10236000FFF713FC08B1FEF738FC04226946164853
:10237000FFF70BFC08B1FEF730FC08226946124853
:10238000FFF703FC08B1FEF728FC0C2269460E4853
:10239000FFF7FBFB08B1FEF720FC079408940994B3
:1023A0004FF400500A94CDE90B4007A906480E945B
:1023B000FFF776F808B1FEF710FC0348FFF786FB3D
:1023C00016B010BD000401401C020020FEE7000012
:1023D00010B53C210448FFF799FABDE810403C21B4
:1023E0000248FFF793BA0000FC00002044010020DF
:1023F00010B500211148FFF75DFC0C210F48FFF7D5
:1024000059FC0F4C002201212046FEF70EFD002250
:1024100002212046FEF709FD002208212046FEF792
:1024200004FD002210212046FEF7FFFC2046012279
:10243000BDE810400421FEF7F8BC0000B400002005
:1024400000100240FEE7000090B190ED101A80ED00
:10245000111AD0ED0F1AC0ED101AC0ED060A80ED6A
:10246000070A30EEC00A80ED0F0A017819B14BE07F
:102470009FED270A7047D0ED010A20EE801A80ED0B
:10248000091AD0ED0A0A90ED022A42EE000A30EE57
:10249000610AC0ED0A0A90ED0D2A80ED0E2A90ED3A
:1024A0000C2A80ED0D2A80ED0C0AD0ED031A61EEA6
:1024B000801AC0ED0B1A90ED050AF4EEC00AF1EE99
:1024C00010FA09DCB1EE400AF4EEC00AF1EE10FA9F
:1024D00002D390ED0A0A01E080ED0A0A31EE000A0B
:1024E00030EE210A80ED080AD0ED040AB4EEE00ACD
:1024F000F1EE10FA06DCF1EE600AB4EEE00AF1EE5D
:1025000010FA01D2C0ED080A90ED080A70470000E9
:102510000000000090B190ED101A80ED111AD0ED7E
:102520000F1AC0ED101AC0ED060A80ED070A30EE52
:10253000C00A80ED0F0A017819B14BE09FED270A20
:102540007047D0ED010A20EE801A80ED091AD0ED17
:102550000A0A90ED022A42EE000A30EE610AC0ED4E
:102560000A0A90ED0D2A80ED0E2A90ED0C2A80EDDE
:102570000D2A80ED0C0AD0ED031A61EE801AC0ED31
:102580000B1A90ED050AF4EEC00AF1EE10FA09DC20
:10259000B1EE400AF4EEC00AF1EE10FA02D390ED6B
:1025A0000A0A01E080ED0A0A31EE000A30EE210A43
:1025B00080ED080AD0ED040AB4EEE00AF1EE10FA5C
:1025C00006DCF1EE600AB4EEE00AF1EE10FA01D298
:1025D000C0ED080A90ED080A7047000000000000F6
:1025E000DFED0C1A9FED0C2A00B5F0EE610AB0EE9B
:1025F000420A0A4A00210A4800F014F8084800215B
:10260000F0EE610AB0EE420A044A48305DF804EB8D
:1026100000F036B800409C4500C0DA45B8B000086C
:1026200064020020002828D0002A26D0017092EDF4
:10263000001A80ED011A92ED011A80ED021A92ED56
:10264000021A80ED031A80ED040A9FED0C0AC0ED1A
:10265000050A80ED0E0A80ED0D0A80ED0C0A80ED72
:10266000080A80ED0B0A80ED0A0A80ED090A80ED68
:10267000110A80ED100A80ED0F0A7047000000007B
:10268000002828D0002A26D0017092ED001A80ED93
:10269000011A92ED011A80ED021A92ED021A80EDF4
:1026A000031A80ED040A9FED0C0AC0ED050A80EDC7
:1026B0000E0A80ED0D0A80ED0C0A80ED080A80ED0F
:1026C0000B0A80ED0A0A80ED090A80ED110A80EDFF
:1026D000100A80ED0F0A7047000000002DE9FE4F40
:1026E000F748F849F94E00680290B1F900100191DD
:1026F000F549F74FF94AB1F900100091F84DB6F9D4
:102700000010DFF8D093DFF8D0A3D7F800E0B5F9D8
:10271000008013684FF0070B0024E8B18446484658
:10272000BCF1010FB0F900205046B0F9000078D09C
:102730001CF15A0F6DD0DDF808C0BCF15A0F69D0FA
:102740001CF12D0F02F0E280DDF808C0BCF12D0F66
:1027500002F0D48503F07EBC23B1DFF880E3012BC7
:1027600024D0F7E7B8F1000F0DD0B8F1010F7BD1FD
:102770005FEA0E00FBD16FF02800FFF751FB3868CD
:10278000012807D0E6E7D74904200880012005F09A
:1027900005FBDFE7D1490120D34A0860A9F80040D2
:1027A0002C803C60308017211180FDE10029DED1B2
:1027B000CE480123C4490380009A012AD7D1DDF80D
:1027C0000480C04AB8F1010F26D00BDC6FF0590C21
:1027D000E04503D06FF02C0CE04509D1B84BC3F8AD
:1027E00000C00CE0B8F12D0F15D0B8F15A0F0DD084
:1027F00003800C80B2480068FDF712FEAAE704804F
:102800000C800221CEF800101480F3E75A2303E075
:1028100007E0F3E3F3E32D23DFF8A4C2CCF80030A4
:10282000EDE7022B08D0032B1FD0042B36D0DFF8A6
:10283000ACE2052B69D08FE0AB490120A6F800B0CF
:102840000880B8F1000F01D107F0BEF9B5F900001A
:10285000002827DA012007F0B7F9288810BB9F4825
:10286000032101602C8077E003E2B8F1000F2DD046
:10287000B8F1010F70D15FEA0E006DD16FF0310039
:10288000FFF7CEFA3868012866D194490420086021
:102890002C8009203C603080012033E011B912B156
:1028A000012A04D058E0002006F054FA54E010B198
:1028B000012804D050E0162007F0B2FF4CE0B8F138
:1028C000000F03D0B8F1010F04D045E0012006F05D
:1028D000C9FF41E05FEA0E003ED16FF02800FFF72C
:1028E0009FFA3868012837D17C4805217E4A01606B
:1028F000A9F800402C80AAF8004001203C603080FC
:10290000172111807A49088026E029BB77480123E6
:102910006D490380009A012A1ED1DDF80480694ABE
:10292000B8F1010F2FD00BDC6FF0590CE04503D04C
:102930006FF02C0CE04509D1614BC3F804C018E0DE
:10294000B8F12D0F1ED0B8F15A0F19D003800C80AA
:102950005B484068FDF764FD5948406810F15A0F24
:1029600016D05A286ED010F12D0F6CD02D286BD0B8
:10297000F0E604800C800620CEF800001480E7E723
:102980005A2300E02D23DFF838C1CCF80430F0E7FB
:1029900052480068062809D0DFF8408107281DD07A
:1029A000082832D0C64609286CD0AFE04E49A6F8B8
:1029B00000B001200880288810B9012007F004F930
:1029C000B5F90000002827DA012007F0FDF8288873
:1029D00010BB4249C1F800B02C8097E0B5F9000067
:1029E00078B3012818D13868B0B96FF03100FFF71B
:1029F00017FA386801280FD10820C8F800002C8089
:102A000009203C603080012039E0308820B9B9F9D4
:102A1000001011B1012904D078E0002006F09AF9E5
:102A200074E0BAF9001011B1012904D06EE00C2055
:102A300007F0F6FE6AE0B5F9000010B1012808D0F1
:102A400064E002E036E145E2F8E3012006F00AFF27
:102A50005CE0386890BB6FF02800FFF7E1F9386858
:102A6000012853D10921C8F80010A9F800402C8092
:102A7000AAF800401C4A3C603080172111801C4994
:102A8000088043E03088C8B918480F490123038003
:102A90000A88012A3AD10B4AB2F90080B8F1010F35
:102AA00048D027DC6FF0590CE04503D06FF02C0CB8
:102AB000E04525D1024BC3F808C031E026E0000014
:102AC00094000020440000204A0000204200002022
:102AD000280000203E000020200000207000002080
:102AE00040000020240000204C000020480000206E
:102AF0004E000020B8F12D0F1BD0B8F15A0F16D0A0
:102B000003800C80F8488068FDF78AFCF6488068EE
:102B10005A2814D010F12D0F57D02D2876D019E651
:102B200004800C800A20CEF800001480EAE75A23C3
:102B300000E02D23DFF8B0C3CCF80830F0E7DFF871
:102B4000AC83D8F800000A2805D00B2819D00C282F
:102B500003F08F80FEE5E649A6F800B0012008806A
:102B6000288810B9012007F02FF8B5F900000028D7
:102B7000D5DA012007F028F828880028CFD10B20CB
:102B800045E0B5F90000002803F05582012870D116
:102B900038680028FBD16FF03100FFF741F9386841
:102BA0000128BCD10C206CE2D2497AE2B9F90010BC
:102BB000002903F04C820129E9D1BAF90030F7E38A
:102BC0001423C8F8003001F09CBEC84908680A28E0
:102BD00003D088460B280ED0E6E2B9F9002092B364
:102BE000012AD4D1BAF90030002B71D0012BCED1FB
:102BF0000B230B604BE0288878B3F4E3012006F048
:102C0000E3FF2888002803F03180A3E529E0C8F815
:102C1000000004F018BD00BFB5F900000028B3D0D3
:102C20000128B4D138680028B1D16FF03100FFF726
:102C3000F7F8386801288DD10D20B4E70A460D2831
:102C400003F0008286E527E0B9F900100029B0D032
:102C500001299CD1BAF90030FBE321E01423136071
:102C6000B1E7A24801680A2904D080460B29C2D0E6
:102C7000F1E329E1B9F9001071B1012987D1BAF95D
:102C80000030002B70D0012B84D10B230360A9F8F6
:102C900000402C8002F00CB8002005F0D5FA59E570
:102CA0009349A6F800B001200880FFE302460D29F1
:102CB000C6D04FE58D48006806280AD0DFF82C8280
:102CC00007283CD0082851D0C64609286BD092E08E
:102CD00067E1B9F9001011B1012909D08BE08449ED
:102CE000A6F800B004200880002005F0ADFA82E0CC
:102CF000BAF9001019B1D046012904D07BE00C20AC
:102D000007F08EFD77E0B5F9000070B3012872D1AD
:102D1000386840BB6FF02800FFF782F83868012858
:102D200069D17249C1F800B0A9F800402C80A8F818
:102D300000406F493C6030800880042030E03088DB
:102D400088B9288810B9012006F03EFFB5F90000C7
:102D5000002850DA012006F037FF288818B908202B
:102D6000C8F800002C8046E01CE105E0B5F9000041
:102D700010B1012804D03EE0012006F073FD3AE0D6
:102D80003868C0BB6FF03100FFF74AF83868012897
:102D900031D10920C8F800002C803C60308001202F
:102DA0005449088027E0308828BB53485349012301
:102DB00003800A88012A1ED1514AB2F90080B8F175
:102DC000010F2DD00BDC6FF0590CE04503D06FF0F4
:102DD0002C0CE04509D1444BC3F808C016E0B8F10B
:102DE0002D0F1CD0B8F15A0F17D003800C803E482D
:102DF0008068FDF715FB3C48806810F15A0F14D02D
:102E000010F12D0F41D02D284ED0A3E404800C806A
:102E10000A20CEF800001480E9E75A2300E02D23B1
:102E2000DFF8C4C0CCF80830F0E7304A10680A2850
:102E30000FD1B9F90010002902F02986012943D1E8
:102E4000BAF90030002B73D03CE00B23136004F080
:102E50000EBC90460B2839D00C2812D1B5F90000D1
:102E6000002803F0E88001282ED1386800282BD1F3
:102E70006FF03100FEF7D4FF38680128C5D10D206E
:102E8000D4E10D2802F0F58664E4184A10680A2897
:102E9000DFD1B9F900100029CED0012914D1BAF937
:102EA0000030002B7DD00DE0104A10680A28D0D1E8
:102EB000B9F900000028BFD0012805D1BAF90030C7
:102EC000002B6FD0012BC0D0BDE8FE8F30880028CA
:102ED0006AD0F9E705480068062813D0DFF80CE04F
:102EE00007284DD079E000009400002070000020F9
:102EF0004C0000204E000020480000204A00002026
:102F000044000020B9F9001011B1012909D064E092
:102F1000FF49A6F800B004200880002005F094F9CD
:102F20005BE0BAF9001021B1D046012905D054E088
:102F3000E6E00C2007F074FC4FE0B5F9000010B19A
:102F4000012804D049E0012006F08CFC45E03868F7
:102F500048BB6FF02800FEF763FF386801283CD1BA
:102F6000EC49C1F800B0A9F800402C80A8F8004056
:102F7000E7493C6030800880E749042008802CE065
:102F8000308880B9E548E649012303800A88012A90
:102F900023D1E44AB2F90080B8F1010F33D010DC3C
:102FA00003E0AEE04BE118E06EE16FF0590CE04554
:102FB00003D06FF02C0CE04509D1DB4BC3F808C0FF
:102FC00015E0B8F12D0F1DD0B8F15A0F18D00380BD
:102FD0000C80D5488068FDF723FAD348806810F14B
:102FE0005A0F15D05A2878D02D2877D006E40480BF
:102FF0000C800820CEF800001480EAE7C6E2F1E376
:103000005A2300E02D23DFF820C3CCF80830EEE788
:10301000C049086808280FD1B9F90020002A3FF4F8
:103020003BAE012A7FF455AFBAF90030002B68D0CF
:10303000D5E109230B6036E28846092879D00A28B1
:103040000DD00A460B2875D00C2874D00D2848D115
:1030500031E0012006F0B8FD2888E8B388E4B5F92E
:103060000000002802F0E7870128DBD1386800283B
:10307000D8D16FF03100FEF7D3FE38680128B5D102
:103080000B20FCE3B9F90010002902F0E0870129C8
:10309000C8D1BAF900309BB3AEE10C231360A5E0B0
:1030A0009B49088010E7012006F08EFD2888002843
:1030B00002F0F4855CE4B5F900000028D2D00128C4
:1030C000F0D138680028EDD16FF03100FEF7A8FE8E
:1030D000386801288AD102E026E206E068E00E2086
:1030E000A4E00E2802F0C58542E4DFF82882D8F873
:1030F0000000082806D009281ED00A2832D04EE049
:1031000077E1D3E08249A6F800B00420088028883F
:1031100010B9012006F058FDB5F9000000283EDA8C
:10312000012006F051FD288888BB0921C8F800104D
:103130006FE5B9E058E1B8E0B5F9000060B10128E9
:10314000B0D138680028ADD16FF03100FEF768FECD
:103150003868012804D022E0012006F083FB1EE03D
:103160000A2063E0308800289CD1B9F9001079B1B9
:10317000012997D1BAF9002072B1012A92D10B220C
:10318000C8F80020A9F80040AAF80040FEE306E0D5
:10319000002005F0DFFD02E0172007F041FBD8F822
:1031A000000041460B286FD00C287FF447AD33E573
:1031B0005849086808280BD08846092874D00A287E
:1031C00022D00A460B283BD00C286ED002F090B8D3
:1031D000B9F90020002A3FF45FAD012AB0D1BAF955
:1031E000003063B3012BABD109230B60A9F8004079
:1031F000AAF80040A6F800B0042051E7B5F9000095
:103200000028FFF626AF8AE4B5F90000002802F096
:103210001287012894D13868002891D16FF03100CD
:10322000FEF7FEFD38680128EDD10B20C8F800003C
:103230002C8009203C6030800420B5E425E009E1C1
:103240003088002890D1B9F90010002902F0FF86DB
:10325000012989D1BAF9003043B3012B84D10C2361
:10326000136020E1B5F900000028D0D0012885D1F5
:1032700038680028B2D16FF03100FEF7D1FD386810
:103280000128C0D10E20FAE20EE12248006806288B
:1032900004D0DFF880E007284FD075E0B9F90010BE
:1032A00029B101290CD06FE036E151E14DE1184917
:1032B000A6F800B004200880002004F0C5FF63E0F9
:1032C000BAF9001019B1D046012904D05CE00C20F5
:1032D00007F0A6FA58E0B5F9000010B1012804D0B3
:1032E00052E0012006F0BEFA4EE0386820BB6FF0D5
:1032F0002800FEF795FD3868012845D10549C1F839
:1033000000B0A9F800402C80A8F800403C600DE017
:103310004C000020700000204E00002048000020DB
:103320004A0000204400002094000020FA49308028
:103330000880FA490420088026E0308820BBF8483D
:10334000F8494FF0010CA0F800C00A88012A1BD1EF
:10335000F54AB2F90080B8F1010F1FD007DC6FF019
:103360005903984526D05B10984506D122E0B8F164
:103370002D0F24D0B8F15A0F1BD0A0F800C00C803C
:10338000EA488068FDF74CF8E848806810F15A0F69
:1033900017D05A2834D02D3071D036E4E34BC3F81F
:1033A00008C004800C800820CEF800001480E7E7F5
:1033B0008EE05A23DFF874C3CCF80830F1E72D23F0
:1033C000F8E7DB49086808287FF436AEB9F9002031
:1033D000002A3FF461AC99E0BAF90030D3B3012B75
:1033E0003FF427AE70E564E0308800283FF44AAE31
:1033F0006AE5162002F068B9012B3FF44EAE63E592
:10340000DFF82C83D8F8000008280CD0092823D036
:103410000A2836D00B2847D00C283FF4C8AE0D2818
:1034200002F03E810EE4BC49A6F800B004200880FA
:10343000288810B9012006F0C7FBB5F90000002864
:10344000ABDA012006F0C0FB288800283FF46DAEFF
:1034500025E4FCE355E0FBE3B5F90000002802F0A9
:10346000EA850128BED138680028BBD16FF0310051
:10347000FEF7D6FC386801283FF472AE0FE42AE06C
:1034800014E030880028ADD1B9F90010002902F00D
:10349000DE850129A6D1BAF9003093B3012BA1D161
:1034A0000B23C8F80030F2E2288810B9012006F09A
:1034B0008BFBB5F900000028FFF6A0ABA5E400BF28
:1034C000B9F900000028E2D001288BD1BAF9003008
:1034D000EBB302F091BD96490868082812D08846DF
:1034E000092819D00A283FF4BAAD0A460B281ED085
:1034F0000C282DD00D283FF4ABAD0B460E2832D052
:1035000083E407E0B9F90020002AC0D0012A3FF483
:1035100063AFD9E40D206DE7288800287FF46EAEF4
:10352000012006F051FB69E60A20FFF770BB3088E6
:103530000028EED1B9F900100029A8D00129E8D15E
:10354000BAF90030002B7FF4A7AD172052E71BE03B
:10355000288810B9012006F037FBB5F900000028D3
:10356000FFF6A1AD51E430880028D2D1B9F90000AE
:1035700000288CD00128CCD1BAF9000020B1012854
:10358000C7D114201860FDE30B2033E7022B08D0CD
:10359000032B3AD0042B4DD0DFF894E1052B69D0F2
:1035A0008FE012B1012A09D08BE05B49A6F800B088
:1035B00004200880002004F047FE82E010B10128BA
:1035C00004D07EE0162007F02BF97AE0B8F1000F66
:1035D00037D0B8F1010F74D15FEA0E0071D16FF0EE
:1035E0002800FEF71DFC386801286AD150480321E5
:1035F0000160A9F800402C80AAF80040464901204B
:103600003C6030800880042031E091BBB8F1000FAD
:1036100002D1012006F0D8FAB5F90000002850DAEE
:10362000012006F0D1FA288818BB4149042008601F
:103630002C8046E0B8F1000F03D0B8F1010F04D0A0
:103640003FE0012006F00EF93BE05FEA0E0038D1C2
:103650006FF03100FEF7E4FB3868012831D13448BF
:10366000052101602C8009203C60308001202B491D
:10367000088026E029BB2A4801232A490380009AB2
:10368000012A1ED1DDF80480274AB8F1010F2ED09F
:103690000BDC6FF0590CE04503D06FF02C0CE045CB
:1036A00009D1224BC3F804C017E0B8F12D0F1DD08B
:1036B000B8F15A0F18D003800C801C484068FCF702
:1036C000AFFE1A484068012816D05A287BD010F166
:1036D0002D0F79D02D2878D088E404800C80062026
:1036E000CEF800001480E8E75A2300E02D23DFF82D
:1036F0003CC0CCF80430F0E70D480068062819D02B
:10370000DFF82C80072831D0082842D009285DD066
:10371000C6460A2867D0C0E04C0000204E000020BA
:10372000480000204A0000204400002094000020AF
:1037300070000020B9F9001011B1012906D0ACE0E9
:10374000F849A6F800B00420088047E0BAF9002044
:1037500012B1012A02D0A0E004204DE0F24BC3F8E0
:1037600000B0A9F80040AAF8004096E0288810B9F7
:10377000012006F029FAB5F9000000282DDA012011
:1037800006F022FA288840BB0820C8F800002C80E8
:1037900083E0B5F9000038B301287ED13868E0B97C
:1037A0006FF03100FEF73CFB3868012875D1092124
:1037B000C8F800102C80DD4904203C60308008806F
:1037C0000120D8493DE091E088E19BE2308820B9B2
:1037D000B9F9001011B1012907D05EE0002005F011
:1037E000B9FA5AE085E32EE00FE0BAF9001011B102
:1037F000012904D051E0162007F012F84DE0B5F988
:10380000000010B1012804D047E0012006F02AF89A
:1038100043E03868A0BB6FF02800FEF701FB386872
:1038200001283AD10A20C8F80000A9F800402C80ED
:10383000AAF800400120BB4A3C603080172111806B
:10384000BA49088029E03088D0B9B948B94901237C
:1038500003800A88012A20D1B74AB2F90080B8F162
:10386000010F2DD00DDC6FF0590CE04503D06FF047
:103870002C0CE0450BD1B14BC3F808C016E01BE29D
:103880000BE0B8F12D0F1AD0B8F15A0F15D0038004
:103890000C80AA488068FCF7C3FDA84880685A28B5
:1038A00002F0CA8110F12D0F71D015E004800C8058
:1038B0000B20CEF800001480EBE75A2300E02D2304
:1038C000DFF878C2CCF80830F0E70C23F5E30246C5
:1038D0000E2902F0B78307E42D287DD004E400BF51
:1038E000B9F90020002A02F09D83EEE18E480068BD
:1038F000062809D0DFF83082072836D008284ED0B5
:10390000C64609286ED096E0B9F9001011B1012918
:1039100004D090E0002005F01DFA8CE0BAF9001008
:1039200019B1D046012904D085E00C2006F078FFBB
:1039300081E0B5F9000058B301287CD1386840BB5C
:103940006FF02800FEF76CFA3868012873D17649C9
:10395000C1F800B0A9F800402C80A8F800407349D5
:103960003C6030800880042039E0308888B928889D
:1039700010B9012006F028F9B5F9000000285ADA3C
:10398000012006F021F9288818B903E09DE200E340
:103990000BE043E00820C8F800002C804BE0B5F9AC
:1039A000000010B1012804D045E0012005F05AFFC5
:1039B00041E0386890BB6FF03100FEF731FA3868AB
:1039C000012838D10921C8F800102C80574904205B
:1039D0003C603080088001E0F8E303E017205149A3
:1039E000088028E03088C8B9514852490123038033
:1039F0000A88012A1FD1504AB2F90080B8F1010F9C
:103A00002DD00CDC6FF0590CE04503D06FF02C0C7E
:103A1000E0450AD1494BC3F808C016E00BE0B8F105
:103A20002D0F1BD0B8F15A0F16D003800C804348DD
:103A30008068FCF7F5FC41488068012814D010F13B
:103A40002D0F2DD02D283AD0A7E404800C800A2019
:103A5000CEF800001480EAE75A2300E02D23DFF8B7
:103A6000DCC0CCF80830F0E72F4801680A2958D1AB
:103A7000B9F90020002A02F0EA82012A7FF4B2ACF0
:103A8000BAF90030D3B3012BF8D10B230360A9F8A6
:103A90000040AAF80040A6F800B00120FFF700BBE4
:103AA000214801680A29E2D1B9F90020002AE2D0B0
:103AB000012AE3D1BAF90030002BE4D145E51A48D8
:103AC00001680A292DD1B9F90020002AD3D0012A92
:103AD000D4D1BAF90030002BD5D11BE512480068CB
:103AE00006280CD0DFF84080072833D0082844D0BF
:103AF00009285BD0C6460A2874D0BFE0E3E1B9F9D3
:103B0000001011B1012906D0B8E00649A6F800B0AE
:103B10000420088052E0BAF900208AB1012A11D0AD
:103B2000ACE0FCE34C000020700000204E000020C0
:103B3000480000204A00002044000020940000209B
:103B4000172046E0F74BC3F800B0A9F80040AAF8E8
:103B5000004093E0288810B9012006F035F8B5F947
:103B60000000002829DA012006F02EF8288820BB62
:103B70000820C8F800002C8080E0B5F9000090B360
:103B800001287BD13868C0B96FF03100FEF748F9E1
:103B90003868012872D10921C8F800102C80E24948
:103BA00004203C6030800880012038E0308820B953
:103BB000B9F9001011B1012904D05FE0002005F02F
:103BC000C9F85BE0BAF9001011B1012904D055E041
:103BD0000C2006F025FE51E0B5F9000018B10128CF
:103BE00006D04BE01EE0FFE7012005F03BFE45E07C
:103BF000386870BB6FF02800FEF712F938680128AA
:103C00003CD10A20C8F80000A9F800402C80AAF88E
:103C10000040C54901203C60308008801720C3491E
:103C200008802BE03088A0B9C148C2490123038035
:103C30000A88012A22D1C04AB2F90080B8F1010FE6
:103C40002FD00FDC6FF0590CE04507D002E052E0B6
:103C5000F0E313E06FF02C0CE04509D1B74BC3F84B
:103C600008C014E0B8F12D0F1AD0B8F15A0F15D0D2
:103C700003800C80B1488068FCF7D2FBAF488068B5
:103C800001287DD05A287CD02D287CD016E40480D1
:103C90000C800B20CEF800001480EBE75A2300E0E4
:103CA0002D23DFF898C2CCF80830F0E7B9F90020EE
:103CB000002A02F0B78100E1C8F800002C8009203A
:103CC0003C6030800120FEF76FBF012A7FF421ACF9
:103CD000BAF90030002B3FF400AF06E102460E298E
:103CE00075D00DE4B9F90000002802F0B081012878
:103CF000ECD1BAF90030002B3FF446AC012B3EF476
:103D0000ADAF06E48748006806280BD0DFF81482C0
:103D1000072823D0082839D0092850D0C6460A28B9
:103D20006BD0B2E0B9F9001011B1012906D0ACE0B6
:103D30007E49A6F800B00420088049E0BAF90020C6
:103D400012B1012A02D0A0E00D204CE0754BC3F85F
:103D500000B0A9F80040AAF8004096E0288810B901
:103D6000012005F031FFB5F9000000282EDA01200E
:103D700005F02AFF288848BB0820C8F8000003E0A7
:103D800005E105E1E7E3E7E32C807EE0B5F900001B
:103D900090B3012879D13868C0B96FF03100FEF7CF
:103DA0003FF83868012870D10921C8F800102C802C
:103DB0005D4904203C6030800880012039E0308873
:103DC00020B9B9F9001019B1012905D05DE0D6E29A
:103DD000002004F0BFFF58E0BAF9001011B101292A
:103DE00004D052E00C2006F01BFD4EE0B5F90000B7
:103DF00010B1012806D048E000E01DE0012005F0E8
:103E000031FD42E0386898BB6FF02800FEF708F8F3
:103E10003868012839D10A20C8F80000A9F8004004
:103E20002C80AAF80040404901203C603080088086
:103E300017203E49088028E03088C8B93C483D49F1
:103E4000012303800A88012A1FD13B4AB2F900806E
:103E5000B8F1010F2CD00CDC6FF0590CE04503D009
:103E60006FF02C0CE0450AD1344BC3F808C015E0C4
:103E70000BE0B8F12D0F1AD0B8F15A0F15D003800E
:103E80000C802E488068FCF7CBFA2C48806801280B
:103E90007DD05A287CD02D307BD01DE404800C804E
:103EA0000B20CEF800001480EBE75A2300E02D230E
:103EB000DFF888C0CCF80830F0E7012A7FF421AFA2
:103EC000BAF900308BB90420F1E3A6F800B0012064
:103ED000C8E100BFB9F90020002A70D0012AEDD155
:103EE000BAF90030002B3FF4E9AD012B3FF4EDAC03
:103EF00007E7022B08D0032B4CD0042B60D0DFF84F
:103F000024E0052B7DD0A0E012B1012A18D09CE05E
:103F10000649A6F800B004200880002004F094F9B7
:103F200093E00000700000204E0000204C000020B4
:103F3000480000204A000020440000209400002097
:103F400010B1012804D080E00C2006F069FC7CE070
:103F5000B8F1000F3BD0B8F1010F76D15FEA0E0047
:103F600073D16FF02800FDF75BFF386801286CD132
:103F7000FB4803210160A9F800402C80AAF800400A
:103F8000F84901203C6030800880042035E07AE365
:103F9000E6E36BE199BBB8F1000F02D1012005F017
:103FA00013FEB5F9000000284FDA012005F00CFEE1
:103FB000288820BBEA49042008602C8045E0DFE126
:103FC000B8F1000F03D0B8F1010F04D03DE001209B
:103FD00005F048FC39E05FEA0E0036D16FF03100A1
:103FE000FDF71EFF386801282FD1DD48052101604B
:103FF0002C8009203C6030800120DB49088024E0CF
:10400000FFE711BBD9480123D9490380009A012A4F
:104010001BD1DDF80480D74AB8F1010F22D008DCAB
:104020006FF0590CE04522D06FF02C02904506D17C
:1040300029E0B8F12D0F2ED0B8F15A0F21D003800E
:104040000C80CD484068FCF7EBF9CB48406801286C
:1040500023D010F15A0F7AD010F12D0F78D02D28DF
:1040600077D038E4DFF810C3CCF8043002E0C24B5C
:10407000C3F804C004800C800620CEF80000148031
:10408000DFE75A23EEE7BC4B5A6004800C80062021
:10409000CEF80000D5E72D22F5E7B14800680628E4
:1040A0000CD0DFF8BC82072824D0082835D0092896
:1040B00050D0C6460A286ED0B2E0F2E3B9F900103B
:1040C00011B1012906D0ABE0A649A6F800B0042042
:1040D000088047E0BAF9002012B1012A02D09FE01F
:1040E00004204AE09E4BC3F800B0A9F80040AAF8AB
:1040F000004095E0288810B9012005F065FDB5F96C
:10410000000000282DDA012005F05EFD288840BB64
:104110000820C8F800002C8082E0B5F9000078B3D0
:1041200001287DD13868E0B96FF03100FDF778FEE5
:104130003868012874D10921C8F800102C808A49F8
:1041400004203C6030800880012086493CE0B3E0D8
:10415000C1E1ADE2308820B9B9F9001011B10129EF
:1041600004D05DE0002004F0F5FD59E0BAF900103C
:1041700011B1012905D053E0162006F051FB4FE0A4
:1041800005E0B5F9000010B1012805D048E0012094
:1041900005F068FB44E01AE03868A0BB6FF0280027
:1041A000FDF73EFE386801283AD10A20C8F8000021
:1041B000A9F800402C80AAF800400120694A3C6020
:1041C0003080172111806849088029E0F5E33088A4
:1041D000C8B966486649012303800A88012A1FD1AD
:1041E000644AB2F90080B8F1010F2ED00CDC6FF0F8
:1041F000590CE04503D06FF02C0CE0450AD15E4B22
:10420000C3F808C017E00BE0B8F12D0F1CD0B8F1CF
:104210005A0F17D003800C8057488068FCF700F9CC
:104220005548806810F15A0F14D010F12D0F1DD091
:104230002D2821D008E404800C800B20CEF800004B
:104240001480E9E75A2300E02D23DFF82CC1CCF8D5
:104250000830F0E7DFF80881D8F800000B287DD19E
:10426000012030803F490880FFF71EB93C480168B3
:104270000B293FF42FAE0BE2394908680B280AD00E
:1042800088460C283FF464A90D283EF4EBAF0A469B
:104290000E2874D0FAE4B9F90020002A70D0012A5F
:1042A0007FF426AEBAF90030002B3FF416AC012B98
:1042B000F6D10C230B60F3E329480068062809D0E7
:1042C000DFF89C80072838D008285FD0C646092828
:1042D0007DD0A5E0B9F9001011B1012904D09FE00B
:1042E000002004F037FD9BE0BAF9001019B1D04668
:1042F000012904D094E0162006F092FA90E0B5F976
:10430000000060B3012839D13868B8BB6FF02800CD
:10431000FDF786FD3868012830D1114900E0C3E07F
:10432000C1F800B0A9F800402C80A8F800400E4960
:104330003C6030800880042045E03088F0B928884F
:1043400010B9012005F040FCB5F90000002867DA3B
:10435000012005F039FC288880B912E0FEE31BE05B
:10436000700000204C0000204E000020480000207B
:104370004A000020440000209400002043E0EEE3C7
:10438000EEE30820C8F800002C8049E0B5F90000F1
:1043900010B1012804D043E0012005F063FA3FE0AA
:1043A000386880BB6FF03100FDF73AFD38680128AE
:1043B00036D10921C8F800102C80F84904203C604F
:1043C000308008801720F649088029E0FFE7308810
:1043D000C8B9F448F449012303800A88012A1FD18F
:1043E000F24AB2F90080B8F1010F2ED00CDC6FF068
:1043F000590CE04503D06FF02C0CE0450AD1EC4B92
:10440000C3F808C017E00BE0B8F12D0F1CD0B8F1CD
:104410005A0F17D003800C80E5488068FCF700F83D
:10442000E3488068012815D010F12D0F28D02D28E1
:1044300036D02BE43CE004800C800A20CEF800004B
:104440001480E9E75A2300E02D23DFF864C3CCF899
:104450000830F0E7D74801680A2925D1B9F90020CA
:10446000002A77D0012A7FF443ADBAF90030002B3F
:104470003FF429AD2CE0CA49088084E20B2310E206
:10448000CC4801680A290FD1B9F90020002AE8D0E8
:10449000012AE8D1BAF90030002B3FF456A817E002
:1044A000C44801680A2908D080460B293FF4DCAED5
:1044B0000C297EF4FBABFEF7AFBBB9F90020002A54
:1044C000CFD0012ACFD1BAF90030002B3FF422A877
:1044D000012BD3D015E4B748006806280BD0DFF8CD
:1044E000D482072823D0082837D009284ED0C646C2
:1044F0000A2868D0AFE0B9F9001011B1012906D03F
:10450000A9E0A749A6F800B00420088046E0BAF95F
:10451000002012B1012A02D09DE0172049E0A54BEE
:10452000C3F800B0A9F80040AAF8004093E028883A
:1045300010B9012005F048FBB5F9000000282CDA7D
:10454000012005F041FB288838BB0820C8F800008E
:104550002C8080E0F0E3D4E19BE0B5F9000088B363
:10456000012878D13868C0B96FF03100FDF758FCE8
:10457000386801286FD10921C8F800102C808749BC
:1045800004203C6030800880012038E0308820B969
:10459000B9F9001011B1012904D05CE0002004F049
:1045A000D9FB58E0BAF9001011B1012904D052E04A
:1045B000162006F035F94EE0B5F9000010B10128DB
:1045C00006D048E000E01DE0012005F04BF942E094
:1045D000386898BB6FF02800FDF722FC3868012886
:1045E00039D10A20C8F80000A9F800402C80AAF8A8
:1045F00000406A4901203C603080088017206849EB
:10460000088028E03088C8B96648674901230380DC
:104610000A88012A1FD1654AB2F90080B8F1010F5A
:104620002CD00CDC6FF0590CE04503D06FF02C0C53
:10463000E0450AD15E4BC3F808C015E00BE0B8F1C5
:104640002D0F1AD0B8F15A0F15D003800C8058489E
:104650008068FBF7E5FE56488068012813D010F10A
:104660005A0F7DD0FFF710BB04800C800B20CEF8D2
:1046700000001480EBE75A2300E02D23DFF830C15F
:10468000CCF80830F0E74B4801680B293FF40EAB3B
:10469000F7E3484801680B293FF422A980460C291A
:1046A0003EF456AF0D297FF419ABFEF7DBBDE9E30D
:1046B0004048006806280BD0DFF8F880072823D090
:1046C000082834D009284CD0C6460A2874D0BBE04C
:1046D000B9F9001011B1012906D0B5E03049A6F8AA
:1046E00000B00420088044E0BAF9002012B1012A89
:1046F00002D0A9E00D2047E02E4BC3F800B0A9F886
:104700000040AAF800409FE0288810B9012005F079
:104710005BFAB5F9000000282ADA012005F054FA06
:10472000288828BB0820C8F800002C808CE0B5F948
:10473000000090B301281BD13868C8B96FF0310070
:10474000FDF76EFB386801287ED10921C8F80010FA
:104750002C80124904203C6030800880012047E012
:10476000FEE3308820B9B9F9001011B1012904D055
:104770006AE0002004F0EEFA66E0BAF9001011B128
:10478000012904D060E0162006F04AF85CE0B5F993
:10479000000010B1012814D056E00EE04E000020B9
:1047A0004C000020480000204A0000204400002067
:1047B00094000020700000201DE0012005F052F858
:1047C00042E0386898BB6FF02800FDF729FB386895
:1047D000012839D10A20C8F80000A9F800402C802F
:1047E000AAF80040FF4901203C6030800880172073
:1047F000FD49088028E03088C8B9FC48FC490123FD
:1048000003800A88012A1FD1FA4AB2F90080B8F160
:10481000010F2DD00CDC6FF0590CE04503D06FF088
:104820002C0CE0450AD1F44BC3F808C016E00BE0AD
:10483000B8F12D0F1BD0B8F15A0F16D003800C80A1
:10484000ED488068FBF7ECFDEB488068012814D048
:1048500010F15A0F18D02D3036D006E204800C80AB
:104860000B20CEF800001480EAE75A2300E02D2345
:10487000DFF884C3CCF80830F0E7E04801680B2982
:104880007FF40CAFFFF712BADFF87083D8F800009E
:104890000B283FF41AAB0C283FF40DAE0D2871D055
:1048A000E3E101E2B9F9001000296CD001297FF49D
:1048B00011AEBAF90020002A3EF466AE012AF6D104
:1048C0001422C8F800201CE0CC4801680B293FF4F2
:1048D00001AB80460C293EF43BAE0D293FF4E5AE1A
:1048E00003460E29B9D130880028E0D1B9F900007B
:1048F0000028DAD00128DAD1BAF90020ECE314223A
:104900001A60A9F80040AAF80040F6E3022B0AD08A
:10491000032B23D0042B37D0052B4FD0DFF8DCE25C
:10492000062B7DD0AAE012B1012A09D0A6E0AE493B
:10493000A6F800B001200880002003F085FC9DE06F
:1049400010B1012802D099E0172045E0AB480322BE
:104950000260A9F80040AAF800408FE0B8F1000F0B
:1049600002D1012005F030F9B5F90000002829DA5C
:10497000012005F029F9288820BBA04904200860FF
:104980002C807BE0B5E1FDE3B8F1000F2ED0B8F14B
:10499000010F73D15FEA0E0070D16FF03100FDF7A7
:1049A0003FFA3868012869D19448052101602C80BC
:1049B00009203C603080012036E073E211B912B169
:1049C000012A04D05AE0002004F0C4F956E010B1E6
:1049D000012804D052E0162005F022FF4EE0B8F185
:1049E000000F03D0B8F1010F04D047E0012004F01C
:1049F00039FF43E05FEA0E0040D16FF02800FDF779
:104A00000FFA3868012839D17C4906200860A9F8D6
:104A100000402C80AAF8004001203C60308000E07B
:104A200005E0714A172111806E49088026E029BBF4
:104A30006E4801236E490380009A012A1ED1DDF8D9
:104A400004806C4AB8F1010F2ED00BDC6FF0590CCA
:104A5000E04503D06FF02C0CE04509D1664BC3F85C
:104A600004C017E0B8F12D0F1DD0B8F15A0F18D0BF
:104A700003800C8060484068FBF7D2FC5E484068C9
:104A8000012816D010F15A0F6BD05A286AD02D2861
:104A900069D0EAE004800C80CEF800B01480E9E729
:104AA00003E15A2300E02D23DFF84CC1CCF8043099
:104AB000F0E75248006807280BD0DFF8408108284B
:104AC00026D0092837D00A2853D0C6460B2867D0ED
:104AD000C2E0B9F9001011B1012909D0BCE0424986
:104AE000A6F800B001200880002003F0ADFBB3E081
:104AF000BAF9002012B1012A02D0ADE004204BE047
:104B00003E4B08221A60A9F80040AAF80040A3E032
:104B1000288810B9012005F057F8B5F900000028E1
:104B20002EDA012005F050F8288848BB0921C8F882
:104B300000102C8090E0B5F9000080B301281FD14F
:104B40003868E8B96FF03100FDF76AF93868012874
:104B500016D10A20C8F800002C8005E0EDE3B5E28C
:104B600016E1DBE0ACE1B8E209203C6030800120D6
:104B700047E0308820B9B9F9001011B1012904D0FB
:104B80006AE0002004F0E6F866E0BAF9001011B11E
:104B9000012906D060E00C2005F042FE5CE006E052
:104BA00032E0B5F9000010B1012804D054E0012032
:104BB00004F058FE50E0386828BB6FF02800FDF77D
:104BC0002FF93868012847D10B20C8F80000A9F850
:104BD00000402C80AAF8004001203C603080172162
:104BE000014A0DE04E0000204C000020480000204B
:104BF0004A000020440000209400002070000020A3
:104C00001180FE49088027E0308828BBFC48FD4918
:104C1000012303800A88012A1ED1FB4AB2F90080D1
:104C2000B8F1010F2CD00BDC6FF0590CE04503D02C
:104C30006FF02C0CE04509D1F44BC3F808C015E027
:104C4000B8F12D0F1BD0B8F15A0F16D003800C808D
:104C5000EE488068FBF7E4FBEC48806810F15A0FDF
:104C60006BD05A283AD02D2848D000E304800C801D
:104C70000C20CEF800001480EAE75A2300E02D2330
:104C8000DFF888C3CCF80830F0E700BFB9F900209E
:104C9000002A7DD0012A7FF41DACBAF90030002B28
:104CA0003EF4A7AB02E30D230360A9F8004000BF68
:104CB000AAF800400EE4012004F086FF28880028AE
:104CC00067D0D4E26FF03100FDF7AAF83868012808
:104CD00071D0CCE202460F296ED0C8E2DFF83083F3
:104CE000D8F800000C2868D00D283FF4DEAC0E2860
:104CF000BBD1308800283FF4D5ADDBE7C44801685C
:104D00000C296CD1B9F90020002AC2D0012AD1D1D6
:104D1000BAF90030002B3EF4FDABC7E2BC48006896
:104D200007280BD0DFF8E88208281FD0092836D0E2
:104D3000C6460A2873D09BE0F0E3B8E2B549A6F86E
:104D400000B001200880288810B9012004F03CFF41
:104D5000B5F90000002829DA012004F035FF288881
:104D600020BBAB49082008602C8081E0B5F9000029
:104D7000A0B301287CD13868C0B96FF03100FDF7CD
:104D80004FF83868012873D10920C8F8000001E005
:104D9000B3E2EEE32C803C60308001203BE03088C1
:104DA00020B9B9F9001011B1012907D060E0002045
:104DB00003F0D0FF5CE0F2E3F2E30EE3BAF9001097
:104DC00011B1012904D053E00C2005F029FD4FE07A
:104DD000B5F9000010B1012806D049E000E06BE20F
:104DE000012004F03FFD43E03868A0BB6FF02800CD
:104DF000FDF716F8386801283AD10A20C8F80000F3
:104E0000A9F800402C80AAF800400120814A3C60AB
:104E10003080172111807949088029E0FFE7308828
:104E2000C8B977487749012303800A88012A1FD12E
:104E3000754AB2F90080B8F1010F2ED00CDC6FF08A
:104E4000590CE04503D06FF02C0CE0450AD16F4BB4
:104E5000C3F808C017E00BE0B8F12D0F1CD0B8F173
:104E60005A0F17D003800C8068488068FBF7D8FA87
:104E70006648806801283FF406AC5A2870D0FEF7D7
:104E80002BBD14E0F1E304800C800B20CEF8000071
:104E90001480E9E75A2300E02D23DFF870C1CCF835
:104EA0000830F0E75A4801680B293EF419AD8046F6
:104EB0000C293EF44DAB0D297EF409ADFEF7D2B9B5
:104EC0005348006807282CD1B9F9001011B1012905
:104ED00009D0AEE04F49A6F800B0042008800020B9
:104EE00003F0B2F91DE0BAF9001019B1D04601295A
:104EF00004D09EE00C2005F093FC12E0B5F9000010
:104F000010B1012804D094E0012004F0ABFC08E0CB
:104F1000386830BB6FF02800FCF782FF3868012842
:104F20000AD03B490868082816D0884609282BD0A3
:104F30008E460A2846D07CE0354908200860A9F84A
:104F400000402C80A8F80040324901203C603080AD
:104F500008802A4904200880308810B9288801E098
:104F6000EFE32EE010B9012004F02EFEB5F90000A9
:104F700000285EDA012004F027FE288808BB2448B8
:104F8000092101602C8054E0B5F9000010B101281E
:104F900004D04EE0012004F065FC4AE0386880B996
:104FA0006FF03100FCF73CFF3868012841D10A203E
:104FB000C8F800002C8009203C6010493080012096
:104FC000088036E0308838BB0D480E490123038045
:104FD0000A88012A2DD10C4AB2F90080B8F1010FDC
:104FE0003BD01ADC6FF0590CE04503D06FF02C0C6D
:104FF000E04518D1054BC3F808C024E04E0000205E
:10500000480000204A0000204400002094000020B6
:10501000700000204C0000200BE0B8F12D0F1BD0D9
:10502000B8F15A0F16D003800C80FD488068FBF75A
:10503000F7F9FB488068012814D010F15A0F1FD0EF
:105040002D2833D013E104800C800B20CEF8000013
:105050001480EAE75A2300E02D23DFF8C4C3CCF81C
:105060000830F0E7EF4801680B290DD1B9F90020AD
:105070008AB3FEF722BF0D297EF429ACFEF71BB8D8
:10508000E84801680B2904D080460C29F3D1FEF7CB
:105090005FBAB9F90020F2B1012A7FF42EAEBAF955
:1050A0000030002B3EF4A5A9FEF71FBFDD480168C4
:1050B0000B2906D080460C29E9D00D297EF40EAECE
:1050C000DCE7B9F9002032B1FEF7FFBD30880028D7
:1050D0003EF408AEEEE5F1E3F1E3D24800680728BC
:1050E0000CD0DFF84083082827D0092838D00A28B8
:1050F0004FD0C6460B2869D0B0E0EFE3B9F90010F5
:1051000011B1012909D0A9E0C749A6F800B00120D2
:105110000880002003F098F8A0E0BAF9002012B14E
:10512000012A02D09AE00D2046E0BE4B08221A6008
:10513000A9F80040AAF8004090E0288810B90120A2
:1051400004F042FDB5F90000002829DA012004F03E
:105150003BFD288820BB0921C8F800102C807DE089
:10516000B5F9000088B3012878D13868C0B96FF06C
:105170003100FCF755FE386801286FD10A20C8F8C5
:10518000000000E0F6E32C8009203C603080012024
:1051900038E0308820B9B9F9001011B1012904D0E4
:1051A0005CE0002003F0D6FD58E0BAF9001011B120
:1051B000012904D052E00C2005F032FB4EE0B5F995
:1051C000000010B1012806D048E000E01DE00120F9
:1051D00004F048FB42E0386898BB6FF02800FCF709
:1051E0001FFE3868012839D10B20C8F80000A9F843
:1051F00000402C80AAF8004001208B4A3C6030809F
:10520000172111808949088028E03088C8B988486A
:105210008849012303800A88012A1FD1864AB2F9EE
:105220000080B8F1010F2DD00CDC6FF0590CE04577
:1052300003D06FF02C0CE0450AD1794BC3F808C0BD
:1052400016E00BE0B8F12D0F1BD0B8F15A0F16D0B5
:1052500003800C8072488068FBF7E2F87048806831
:10526000012814D010F15A0F21D05A283AD010E258
:1052700004800C800C20CEF800001480EAE75A234A
:1052800000E02D23DFF898C1CCF80830F0E765483E
:1052900001680C2910D1B9F9002072B3012A7FF4FA
:1052A0002CADBAF90030002B3EF40DAE07E25D489C
:1052B00001680C293FF4EAAC0DE2288810B90120FE
:1052C00004F082FCB5F900000028FFF6F4ACE0E140
:1052D000B5F9000080B30128E1D1386800283FF417
:1052E000F1ACE7E4DFF83C81D8F800000C2874D07A
:1052F0000D283FF4E3ADFDF7F4BEFDE3022B0AD029
:10530000032B25D0042B37D0052B4ED0DFF814E12A
:10531000062B7DD0B9E012B1012A09D0B5E042498F
:10532000A6F800B001200880002002F08DFFACE05C
:1053300020B1012804D0A8E0FCE3FCE30D2042E00A
:10534000384803230360A9F80040AAF800409CE015
:10535000B8F1000F02D1012004F036FCB5F90000CD
:10536000002826DA012004F02FFC288808BB2D49EC
:10537000042008602C8088E0B8F1000F2ED0B8F12E
:10538000010F16D15FEA0E007FD16FF03100FCF7FC
:1053900047FD3868012878D12248052101602C801A
:1053A00009203C603080012036E011B912B1012A99
:1053B00004D06AE0002003F0CDFC66E010B10128C3
:1053C00004D062E00C2005F02BFA5EE0B8F1000F8B
:1053D00004D0B8F1010F05D057E05BE1012004F0E3
:1053E00041FA52E05FEA0E004FD16FF02800FCF75F
:1053F00017FD3868012848D10A4906200860A9F835
:1054000000402C80AAF8004001203C60308000E081
:1054100014E0054A172111800449088035E0000096
:1054200094000020700000204C0000204E0000205E
:10543000480000204A0000204400002029BBFE480C
:105440000123FE490380009A012A1ED1DDF8048061
:10545000FB4AB8F1010F2DD00BDC6FF0590CE04581
:1054600003D06FF02C0CE04509D1F64BC3F804C013
:1054700017E0B8F12D0F1CD0B8F15A0F17D00380E8
:105480000C80F0484068FAF7CBFFEE4840680128EE
:1054900015D010F15A0F6DD05A286CD02D306BD02A
:1054A000F7E004800C80CEF800B01480E9E75A23BE
:1054B00000E02D23DFF88CC3CCF80430F1E7E2489C
:1054C000006807280BD0DFF88083082827D0092838
:1054D00038D00A2851D0C6460B2871D0B4E0B9F9AB
:1054E000001011B1012909D0AEE0D849A6F800B0EA
:1054F00001200880002002F0A7FEA5E0BAF90020F4
:1055000012B1012A02D09FE004204CE0CE4B0822C9
:105510001A60A9F80040AAF8004095E0EFE028885A
:1055200010B9012004F050FBB5F9000000282BDA77
:10553000012004F049FB288830BB0921C8F800107D
:105540002C8081E0B5F9000058B301287CD138687F
:10555000D0B96FF03100FCF763FC3868012873D1D3
:105560000A20C8F800002C8009203C60308001200F
:105570003EE0F4E3C8E09EE297E3308820B9B9F951
:10558000001011B1012904D05EE0002003F0E2FB1D
:105590005AE0BAF9001029B1012907D054E0F1E32B
:1055A000F1E309E0162005F03BF94DE0B5F9000004
:1055B00010B1012805D047E0012004F053F943E081
:1055C00019E0386898BB6FF02800FCF729FC3868B0
:1055D000012839D10B20C8F80000A9F800402C8020
:1055E000AAF800400120994A3C60308017211180C0
:1055F0009749088028E03088C8B98F488F4901232F
:1056000003800A88012A1FD18D4AB2F90080B8F1BF
:10561000010F2ED00CDC6FF0590CE04503D06FF079
:105620002C0CE0450AD1874BC3F808C016E00BE00C
:10563000B8F12D0F1CD0B8F15A0F17D003800C8091
:1056400080488068FAF7ECFE7E48806810F15A0FB7
:1056500014D05A2829D02D3039D01AE004800C807B
:105660000C20CEF800001480EAE72DE05A2300E079
:105670002D23DFF8D0C1CCF80830EFE7DFF8C88180
:10568000D8F800000C2805D00D283FF417AC0E28E0
:1056900006D0C1E26D49A6F800B001200880F6E40A
:1056A000308800283DF40CAF14E5674801680C29E8
:1056B00070D010E0012AF7D1BAF900301BB1012BEC
:1056C0003FF4F1AA06E50C2005F0AAF8A4E25E4832
:1056D00001680C2908D080460D293FF4EEAD0E2953
:1056E0003FF4F6ADFFF7F6BAB9F9001039B1012968
:1056F000DAD1BAF90030002B3DF427AFDFE7A6F886
:1057000000B00120FEF7B7BE4F480068072809D057
:10571000DFF8348108283ED0092852D0C6460A282E
:105720006DD0A3E0B9F9001011B101290AD09DE0B4
:105730004649A6F800B004200880002002F084FD4D
:1057400094E079E2BAF9001019B1D046012904D0E9
:105750008CE0162005F064F888E0B5F9000078B315
:1057600001282CD1386850BB6FF02800FCF758FB9B
:10577000386801287AD1344908200860A9F8004027
:105780002C80A8F80040314901203C60308008801E
:10579000042031E0FEE3308888B9288810B9012060
:1057A00004F012FAB5F9000000285FDA012004F0D5
:1057B0000BFA288818B90921C8F800102C8055E088
:1057C00005E0B5F9000010B1012804D04EE0012039
:1057D00004F048F84AE0386868BB6FF03100FCF725
:1057E0001FFB3868012841D10A20C8F800002C802E
:1057F00009203C60308001201549088036E030885F
:10580000C8B90D480D49012303800A88012A2DD10A
:105810000B4AB2F90080B8F1010F38D01ADC6FF0F2
:10582000590CE04503D06FF02C0CE04518D1054B26
:10583000C3F808C021E019E0480000204A00002019
:105840004400002094000020700000204C00002044
:105850004E000020B8F12D0F18D0B8F15A0F13D018
:1058600003800C80FA488068FAF7DAFDDFF8E083FD
:10587000D8F8080001280FD077E004800C800B20B6
:10588000CEF800001480EDE75A2300E02D23DFF866
:10589000C0C3CCF80830F0E7EE4801680B2907D008
:1058A0000C291CD00D292DD002460E2948D0D2E05B
:1058B000B9F9002022B1012A08D0CCE0E7E0F3E0FA
:1058C000E549A6F800B00420088041E0BAF90030AC
:1058D0000BB9042047E0012B74D0BCE0D9E3288841
:1058E00010B9012004F070F9B5F9000000283CDA85
:1058F000012004F069F9288808BBD6490D2008600A
:105900002C8032E0B5F9000010B1012804D0A2E0EB
:10591000012003F0A7FF28E0386810BB6FF03100CA
:10592000FCF77EFA386801281FD1CA490E200860AA
:105930002C8009203C60C94930800420088014E094
:10594000308870B9B9F9001011B1012904D082E092
:10595000002003F0FFF908E0BAF9003013B1012B81
:1059600009D078E00B2004F05BFFD8F808005A2833
:1059700009D070E0C1E01423C2F80030A9F800405B
:10598000AAF8004067E0B34801680B2907D00C294A
:105990001BD00D292CD003460E2947D05BE0B9F966
:1059A000002012B1012A06D055E0AB49A6F800B09C
:1059B0000420088042E0BAF90030002B8BD10C2083
:1059C00047E0FFE70C230360D8E7288810B90120DF
:1059D00004F0FAF8B5F9000000283CDA012004F0E0
:1059E000F3F8288808BB9B490D2008602C8032E022
:1059F000B5F9000010B1012804D02CE0012003F01B
:105A000031FF28E0386880B96FF03100FCF708FA00
:105A1000386801281FD18F490E2008602C8009208A
:105A20003C608E4930800420088014E0308890B9B2
:105A3000B9F9001011B1012904D00CE0002003F0E5
:105A400089F908E0BAF9002012B1012A08D002E071
:105A50000B2004F0E5FED8F808002D3003D0F9E261
:105A600014221A608AE77B4801680B290AD0804615
:105A70000C293FF414AE0D293DF41DAB03460E294D
:105A800070D0E7E2B9F90020002A7EF427AAA6F830
:105A900000B0042036E600BFB9F9001069B301294F
:105AA0007FF402AEBAF90020002A3DF46DAD012A60
:105AB0003EF425AF15E467480068072809D0DFF8F1
:105AC0009481082820D0092836D0C6460A2870D0EC
:105AD00098E06149A6F800B001200880288810B934
