:020000040800F2
:1000000058090020290200084D240008271E000876
:10001000D52300081F04000821B4000800000000D8
:100020000000000000000000000000003D74000817
:10003000DD0A00080000000011740008B574000813
:10004000430200084302000843020008430200087C
:10005000430200084302000843020008430200086C
:10006000430200084302000843020008430200085C
:10007000430200084302000843020008430200084C
:10008000430200084302000843020008430200083C
:10009000430200084302000843020008DD0B000889
:1000A000430200084302000843020008430200081C
:1000B000430200084302000843020008430200080C
:1000C00043020008430200084302000843020008FC
:1000D00043020008430200084302000843020008EC
:1000E00043020008430200084302000843020008DC
:1000F00043020008430200084302000843020008CC
:1001000043020008430200084302000843020008BB
:100110004302000843020008CD77000843020008AC
:10012000430200084302000843020008430200089B
:10013000430200084302000843020008430200088B
:10014000430200084302000843020008430200087B
:10015000430200084302000843020008430200086B
:10016000430200084302000843020008430200085B
:100170004302000843020008430200080000000098
:10018000430200084302000800F002F800F03CF8C7
:100190000AA090E8000C82448344AAF10107DA45E2
:1001A00001D100F031F8AFF2090EBAE80F0013F0F8
:1001B000010F18BFFB1A43F00103184714BB0000DE
:1001C00034BB0000103A24BF78C878C1FAD852076F
:1001D00024BF30C830C144BF04680C6070470000C1
:1001E0000023002400250026103A28BF78C1FBD840
:1001F000520728BF30C148BF0B6070471FB50BF0D6
:1002000053FD1FBD10B510BD00F0CFF81146FFF72C
:10021000F5FF0BF077FB00F0EDF803B4FFF7F2FF0A
:1002200003BC00F0F5F80000094880470948004782
:10023000FEE7FEE7FEE7FEE7FEE7FEE7FEE7FEE796
:10024000FEE7FEE704480549054A064B70470000F3
:100250004D75000889010008580300205809002046
:10026000580500205805002053EA020C00F0698070
:100270002DE9F04B4FF00006002B1FBFB3FA83F5BA
:1002800003FA05F424FA05F65E4012BF1643B2FAEB
:1002900082F502FA05F4C5F120051EBF22FA05FC1D
:1002A00044EA0C04203556EA044C4FEA144418BFC3
:1002B000641C4FF000084FF00009904271EB030CF2
:1002C00039D3002919BFB1FA81F701FA07F6B0FA5C
:1002D00080F700FA07F6C7F120071EBF20FA07FCD7
:1002E00046EA0C062037B6FBF4FCA7EB0507103FE7
:1002F00007F01F0BCBF120060CFA0BFB2CFA06F6CD
:1003000044BFB3460026202FA4BF5E464FF0000B2B
:100310005BEA060C08BF4FF0010B19EB0B09ABFBB6
:10032000027C48EB0608C01B06FB02CC0BFB03CC8F
:1003300071EB0C01C1E70B46024641464846BDE859
:10034000F08B13B54FF000004FF00001AFF30080C9
:10035000BDE81C4070474FF0000200B513469446BC
:100360009646203922BFA0E80C50A0E80C50B1F10D
:100370002001BFF4F7AF090728BFA0E80C5048BF21
:100380000CC05DF804EB890028BF40F8042B08BFBF
:10039000704748BF20F8022B11F0804F18BF00F8BB
:1003A000012B7047704770477047754600F02CF876
:1003B000AE4605006946534620F00700854618B052
:1003C00020B5FFF73FFFBDE820404FF000064FF09B
:1003D00000074FF000084FF0000B21F00701AC467A
:1003E000ACE8C009ACE8C009ACE8C009ACE8C00999
:1003F0008D46704710B50446AFF300802046BDE837
:100400001040FFF70ABF000000487047F4020020C8
:1004100001491820ABBEFEE7260002007047FEE748
:100420000B49B1F900100C2909D00B2909D0042976
:100430000AD017290AD0162905D1064902E0064933
:1004400000E00649086070470549FBE70549F9E700
:10045000240000206C0000205C00002060000020D0
:1004600064000020680000202DE9F043F7486FF099
:100470002C055A26D0F80080F6482D246F0002681B
:10048000F548F349C1460368F4484FF0010CB8F150
:100490005A0F006803D0B9F1010F74D002E12D2B7F
:1004A00002D0012B1DD03CE0012A05D110F15A0FDA
:1004B00023D010F12D0F22D012F15A0F04D10128B0
:1004C0001BD010F12D0F03D012F12D0F03D028E017
:1004D000C1F800C025E010F15A0FF9D001280ED064
:1004E0001FE02D2A05D110F15A0F06D010F12D0F63
:1004F00005D012F15A0F04D008E00D6011E00F6032
:100500000FE02D28F9D010F12D0F03D012F12D0F8F
:1005100002D006E00C6004E010F15A0FFAD02D284A
:10052000EDD013F15A0F1ED1012A02D02D2A0AD084
:100530000EE02D2803D010F12D0F02D008E00D6041
:1005400011E00C600FE00128F9D010F12D0F03D05D
:1005500012F12D0F03D006E0C1F800C003E02D28F2
:10056000FAD00128EDD013F12D0F0BD1012A04D1BF
:1005700010F15A0F0DD02D2816D012F15A0F03D0BA
:100580002D2A08D08EE011E0012802D02D2808D0B5
:1005900088E00C6086E010F15A0F02D0012803D0E9
:1005A00080E0C1F800C07DE00F607BE02D2B02D021
:1005B0005A2B1CD03BE05A2A05D110F15A0F22D0F9
:1005C00010F12D0F21D012F15A0F04D15A281AD050
:1005D00010F12D0F03D012F12D0F02D027E00E6085
:1005E00025E010F15A0FFAD05A280ED01FE02D2A1C
:1005F00005D110F15A0F06D010F12D0F05D012F1D0
:100600005A0F04D008E00D6011E00F600FE02D28B4
:10061000F9D010F12D0F03D012F12D0F02D006E00A
:100620000C6004E010F15A0FFAD02D28EDD013F130
:100630005A0F1DD15A2A02D02D2A0AD00EE02D2899
:1006400003D010F12D0F02D008E00D6010E00C6017
:100650000EE05A28F9D010F12D0F03D012F12D0F12
:1006600002D005E00E6003E02D28FBD05A28EED022
:1006700013F12D0F16D15A2A04D110F15A0F88D038
:100680002D2891D012F15A0F02D02D2A05D009E061
:100690005A28F4D02D280CD004E010F15A0F08D0BD
:1006A0005A2881D019F15A0F05D0B9F12D0F7AD0FF
:1006B00006E10E60F6E72D2B04D05A2B1AD0012B41
:1006C00032D04FE05A2A02D0012A06D00AE001288F
:1006D00035D010F12D0F17D004E05A282FD010F18B
:1006E0002D0F39D012F12D0F3CD1012834D05A28CA
:1006F0000AD037E02D2A02D0012A08D00CE00128C8
:100700001DD010F12D0F07D1C1F800C02AE02D280F
:1007100015D010F12D0F14D012F12D0F22D1012878
:100720000FD02D28F0D01DE05A2A02D02D2A0AD051
:100730000EE02D2803D010F12D0F02D008E00D603F
:1007400010E00C600EE05A28F9D010F12D0F03D004
:1007500012F12D0F02D005E00E6003E02D28FBD032
:100760005A28EED013F12D0F05D15A2A04D0012AB0
:1007700007D02D2A0DD0A3E0012807D02D280FD0B7
:100780009EE05A2802D02D2808D099E00C6097E00E
:1007900009E0012802D05A2802D091E00E608FE0D3
:1007A000C1F800C08CE0012B02D05A2B1CD03CE0D9
:1007B0005A2A05D110F15A0F22D010F12D0F21D055
:1007C00012F15A0F04D15A281AD010F12D0F03D06C
:1007D00012F12D0F02D028E00E6026E010F15A0F22
:1007E000FAD05A280ED020E0012A05D110F15A0F74
:1007F00006D010F12D0F05D012F15A0F04D008E0E9
:100800000D6012E00F6010E00128F9D010F12D0FFB
:1008100003D012F12D0F03D007E0C1F800C004E0AF
:1008200010F15A0FF9D00128ECD013F15A0F29D149
:100830005A2A02D0012A16D01AE0012803D010F15A
:100840002D0F0DD014E00D601CE000005C000020B6
:100850006800002064000020600000206C00002080
:10086000C1F800C00EE05A28EDD010F12D0F03D0D2
:1008700012F12D0F02D005E00E6003E00128FBD03D
:100880005A28EDD013F12D0F1AD15A2A05D110F1A3
:100890005A0F3FF47BAF012811D012F15A0F02D04A
:1008A000012A07D00CE05A283FF47AAF01283FF420
:1008B00075AF05E010F15A0FF9D05A2800D10F603A
:1008C00019F12D0F4CD12D2B02D05A2B19D035E018
:1008D0005A2A04D110F15A0F20D0012821D012F148
:1008E0005A0F02D0012A06D028E05A2816D0012833
:1008F00024D10E6022E010F15A0FFAD05A2810D0FD
:100900001CE02D2A04D110F15A0F07D0012808D07D
:1009100012F15A0F07D0012A0BD00FE0C1F800C026
:100920000CE00F600AE02D28F8D0012806D10C60F9
:1009300004E010F15A0FFAD02D28F2D013F15A0F1B
:1009400004D0012B0CD15A2A19D01DE05A2A09D003
:100950002D2A0FD0012A03D12D2827D05A281FD0A5
:10096000BDE8F0832D2802D0012819D0F8E7C1F89E
:1009700000C0F5E75A28FAD0012817D0F0E710F1A7
:100980005A0F0DD02D2809D012F15A0F0AD02D2A56
:10099000E6D110F15A0F09D05A28E1D10F60DFE7F4
:1009A0000C60DDE75A28FBD02D28D9D10E60D7E79F
:1009B0002DE9F047464F0024464DB7F90000464E5A
:1009C0004FF4FA7A4FF47A79012825D0B8464FF4DB
:1009D000967702282CD04FF4E169032838D00428F8
:1009E0004CD005284AD0062822D0072852D0082803
:1009F00057D0474609285BD00A2860D0112865D116
:100A0000322000F0F1F800F06BF84FF4C87000BF2E
:100A100000F0EAF83C8017E0642000F0E5F80AF006
:100A2000F3FE504600F0E0F800F05AF84846EFE7D1
:100A3000384600F0D9F800F053F8484600F0D4F8F2
:100A40000AF0E2FE504620E02C803480322011E093
:100A5000384600F0C9F800F043F8484600F0C4F802
:100A60000AF0D2FE504600F0BFF8A8F800402C80F3
:100A700034801420BDE8F04700F0B6B8384600F0E6
:100A8000B3F80AF0C1FE504605E000F0ADF8A8F852
:100A90000040D9E7384600F0A7F800F021F84846B2
:100AA000F3E7C82000F0A0F80AF0AEFE3846ECE705
:100AB000322000F099F80AF0A7FE6420A8E732205F
:100AC00000F092F80AF0A0FE5046A1E7BDE8F087DA
:100AD000420000204C0000204E0000207047000023
:100AE0001A4B1B4840F2B632B3F9001005291DD04D
:100AF00008DC012911D0022912D0032919D00429B8
:100B000008D110E0172914D0222914D02D2915D08E
:100B1000332916D000201880704740F6020112E0F9
:100B200040F20E610FE04FF4E1710CE040F6C411A9
:100B300009E00260704740F2465104E040F692112D
:100B400001E040F2E2410160704700004C000020EB
:100B50003804014010B500211C4801F0AFF8042111
:100B60001A4801F0ABF80821184801F0A7F80C2149
:100B7000164801F0A3F80021154801F09FF8042160
:100B8000134801F09BF80821114801F097F80C2157
:100B90000F4801F093F80F494FF4AF600860091D4A
:100BA00040F2AA500860091D40F2DC500860091D9F
:100BB000086009490860091D40F602000860091D27
:100BC0004FF448700860091D086010BD8C010020BA
:100BD0001C0200203408004034040140202000F0B2
:100BE0001FB872B6FEE7000070B5044600F026F9A3
:100BF0000546601C02D004480078044400F01EF949
:100C0000401BA042FAD370BD74000020202803D1FD
:100C100002480168491C016070470000580000202C
:100C2000044910B50A68024202D00860FFF7EEFFDF
:100C300010BD0000143C01402DE9F84FDFF8BCA1C5
:100C40000022012503264FF00F090AF1040BAAF137
:100C5000040E00BF0B6805FA02F42340A34270D1D2
:100C60000F7907F00307012F01D0022F16D18768F3
:100C70004FEA420806FA08FC27EA0C07D1F80CC034
:100C80000CFA08FC4CEA070CC0F808C04768A743F8
:100C90000C79C4F3001494403C4344600C79E44361
:100CA000A4070AD0C4684FEA420C06FA0CF7BC430A
:100CB0008F6807FA0CF72743C7600C7904F0030428
:100CC000022C12D1D40800EB840CDCF8204057072A
:100CD000FF0E09FA07F824EA0804D1F8108008FA90
:100CE00007F848EA0408CCF8208004684FEA420C70
:100CF00006FA0CF7BC430F7907F0030707FA0CF765
:100D0000274307604C6814F4403F70D03C4C276880
:100D100047F480472760246822F0030704F48044E6
:100D20000094384C07EB040CDCF8084897074FEAAE
:100D3000177809FA08F7BC43334FB84202D10027AD
:100D400024E054E0314FB84201D101271EE0304F7A
:100D5000B84201D1022719E02E4FB84201D1032732
:100D600014E02D4FB84201D104270FE02B4FB842B9
:100D700001D105270AE02A4FB84201D1062705E034
:100D8000284FB84201D1072700E0082707FA08F7E3
:100D90002743CCF80878DAF800405746D1F804C069
:100DA0009C435FEACC2C00D51C433C60DBF8004040
:100DB0005F46D1F804C09C435FEA8C2C00D51C43ED
:100DC0003C60DEF800407746D1F804C09C435FEAFF
:100DD0008C3C00D51C433C60084F083F3C68D1F870
:100DE00004C09C435FEACC3C00D51C433C60521CD1
:100DF000102AFFF42FAFBDE8F88F0000083C014037
:100E0000443802400030014000000240000402402B
:100E100000080240000C0240001002400014024092
:100E200000180240001C02400069084000D0012068
:100E300070470AB1816170470904FBE70148806887
:100E40007047000074000020024881680278114455
:100E500081607047740000200B4810B5016841F4B0
:100E600000710160016841F480610160016841F432
:100E700080710160032000F06FF8002000F006F898
:100E800000F024F8002010BD003C024070B50D4D6C
:100E900004464FF47A712878B1FBF0F00A490968EA
:100EA000B1FBF0F000F0EAFA48B9102C07D20022AA
:100EB0002146501E00F030F800206C6070BD01200B
:100EC00070BD000074000020800000200A4808B5B2
:100ED000016841F480410160006800F480400090A6
:100EE0000548001F016841F080510160006800F072
:100EF0008050009008BD000044380240002809DB03
:100F000000F01F02012191404009800000F1E02023
:100F1000C0F8001170470000F0B40E4B1B680C467F
:100F2000C3F30223C3F10705042D00D90425191DBD
:100F3000072901D2002300E0DB1E012606FA05F195
:100F4000491E214099409E40761E16403143F0BC18
:100F50000AF04ABC0CED00E0064900F00702086800
:100F60004FF6FF03184040EA0220034A104308608E
:100F7000704700000CED00E00000FA052DE9F04795
:100F80000E46050065D0DFF81481D8F80000F7B2EE
:100F900000F00700B04207D288F80070D8F80000CF
:100FA00000F00700B04254D128683D4C810712D5AB
:100FB000400703D5206840F4E050206028780007FF
:100FC00003D5206840F4604020602068A96820F0C4
:100FD000F000084320602878C0072DD030496868A9
:100FE0000839012812D0022813D0032811D009682B
:100FF000890700292DDA216821F0030101432160CE
:10100000FFF71CFF814641F2883A0EE00968890328
:10101000EFE709688901ECE7FFF710FFA0EB090192
:10102000514502D90320BDE8F0872068696800F0C7
:101030000C00B0EB810FEFD1D8F80010404601F062
:101040000701B14207D90770006800F00700B042FD
:1010500001D00120E7E72878400705D52068E96836
:1010600020F4E050084320602878000706D5206867
:10107000296920F4604040EAC100206000F018F8BF
:101080002168084AC1F30311515CC8400649086051
:1010900006480068FFF7FAFE0020C4E7003C024063
:1010A00008380240B2BC0008800000207800002010
:1010B000154810B5006810F00C02144813D0411008
:1010C000042A0FD0082A0ED10F4C241F226823684F
:1010D00002F03F025B0207D52068C0F38810A0FB36
:1010E000010106E0084610BD2168C1F38811A1FB8B
:1010F00000010023FFF7B8F82168C1F30141491C42
:101100004900B0FBF1F010BD083802400024F400A3
:101110002DE9F84F04006ED02078DFF84C93C0071B
:10112000A9F104054AD009F104000168C1F3810165
:10113000012908D00068C0F3810002280AD1D9F83B
:101140000000400206D52868800337D56068002873
:10115000E1D033E06068B0F5803F10D0B0F5A02F4B
:10116000286810D020F480302860286820F480207F
:1011700028606068A8B1FFF761FE06460DE02868A8
:1011800040F48030F4E740F480202860F7E700BFA7
:10119000FFF754FE801B642873D828688003F7D5B6
:1011A0000CE0FFF74BFE064605E000BFFFF746FEEA
:1011B000801B6428F0D828688003F7D42078DFF8F3
:1011C000AC8280074FF0000A3ED5A748001D016899
:1011D00011F00C0F08D00068C0F3810002280BD179
:1011E000D9F80000400207D42868800716D5E068C7
:1011F000012800D112E033E1E068B8B10120C8F85D
:101200000000FFF71BFE064605E000BFFFF716FED5
:10121000801B0228C0D828688007F7D52868216974
:1012200020F0F80040EAC10028600DE0C8F800A0F6
:10123000FFF704FE064604E0FFF700FE801B0228CD
:101240001FD828688007F7D42078000722D5864F5A
:1012500087486169703771B101210160FFF7EEFDC8
:10126000064604E0FFF7EAFD801B022809D838682B
:101270008007F7D50EE0C0F800A0FFF7DFFD0646B7
:1012800005E082E0FFF7DAFD801B02287DD8386890
:101290008007F7D42078400768D5DFF8CCB1002765
:1012A0000BF13C0BDBF80000C0000BD4DBF80010A6
:1012B00041F08051CBF80010DBF80000012700F06E
:1012C000805000906B4E3068C00510D4306840F4F8
:1012D00080703060FFF7B2FD009005E0FFF7AEFDD3
:1012E0000099401A022850D83068C005F6D55E4EE5
:1012F000A0686C3601280FD00528306810D020F087
:1013000001003060306820F004003060A068B8B19F
:10131000FFF794FD00900FE0306840F00100F4E723
:1013200040F004003060F7E7FFF788FD0099411AAC
:1013300041F28830814266D830688007F4D50EE0EB
:10134000FFF77CFD009007E0FFF778FD0099411A58
:1013500041F28830814256D830688007F4D42FB1EA
:10136000DBF8001021F08051CBF80010A069C8B361
:101370003D49091D0968C1F3810102294AD00228AB
:10138000504607D0C8F8600000E03CE0FFF756FD8B
:1013900004463BE04746C8F86000FFF74FFD0646AD
:1013A00005E000BFFFF74AFD801B02282BD8286804
:1013B0008001F7D4D4E907010843A16A2E4A4908FD
:1013C00002EB0141626A41EA8211084394F82C1051
:1013D00040EA0161C9F8001001203866FFF72EFDD0
:1013E000044606E03EE000BFFFF728FD001B022890
:1013F00009D828688001F7D534E000BFFFF71EFD4B
:10140000001B022802D90320BDE8F88F286880015C
:10141000F4D427E00128F7D0D9F80000E26900F4FD
:10142000800191421CD1226A00F03F01914217D104
:1014300047F6C071626A0140B1EB821F10D1A26A07
:101440004FF0FF3300F4403103EB5202B1EB024F97
:1014500006D194F82C1000F07060B0EB016F01D051
:101460000120D1E70020CFE70438024000004742C6
:10147000800E4742007000400000FFFF10B5401E84
:10148000B0F1807F01D3012010BD4FF0E0246061F6
:101490000F2160170AF0A8F90020A0610720206141
:1014A000002010BD7047704710B590F83C20012A0D
:1014B00022D0012280F83C20CA688C6822F4407255
:1014C00022434C6822F4806222430C6822F40062BA
:1014D00022430C6922F4805222434C6922F40052C8
:1014E0002243C969002322F480420A4301684A6406
:1014F00080F83C30002010BD022010BD70B590F87F
:101500003C20012A32D0012480F83C40022280F89D
:101510003D2003685A689D6822F070060A683243CD
:101520005A60134B02689A4214D0B2F1804F11D026
:10153000104B9A420ED0104B9A420BD00F4B9A424E
:1015400008D00F4B9A4205D00E4B9A4202D00E4B58
:101550009A4204D1496825F080031943916080F8CC
:101560003D40002180F83C10084670BD022070BD4F
:10157000000001400004004000080040000C004052
:1015800000040140004001400018004010B5040074
:1015900003D094F83D0010B107E0012010BD0020F9
:1015A00084F83C00204600F01FF8022084F83D003B
:1015B000211D206806F010F9012084F8460084F807
:1015C0003E0084F83F0084F8400084F8410084F82D
:1015D000420084F8430084F8440084F8450084F80D
:1015E0003D00002010BD000008B51D4902681D48DF
:1015F0008A4207D1016841F001010160006800F0F2
:1016000001000BE01749184B091F9A4208D10868DE
:1016100040F004000860086800F00400009008BD75
:10162000124B9A4211D1086840F010000860086817
:10163000002200F01000009001213620FFF76CFC22
:10164000BDE808403620FFF759BC09498A42E6D177
:10165000016841F002010160006800F00200DDE76E
:1016600000000140443802400008004000100040E3
:101670000004014090F83D10012901D0012070477D
:10168000022180F83D100168CA6842F00102CA6078
:1016900000681149884214D0B0F1804F11D00F4931
:1016A00088420ED00E4988420BD00E49884208D09D
:1016B0000D49884205D00D49884202D00C49884224
:1016C00004D1816801F00701062903D0016841F0C7
:1016D000010101600020704700000140000400404B
:1016E00000080040000C00400004014000400140A0
:1016F0000018004070B5044690F83C000025012811
:1017000017D0012684F83C60022084F83D00206850
:10171000826822F0770222F47F42826008685028B3
:1017200038D00DDC20284FD005DC90B3102811D123
:101730004AE0022070BD302846D040280AD13BE064
:1017400060282FD070280DD0B0F5805F03D0B0F5A1
:10175000005F12D0012584F83D60002084F83C0031
:10176000284670BDCB68D1E90121206806F0ADF8AC
:101770002068816841F0770109E0CB68D1E9012157
:10178000206806F0A2F82068816841F480418160F9
:10179000E1E719E0CA684968206806F06BF9502152
:1017A000206806E0CA684968206806F074F960217C
:1017B000206806F094F8CEE7CA684968206806F009
:1017C00059F940212068F4E7226801461046F0E705
:1017D0002DE9F0410D46040003D094F83D0018B106
:1017E00008E00120BDE8F081002084F83C0020469C
:1017F00000F040F8022084F83D002068816844F23F
:10180000070291438160211D206805F0E5FF2268F1
:1018100090689169166A2B68AF69034340F2033000
:10182000814341EA0721A868EF6908434FF6FC416C
:101830008843E96840EA0720014328692F6A0001CC
:1018400040EA0730084369686D6926F0AA0646EA4F
:101850000515294393602268906154F8460B016294
:10186000012004F81F09E0752076E0762077A07546
:101870000020B7E770B586B0044614216846FEF72D
:101880006AFD214A256800231F49103A02241F4897
:10189000B5F1804F1ED01E4EB54219D10D6845F0EE
:1018A00002050D60096801F002010591116841F01F
:1018B00001011160116801F001010591C021009141
:1018C000CDE90143CDE90334694600BFFFF7B4F920
:1018D00006B070BD0D6845F001050D60096801F0A6
:1018E00001010591116841F001011160116801F0D9
:1018F0000101059103210091CDE901430121CDE9C9
:1019000003316946E2E7000040380240000002402F
:101910000004004070B590F83E60044690F83F50D7
:1019200090F8423090F84320022021B104290ED0D3
:10193000012E1BD114E0012E18D1012B16D184F8F1
:101940003E0084F8420001220021206820E0012DA1
:101950000CD1012A0AD184F83F0084F8430014E036
:10196000012D03D1012B01D1012A01D0012070BD2D
:1019700084F83E0084F83F0084F8420084F8430075
:1019800001220021206805F093FF01220421206834
:1019900005F08EFF2068016841F001010160002020
:1019A00070BD70472DE9F04104460068C6680569BE
:1019B0004FF00007A90713D5B10711D5F91E016132
:1019C00001202077206880698007204602D0FFF739
:1019D000E8FF04E000F0DCF8204600F06EF927771D
:1019E000680716D5700714D521686FF004000861E8
:1019F000022020772068806910F4407F204602D0C2
:101A0000FFF7CFFF04E000F0C3F8204600F055F9DF
:101A10002777280715D5300713D521686FF0080000
:101A20000861042020772068C0698007204602D022
:101A3000FFF7B7FF04E000F0ABF8204600F03DF9F7
:101A40002777E80616D5F00614D521686FF0100048
:101A50000861082020772068C06910F4407F204684
:101A600002D0FFF79EFF04E000F092F8204600F05D
:101A700024F92777E80708D0F00706D021686FF02F
:101A800001000861204600F07DF9280608D53006DF
:101A900006D521686FF0800008612046FFF702FD3F
:101AA000680608D5700606D521686FF04000086109
:101AB000204600F0B7F9A8060AD5B00608D5216877
:101AC0006FF0200008612046BDE8F041FFF7EBBC55
:101AD000BDE8F08110B586B0044614216846FEF7D3
:101AE0003AFC2368234C002123480222A34212D14E
:101AF000036843F001030360006800F001000590F3
:101B00004FF410600090CDE901210120CDE90310D0
:101B100069461A4813E01A4CA34214D1036843F0F3
:101B200008030360006800F0080005904FF470405F
:101B30000090CDE90121CDE9031269461148FFF774
:101B40007BF806B010BD104CA342FAD1036843F0F5
:101B500004030360006800F0040005904FF4707007
:101B60000090CDE901210320CDE903106946074823
:101B7000E5E700000000014030380240000002406C
:101B800000080040000C0240000401400008024030
:101B9000704770B5044690F83C0000260D460128B9
:101BA0000FD0012084F83C006AB1042A1DD0082A15
:101BB0002FD00C2A3FD00126002084F83C0030466C
:101BC00070BD022070BD206805F092FE206881691A
:101BD00041F0080181612068816921F0040181617F
:101BE000206881692A69114311E0206805F0B0FE80
:101BF0002068816941F4006181612068816921F474
:101C000080618161206881692A6941EA02218161DC
:101C1000D2E7206805F0D2FE2068C16941F00801D2
:101C2000C1612068C16921F00401C1612068C169F6
:101C30002A69114311E0206805F0F4FE2068C169AB
:101C400041F40061C1612068C16921F48061C16112
:101C50002068C1692A6941EA0221C161ACE710B577
:101C6000040003D094F83D0010B107E0012010BD3E
:101C7000002084F83C00204600F01EF8022084F882
:101C80003D00211D206805F0A7FD012084F84600D5
:101C900084F83E0084F83F0084F8400084F8410056
:101CA00084F8420084F8430084F8440084F8450036
:101CB00084F83D00002010BD7047704710B5044601
:101CC000022249B104290ED0082913D094F841000A
:101CD000012816D0012010BD94F83E000128F9D14A
:101CE00084F83E200FE094F83F000128F2D184F8F8
:101CF0003F2008E094F840000128EBD184F8402010
:101D000001E084F841200122206805F0D1FD164948
:101D10002068164A884201D0904203D1436C43F4B4
:101D2000004343642068884213D0B0F1804F10D044
:101D30000F4988420DD00F4988420AD00E49884287
:101D400007D0904205D00D49884202D00C49884204
:101D500004D1816801F00701062903D0016841F030
:101D600001010160002010BD00000140000401409D
:101D70000004004000080040000C0040004001400A
:101D80000018004070B500681D49884237D1022014
:101D900005F040FB1B4D2860032005F03BFB1A4C6F
:101DA0004042206005F016FC18480088012801D147
:101DB00000F098FC164895ED000AD0ED000AB8EE48
:101DC000C00A144800F044FBBDEEC00A124A134892
:101DD00082ED000AD0ED000A94ED000A0D48B8EE3D
:101DE000C00A483000F09AFBBDEEC00A0C4810EE65
:101DF000101A01601068BDE8704005F021BB70BD8D
:101E000000100040000000200400002054000020CA
:101E100010000020640200200800002014000020B0
:101E20000C0000207047FEE7F0B5DFF88CE0234996
:101E30004FF0010CDEF80070D7B1084600230268AD
:101E40001F4C204D204E9FED210A501E012F1ED009
:101E5000022F0CD1002A2CDD08609FED1D0A84EDB5
:101E6000000A9FED1C0A00BF85ED000A3360F0BD3B
:101E7000002803DD0860CEF800C0F0BDFDDAC0F137
:101E8000000008604FF00200CEF80000F0BD002A0C
:101E900005DD08609FED100A84ED000AE4E7F5D146
:101EA00084ED000A85ED000ACEF80030C6F800C0C7
:101EB000F0BDF5D0F0BD0000840000202C00002013
:101EC0001000002014000020280000200000000066
:101ED000000091C3000096C3000096432DE9F04F27
:101EE00087B014216846FEF736FA48480024016896
:101EF00041F010010160016801F0100105910168D5
:101F000041F080010160016801F0800105910168E4
:101F100041F001010160016801F0010105910168D2
:101F200041F004010160016801F0040105910168BC
:101F300041F002010160016801F0020105910168B0
:101F400041F0080101600068DFF8C49000F008006B
:101F5000059000221F214846FEF76BFFDFF8B4A072
:101F60004FF47047002239465046FEF762FFDFF813
:101F7000A8B04FF48078002241465846FEF759FF3A
:101F80001F200126CDE90006022569464846CDE915
:101F90000245FEF751FE202000904FF48810CDE955
:101FA000010469461D48FEF747FE30208DE83100E8
:101FB00069461B48FEF740FE03208DE83100694664
:101FC0005046FEF739FE4FF4FF408DE83100694678
:101FD0004846FEF731FECDE9007669465046CDE928
:101FE0000245FEF729FECDE9008669465846CDE94F
:101FF0000245FEF721FE002202211720FEF78CFF8A
:102000001720FEF77BFF07B0BDE8F08F30380240A5
:102010000010024000040240000C02400000024098
:102020000008024010B596B000240F94109411944B
:10203000129413941C2168461494FEF78CF9202105
:1020400007A8FEF788F92C482A49C0E9001444F291
:102050009F11C0E90241046144618461FFF796FA6F
:1020600008B1FEF7BEFD4FF480500F900FA9224833
:10207000FFF740FB08B1FEF7B4FD1F48FFF7EFFD87
:1020800008B1FEF7AEFD139413A91B481494FFF793
:1020900035FA08B1FEF7A5FD6020CDE900040294F1
:1020A0000394049405940022694613480694FFF7AC
:1020B00070FD08B1FEF795FD0C2269460E48FFF74A
:1020C00068FD08B1FEF78DFD0794089409944FF45C
:1020D00000500A94CDE90B4007A907480E94FFF77A
:1020E000E3F908B1FEF77DFD0348FFF7F3FC16B0F6
:1020F00010BD000000000140B400002010B58CB0FD
:1021000024216846FEF727F90024154809944FF06A
:1021100080410A94C0E900144FF6FF71C0E9024102
:10212000046184610320CDE900040120CDE90204AB
:102130000494CDE905400794694609480894FFF7DF
:1021400047FB08B1FEF74DFD099409A904480A941C
:10215000FFF7D4F9002801D0FEF743FD0CB010BD05
:10216000FC00002010B58CB024216846FEF7F3F87F
:1021700000241648099414490A94C0E900144FF643
:10218000FF71C0E90241046184610320CDE90004CC
:102190000120CDE902040494CDE905400794694685
:1021A0000A480894FFF714FB08B1FEF71AFD0994DA
:1021B00009A906480A94FFF7A1F9002801D0FEF703
:1021C00010FD0CB010BD00000004004044010020D0
:1021D00010B58EB000240794089409940A940B94C7
:1021E0001C2168460C94FEF7B6F82A48284901607D
:1021F0005321C0E9011444F61F61C0E9031484614E
:10220000FFF7C4F908B1FEF7ECFC4FF480500790DB
:1022100007A92048FFF76EFA08B1FEF7E2FC1D4857
:10222000FFF71DFD08B1FEF7DCFC0B940BA9194864
:102230000C94FFF763F908B1FEF7D3FC6020CDE9F9
:10224000000402940022694612480494FFF7A1FC9E
:1022500008B1FEF7C6FC042269460E48FFF799FC58
:1022600008B1FEF7BEFC082269460A48FFF791FC58
:1022700008B1FEF7B6FC0C2269460648FFF789FC58
:1022800008B1FEF7AEFC0348FFF724FC0EB010BD0A
:10229000000800408C0100201CB500240E4800946A
:1022A0000C49019401605321C0E9011442F20F71FD
:1022B0008461C160FFF76AF908B1FEF792FC0094EF
:1022C000694605480194FFF719F9002801D0FEF787
:1022D00088FC1CBD00100040D401002010B596B051
:1022E00000240F9410941194129413941C216846A6
:1022F0001494FEF730F8202107A8FEF72CF8344894
:1023000032490160A721C0E9011444F61F61C0E908
:10231000031444618461FFF739F908B1FEF761FCE9
:102320004FF480500F900FA92948FFF7E3F908B147
:10233000FEF757FC2648FFF792FC08B1FEF751FC68
:10234000139413A922481494FFF7D8F808B1FEF7A4
:1023500048FC6020CDE900040294039404940594A1
:10236000002269461A480694FFF713FC08B1FEF7ED
:1023700038FC042269461648FFF70BFC08B1FEF74B
:1023800030FC082269461248FFF703FC08B1FEF74B
:1023900028FC0C2269460E48FFF7FBFB08B1FEF74C
:1023A00020FC0794089409944FF400500A94CDE956
:1023B0000B4007A906480E94FFF776F808B1FEF720
:1023C00010FC0348FFF786FB16B010BD0004014067
:1023D0001C020020FEE7000010B53C210448FFF776
:1023E00099FABDE810403C210248FFF793BA00007B
:1023F000FC0000204401002010B500211148FFF727
:102400005DFC0C210F48FFF759FC0F4C0022012105
:102410002046FEF70EFD002202212046FEF709FDB0
:10242000002208212046FEF704FD0022102120464C
:10243000FEF7FFFC20460122BDE810400421FEF714
:10244000F8BC0000B400002000100240FEE70000CD
:1024500090B190ED101A80ED111AD0ED0F1AC0ED69
:10246000101AC0ED060A80ED070A30EEC00A80EDB2
:102470000F0A017819B14BE09FED270A7047D0EDA4
:10248000010A20EE801A80ED091AD0ED0A0A90EDBB
:10249000022A42EE000A30EE610AC0ED0A0A90ED0F
:1024A0000D2A80ED0E2A90ED0C2A80ED0D2A80ED8C
:1024B0000C0AD0ED031A61EE801AC0ED0B1A90EDF4
:1024C000050AF4EEC00AF1EE10FA09DCB1EE400A9A
:1024D000F4EEC00AF1EE10FA02D390ED0A0A01E020
:1024E00080ED0A0A31EE000A30EE210A80ED080A7A
:1024F000D0ED040AB4EEE00AF1EE10FA06DCF1EEDB
:10250000600AB4EEE00AF1EE10FA01D2C0ED080A5A
:1025100090ED080A704700000000000090B190EDB7
:10252000101A80ED111AD0ED0F1AC0ED101AC0ED7F
:10253000060A80ED070A30EEC00A80ED0F0A017826
:1025400019B14BE09FED270A7047D0ED010A20EE4C
:10255000801A80ED091AD0ED0A0A90ED022A42EEA7
:10256000000A30EE610AC0ED0A0A90ED0D2A80EDF6
:102570000E2A90ED0C2A80ED0D2A80ED0C0AD0ED8C
:10258000031A61EE801AC0ED0B1A90ED050AF4EE05
:10259000C00AF1EE10FA09DCB1EE400AF4EEC00A0E
:1025A000F1EE10FA02D390ED0A0A01E080ED0A0A7A
:1025B00031EE000A30EE210A80ED080AD0ED040A5F
:1025C000B4EEE00AF1EE10FA06DCF1EE600AB4EEC9
:1025D000E00AF1EE10FA01D2C0ED080A90ED080A07
:1025E0007047000000000000DFED0C1A9FED0C2A80
:1025F00000B5F0EE610AB0EE420A0A4A00210A482C
:1026000000F014F808480021F0EE610AB0EE420A2A
:10261000044A48305DF804EB00F036B800409C45B1
:1026200000C0DA45C4BC000864020020002828D09D
:10263000002A26D0017092ED001A80ED011A92ED69
:10264000011A80ED021A92ED021A80ED031A80ED54
:10265000040A9FED0C0AC0ED050A80ED0E0A80ED1C
:102660000D0A80ED0C0A80ED080A80ED0B0A80ED62
:102670000A0A80ED090A80ED110A80ED100A80ED4A
:102680000F0A704700000000002828D0002A26D03A
:10269000017092ED001A80ED011A92ED011A80EDA1
:1026A000021A92ED021A80ED031A80ED040A9FEDE2
:1026B0000C0AC0ED050A80ED0E0A80ED0D0A80EDD2
:1026C0000C0A80ED080A80ED0B0A80ED0A0A80ED05
:1026D000090A80ED110A80ED100A80ED0F0A70479B
:1026E000000000002DE9FE4FF748F849F94E006858
:1026F0000290B1F900100191F549F74FF94AB1F98B
:1027000000100091F84DB6F90010DFF8D093DFF813
:10271000D0A3D7F800E0B5F9008013684FF0070B9D
:102720000024E8B184464846BCF1010FB0F900200E
:102730005046B0F9000078D01CF15A0F6DD0DDF88A
:1027400008C0BCF15A0F69D01CF12D0F02F05B815B
:10275000DDF808C0BCF12D0F02F0868603F038BD0D
:1027600023B1DFF880E3012B24D0F7E7B8F1000FA5
:102770000DD0B8F1010F7BD15FEA0E00FBD16FF0F5
:102780002800FFF751FB3868012807D0E6E7D74952
:1027900004200880012005F091F9DFE7D1490120EC
:1027A000D34A0860A9F800402C803C603080172193
:1027B0001180FBE10029DED1CE480123C44903800A
:1027C000009A012AD7D1DDF804C0C04ABCF1010F3C
:1027D00026D00BDC6FF05908C44503D06FF02C08ED
:1027E000C44509D1B84BC3F800800CE0BCF12D0FF3
:1027F00015D0BCF15A0F0DD003800C80B248006890
:10280000FDF70EFEAAE704800C800221CEF800102E
:102810001480F3E75A2303E007E0FDE3FDE32D23F3
:10282000DFF8A4C2CCF80030EDE7022B08D0032B70
:102830001FD0042B36D0DFF8ACE2052B69D08FE037
:10284000AB490120A6F800B00880B8F1000F01D113
:1028500007F068FCB5F90000002827DA012007F02E
:1028600061FC288810BB9F48032101602C8077E021
:10287000FFE1B8F1000F2DD0B8F1010F70D15FEA80
:102880000E006DD16FF03100FFF7CEFA38680128E5
:1028900066D19449042008602C8009203C60308077
:1028A000012033E011B912B1012A04D058E0002010
:1028B00006F0FEF954E010B1012804D050E01620D3
:1028C00008F0B0FD4CE0B8F1000F03D0B8F1010FF3
:1028D00004D045E0012007F0E7FA41E05FEA0E008E
:1028E0003ED16FF02800FFF79FFA3868012837D1F2
:1028F0007C4805217E4A0160A9F800402C80AAF896
:10290000004001203C603080172111807A49088006
:1029100026E029BB774801236D490380009A012AEC
:102920001ED1DDF804C0694ABCF1010F2FD00BDCC9
:102930006FF05908C44503D06FF02C08C44509D185
:10294000614BC3F8048018E0BCF12D0F1ED0BCF120
:102950005A0F19D003800C805B484068FDF760FD7A
:102960005948406810F15A0F16D05A286ED010F10D
:102970002D0F6CD02D286BD0F0E604800C80062043
:10298000CEF800001480E7E75A2300E02D23DFF89B
:1029900038C1CCF80430F0E752480068062809D066
:1029A000DFF8408107281DD0082832D0C646092804
:1029B0006CD0AEE04E49A6F800B00120088028880F
:1029C00010B9012007F0AEFBB5F90000002827DAA6
:1029D000012007F0A7FB288810BB4249C1F800B0CE
:1029E0002C8096E0B5F9000078B3012818D138683A
:1029F000B0B96FF03100FFF717FA386801280FD12E
:102A00000820C8F800002C8009203C60308001209C
:102A100039E0308820B9B9F9001011B1012904D08A
:102A200077E0002006F044F973E0BAF9001011B124
:102A3000012904D06DE00C2008F0F4FC69E0B5F940
:102A4000000010B1012808D063E002E03EE169E235
:102A5000F5E3012007F028FA5BE0386898BB6FF0D7
:102A60002800FFF7E1F93868012852D10921C8F898
:102A70000010A9F800402C80AAF800401C4A3C60D5
:102A80003080172111801C49088042E03088D0B97D
:102A900018480F494FF0010CA0F800C00A88012A1D
:102AA00037D10A4AB2F90030012B3CD026DC6FF056
:102AB0005908434503D06FF02C08434522D1024BFF
:102AC000C3F8088032E024E0940000204400002095
:102AD0004A00002042000020280000203E00002084
:102AE0002000002070000020400000202400002072
:102AF0004C000020480000204E0000202D2B1CD050
:102B00005A2B1AD0A0F800C00C80FD488068FDF751
:102B100087FCFB4880685A2814D010F12D0F5CD038
:102B20002D2872D01AE6F64BC3F808C004800C803A
:102B30000A20CEF800001480E7E7DFF8C4C3CCF821
:102B40000830F3E7DFF8BC83D8F800000A2804D087
:102B50000B2818D00C282BD000E6EB49A6F800B0C3
:102B600001200880288810B9012007F0DBFAB5F9A8
:102B700000000028D6DA012007F0D4FA28880028BF
:102B8000D0D10B2054E0B5F90000002803F01183E8
:102B900001286ED138680028FBD16FF03100FFF7B3
:102BA00043F938680128BDD10C2085E2D74994E269
:102BB0003088002875D1B9F90010002903F0058389
:102BC00001296ED1BAF90020002A70D0012A68D1FB
:102BD0001422C8F8002003F0BABACA4801680A29CA
:102BE00009D080460B2918D00C2925D003460D2981
:102BF00002F0E882B2E5B9F900207AB3012A50D197
:102C0000BAF90030002B6FD049E037E00B230360A6
:102C1000A9F800402C8002F00FBE288850B3F9E3D9
:102C2000012007F07FFA2888002803F0BE8095E590
:102C3000C8F8000004F093BBB5F900000028A5D047
:102C400001282ED1386800282BD16FF03100FFF712
:102C5000EBF838680128CDD10D20A6E723E000BFAE
:102C6000B9F900100029A9D001291AD1BAF9002018
:102C7000F4E316E01CE014221A60ACE7A1480168F6
:102C80000A2903D080460B29C7D0E8E3B9F9002010
:102C90004AB1012A05D1BAF90030002B70D0012BBE
:102CA000B4D0BDE8FE8F002005F05EF956E567E27E
:102CB0009549A6F800B001200880FDE302460D29E1
:102CC00003F07E824AE51423136084E78D48006890
:102CD00006280AD0DFF82C8207283CD0082851D0DB
:102CE000C64609286BD092E075E1B9F9001011B120
:102CF000012909D08BE08449A6F800B0042008809F
:102D0000002005F031F982E0BAF9001019B1D0467F
:102D1000012904D07BE00C2008F084FB77E0B5F9B2
:102D2000000070B3012872D1386840BB6FF02800F2
:102D3000FFF77AF83868012869D17249C1F800B004
:102D4000A9F800402C80A8F800406F493C60308012
:102D50000880042030E0308888B9288810B9012024
:102D600007F0E0F9B5F90000002850DA012007F07B
:102D7000D9F9288818B90820C8F800002C8046E046
:102D80002AE105E0B5F9000010B1012804D03EE0C9
:102D9000012007F089F83AE03868C0BB6FF03100D5
:102DA000FFF742F83868012831D10920C8F800003F
:102DB0002C803C60308001205449088027E0308816
:102DC00028BB53485349012303800A88012A1ED196
:102DD000514AB2F900C0BCF1010F2DD00BDC6FF0ED
:102DE0005908C44503D06FF02C08C44509D1444BA1
:102DF000C3F8088016E0BCF12D0F1CD0BCF15A0FAF
:102E000017D003800C803E488068FDF709FB3C48E2
:102E1000806810F15A0F14D010F12D0F50D02D28CA
:102E20005DD09BE404800C800A20CEF80000148062
:102E3000E9E75A2300E02D23DFF8C4C0CCF80830BE
:102E4000F0E7304A10680A2810D1B9F900000028CC
:102E500002F0BE8601287FF424AFBAF90030002BBF
:102E60006FD04AE00B23136004F08DBA90460B2814
:102E700054D00C2812D1B5F90000002803F0998134
:102E80000128E8D138680028E5D16FF03100FEF75D
:102E9000CBFF38680128C4D10D20FFE10D2802F0D6
:102EA00087875BE4B9F90010002903F08E810129BE
:102EB000D1D1BAF9003039E11423C8F800308AE6DC
:102EC000104A10680A28D1D1B9F900100029BFD0E2
:102ED0000129C0D1BAF90030002B7CD00DE0094A9D
:102EE00010680A28C2D1B9F900000028B0D0012822
:102EF000B1D1BAF90030002B6ED0012BB2D0D0E6A0
:102F000094000020700000204C0000204E000020A3
:102F1000480000204A00002044000020308800289B
:102F20007CD0BEE6F6480068062804D0DFF8D0E37F
:102F300007283ED069E0B9F9001019B101290AD07B
:102F400063E0F8E0EF49A6F800B004200880002014
:102F500005F00AF859E0BAF9001019B1D046012974
:102F600004D052E00C2008F05DFA4EE0B5F9000004
:102F700010B1012804D048E0012006F095FF44E09C
:102F8000386850BB6FF02800FEF74EFF3868012804
:102F90003BD1DB49C1F800B0A9F800402C80A8F86B
:102FA0000040D8493C6030800880D7490420088020
:102FB0002BE0308888B9D548D5494FF0010CA0F8EE
:102FC00000C00A88012A20D1D24AB2F90030012B70
:102FD00029D00FDC02E0D1E079E116E06FF059086A
:102FE000434503D06FF02C08434507D1CA4BC3F8C3
:102FF00008801BE02D2B20D05A2B1ED0A0F800C03B
:103000000C80C5488068FDF70BFAC348806810F152
:103010005A0F17D05A2802E0DFE2FCE358E178D0DB
:103020002D2877D0A8E4BC4BC3F808C004800C80DE
:103030000820CEF800001480E3E7DFF8DCC2CCF80B
:103040000830F3E7AE49086808280CD088460928FC
:1030500072D00A281ED00A460B286ED00C286DD0DC
:103060000D2844D057E0B9F90020002A3FF41BAEE8
:10307000012A7FF444AFBAF90030002B7ED0F2E190
:1030800009230B605AE2012007F04CF82888002839
:1030900075D071E4B5F90000002803F08A8001289A
:1030A000E7D138680028E4D16FF03100FEF7BCFEAC
:1030B00038680128B6D10B20FEE300BFB9F9001033
:1030C000002903F082800129D3D1BAF9003093B3EB
:1030D000D5E10C231360C1E08A490880E1E50120B5
:1030E00007F020F82888002802F0738644E4B5F938
:1030F00000000028D1D00128F0D138680028EDD197
:103100006FF03100FEF790FE386801288AD10E205A
:10311000C4E014E083E00E2877D02DE4B9F9000074
:103120000028CED00128D9D1BAF9003043B3012B01
:103130003FF4C2AEB5E59FE1F0E098E1EFE0DFF8E3
:10314000C081D8F80000082804D009281DD00A281A
:1031500031D04DE06B49A6F800B0042008802888E3
:1031600010B9012006F0DEFFB5F9000000283FDAB3
:10317000012006F0D7FF288890BB02E0D0E01CE2D7
:1031800029E20921C8F8001054E5B5F9000060B142
:103190000128A3D138680028A0D16FF03100FEF7D4
:1031A00043FE3868012804D022E0012006F07CFEAE
:1031B0001EE00A2072E0308800288FD1B9F9001093
:1031C00079B101298AD1BAF9003073B1012B85D1C7
:1031D0000B23C8F80030A9F80040AAF80040F0E33B
:1031E00006E0002005F064FD02E0172008F01AF95F
:1031F000D8F8000041460B286AD00C283FF41CADDB
:103200000A460D2802F0DC878CE4FBE3B9F90010D4
:10321000002986D001298DD1BAF90030F3E338496D
:10322000086808280CD08846092877D00A2823D0B7
:103230000A460B283AD00C2871D002F011B970E080
:10324000B9F90020002A3FF42EAD012AA1D1BAF924
:103250000030E3B3012B9CD109230B60A9F8004097
:10326000AAF80040A6F800B0042035E7B5F9000040
:103270000028FFF608AF55E4B5F90000002802F079
:103280009887012885D13868002885D16FF03100F2
:10329000FEF7CAFD38680128B6D10B20C8F8000037
:1032A0002C8009203C60308004207FE43088002896
:1032B00088D1B9F900000028ABD0012887D1BAF92C
:1032C00000306BB3012BA6D10C23136036E1F4E080
:1032D00035E100BFB5F900000028D0D001289AD10F
:1032E0003868002897D16FF03100FEF79DFD3868EF
:1032F000012889D10E20DFE20E2802F0598511E461
:10330000700000204C0000204E00002048000020EB
:103310004A0000204400002094000020F8E033E13F
:1033200037E1FE480068062804D0DFF8F0E30728FC
:103330003DD065E0B9F9001011B1012909D05FE075
:10334000F749A6F800B004200880002004F00CFE25
:1033500056E0BAF9001019B1D046012904D04FE067
:103360000C2008F05FF84BE0B5F9000010B101281F
:1033700004D045E0012006F097FD41E0386890BB9D
:103380006FF02800FEF750FD3868012838D1E34976
:10339000C1F800B0A9F800402C80A8F80040E0492E
:1033A0003C6030800880DF490420088028E03088B5
:1033B000C8B9DD48DD49012303800A88012A1FD1ED
:1033C000DB4AB2F90080B8F1010F2ED00CDC6FF0AF
:1033D000590CE04503D06FF02C0CE0450AD1D54BD9
:1033E000C3F808C017E00BE0B8F12D0F1CD0B8F1FE
:1033F0005A0F17D003800C80CE488068FDF710F874
:10340000CC48806810F15A0F14D05A2841D02D3082
:103410007DD00CE498E004800C800820CEF80000F9
:103420001480E9E75A2300E02D23DFF808C3CCF825
:103430000830F0E7B9490868082809D08846092803
:1034400066D00A283FF426AE0A460B280FD01AE0B1
:10345000B9F90020002A3FF426ACA0E0F4E3A2E38F
:10346000BAF900304BB3012B3FF40AAE19E43088AF
:1034700000283FF423AE14E4162002F0E1B9012B3A
:103480003FF427AE0DE40C287ED00D287FF434AF36
:103490002DE6DFF88882D8F80000082810D0092827
:1034A00024D042460A2837D00B2848D00C283FF4B5
:1034B000C3AB13460D2801E043E066E066D0B0E4FC
:1034C0009749A6F800B004200880288810B9012088
:1034D00006F028FEB5F9000000289ADA012006F06F
:1034E00021FE288800283FF448AE9AE4B5F9000090
:1034F000002802F05E860128B8D138680028B5D1CE
:103500006FF03100FEF790FC3868012801E021E0FF
:103510004BE03FF44EAE84E430880028A6D1B9F9E0
:103520000010002902F0518601299FD1BAF900301C
:103530005BB3012B9AD10B23C8F80030F0E2288846
:1035400010B9012006F0EEFDB5F900000028FFF6E5
:1035500067AB66E47149086808281CD088460928CA
:1035600023D00A283FF496AD0A460B288BD1308829
:10357000002887D1B9F900100029D3D00129BBD187
:10358000BAF90030002B02E01AE00CE0EFE37FF420
:103590009FAD172071E7B9F90020002AC2D0012A97
:1035A0003FF45EAFABE40D2067E7288800287FF486
:1035B0005DAE012006F0B6FD58E60A20FFF738BBE5
:1035C000288810B9012006F0ADFDB5F900000028EB
:1035D000FFF685AD25E40B204FE7022B08D0032B27
:1035E0003AD0042B4DD0DFF834E1052B69D08FE0C1
:1035F00012B1012A09D08BE04949A6F800B0042095
:103600000880002004F0B0FC82E010B1012804D052
:103610007EE0162007F006FF7AE0B8F1000F37D001
:10362000B8F1010F74D15FEA0E0071D16FF028007C
:10363000FEF7FAFB386801286AD138480321016097
:10364000A9F800402C80AAF80040354901203C60D0
:1036500030800880042031E091BBB8F1000F02D126
:10366000012006F05FFDB5F90000002850DA0120C6
:1036700006F058FD288818BB2849042008602C80D3
:1036800046E0B8F1000F03D0B8F1010F04D03FE0DD
:10369000012006F009FC3BE05FEA0E0038D16FF034
:1036A0003100FEF7C1FB3868012831D11B480521E4
:1036B00001602C8009203C6030800120194908807D
:1036C00026E029BB1848012318490380009A012AE3
:1036D0001ED1DDF80480164AB8F1010F3DD00BDC95
:1036E0006FF0590CE04503D06FF02C0CE04509D188
:1036F000104BC3F804C026E0B8F12D0F2CD0B8F160
:103700005A0F27D003800C800A484068FCF788FED7
:1037100008484068012825D05A280DE07000002094
:103720004C0000204E000020480000204A000020ED
:1037300044000020940000206ED010F12D0F6CD0BA
:103740002D286BD06EE404800C800620CEF800009B
:103750001480D9E75A2300E02D23DFF800C4CCF809
:103760000430F0E7FE48006806280BD0DFF8F0834D
:10377000072823D0082834D0092850D0C6460A2864
:103780007ED0B4E0B9F9001011B1012906D0AEE045
:10379000F449A6F800B00420088048E0BAF90020F7
:1037A00012B1012A02D0A2E004204BE0EC4BC3F896
:1037B00000B0A9F80040AAF8004098E0288810B9A5
:1037C000012006F0AFFCB5F9000000282EDA012038
:1037D00006F0A8FC288848BB0820C8F800002C8008
:1037E00085E0B5F9000080B301281FD13868E8B939
:1037F0006FF03100FEF718FB3868012877D10921F6
:10380000C8F800102C80D84904203C603080088023
:103810000120D4493EE0EEE3B4E0D4E1CBE23088CD
:1038200020B9B9F9001011B1012904D05FE00020DE
:1038300005F03EFA5BE0BAF9001011B1012905D09C
:1038400055E0162007F0EEFD51E005E0B5F9000067
:1038500010B1012804D04AE0012006F025FB46E023
:10386000386850BB6FF02800FEF7DEFA3868012890
:103870003DD10A20C8F80000A9F800402C8000E0E3
:103880000AE0AAF800400120B64A3C6030801721C7
:103890001180B54908802AE0308870B9B348B4492E
:1038A000012303800A88012A21D1B24AB2F900809B
:1038B000B8F1010F30D001E06AE218E00BDC6FF0E4
:1038C000590CE04503D06FF02C0CE04509D1A34B17
:1038D000C3F808C016E0B8F12D0F1CD0B8F15A0F8C
:1038E00017D003800C809D488068FCF799FD9B48A9
:1038F00080685A2802F04D8210F12D0F11D02D282A
:1039000024D00AE404800C800B20CEF80000148040
:10391000E9E75A2300E02D23DFF840C2CCF8083055
:10392000F0E78F4801680B296ED100BFB9F900207C
:10393000002A02F0358402F047B900BFBAF900301E
:10394000FDE302460E2902F03B845DE484490868E9
:103950000B280CD1B9F900000028EAD001287FF427
:1039600021AEBAF90030002B3FF41DAE44E3884687
:103970000C283FF425AE0D283FF4ACAC0A460E28C7
:10398000E1D041E476480068062809D0DFF8D0810C
:1039900007283AD008284ED0C64609286BD093E0B5
:1039A000B9F9001011B1012904D08DE0002005F013
:1039B0007FF989E0BAF9001021B1D046012905D07C
:1039C00082E0F2E20C2007F02DFD7DE0B5F9000069
:1039D00080B3012878D1386858BB6FF02800FEF713
:1039E00023FA386801286FD15D49C1F800B0A9F801
:1039F00000402C80A8F800405B493C603080088083
:103A0000042035E04FE3A1E02EE2308888B9288811
:103A100010B9012006F086FBB5F90000002853DA42
:103A2000012006F07FFB288818B90820C8F800009C
:103A30002C8049E005E0B5F9000010B1012804D060
:103A400042E0012006F030FA3EE0386878BB6FF0C3
:103A50003100FEF7E9F93868012835D10921C8F8A5
:103A600000102C80404904203C60308008801720E2
:103A70003C49088028E03088C8B93C483C490123CB
:103A800003800A88012A1FD13A4AB2F90080B8F1AE
:103A9000010F2DD00CDC6FF0590CE04503D06FF016
:103AA0002C0CE0450AD12D4BC3F808C016E00BE002
:103AB000B8F12D0F1BD0B8F15A0F16D003800C802F
:103AC00026488068FCF7ACFC24488068012814D0A4
:103AD00010F12D0F50D02D285DD010E404800C8003
:103AE0000A20CEF800001480EAE75A2300E02D23D4
:103AF000DFF868C0CCF80830F0E7194801680A29F7
:103B000071D1B9F90020002A02F05F83012A7FF405
:103B100049ADBAF9003003B3012BF8D10B23036090
:103B2000A9F80040AAF80040A6F800B00120FFF76D
:103B3000D3BA02460D2973D06BE400BFB9F9000077
:103B40000028E1D00128E2D1BAF90030002B3FF47F
:103B500042AD012B3FF4B7A888E424E29400002092
:103B6000700000204C0000204E0000204800002083
:103B70004A00002044000020F84801680A290ED1BC
:103B8000B9F90020002ABFD0012AE5D1BAF90030E6
:103B9000002BC1D1FDE4F14801680A2908D0804614
:103BA0000B293FF4CCAC0C297FF488A8FFF744B86C
:103BB000B9F90020002AA7D0012ACDD1BAF90030E6
:103BC000002BA9D1EFE4E548006806280CD0DFF807
:103BD0008C83072825D0082837D009284ED0C64620
:103BE0000A2868D0AFE0F5E3B9F9001011B1012956
:103BF00006D0A8E0DA49A6F800B00420088045E025
:103C0000BAF9002012B1012A02D09CE0172048E046
:103C1000D24BC3F800B0A9F80040AAF8004092E0E7
:103C2000FEE3288810B9012006F07CFAB5F90000FF
:103C300000282ADA012006F075FA288828BB082017
:103C4000C8F800002C807EE0CEE1B5F9000088B312
:103C5000012878D13868C0B96FF03100FEF7E4F878
:103C6000386801286FD10921C8F800102C80BD499F
:103C700004203C6030800880012038E0308820B982
:103C8000B9F9001011B1012904D05CE0002005F061
:103C90000FF858E0BAF9001011B1012904D052E030
:103CA0000C2007F0BFFB4EE0B5F9000010B1012871
:103CB00006D048E000E01DE0012006F0F5F842E003
:103CC000386898BB6FF02800FEF7AEF83868012816
:103CD00039D10A20C8F80000A9F800402C80AAF8C1
:103CE0000040A04901203C603080088017209C499A
:103CF000088028E03088C8B99B489C49012303808C
:103D00000A88012A1FD19A4AB2F900C0BCF1010FFA
:103D100028D00CDC6FF05908C44503D06FF02C0894
:103D2000C4450AD1934BC3F8088011E00BE0BCF105
:103D30002D0F16D0BCF15A0F11D003800C808D4886
:103D40008068FCF76DFB8B488068012810D028E064
:103D500004800C800B20CEF800001480EFE75A237B
:103D600000E02D23DFF80CC2CCF80830F0E7F5E3D3
:103D70007A4801680B2977D1B9F90020002A02F0AE
:103D80000F82012A7FF4E8AEBAF900307BBB0AE16A
:103D9000C8F800002C8009203C6030800120FEF72C
:103DA00005BF5A2873D02D2872D013E4B9F900202A
:103DB000002AE4D0F5E36948006806280BD0DFF854
:103DC0009C81072824D0082835D009284DD0C64624
:103DD0000A287DD0B1E0B9F9001011B1012907D04E
:103DE000ABE05F49A6F800B00420088045E0DFE2C0
:103DF000BAF9002012B1012A02D09EE00D204AE05B
:103E0000564BC3F800B0A9F80040AAF8004094E06F
:103E1000288810B9012006F085F9B5F900000028BE
:103E20002ADA012006F07EF9288828BB0820C8F885
:103E300000002C8081E0B5F9000050B301287CD14E
:103E40003868C8B96FF03100FDF7EEFF3868012817
:103E500073D10921C8F800102C80424904203C602D
:103E60003080088001203CE0E8E3308820B9B9F9CF
:103E7000001011B1012904D05FE0002004F018FF08
:103E80005BE0BAF9001029B1012907D055E0EFE352
:103E9000EFE309E00C2007F0C5FA4EE0B5F90000A9
:103EA00010B1012804D048E0012005F0FDFF44E0F6
:103EB0003868A8BB6FF02800FDF7B6FF3868012806
:103EC0003BD10A20C8F80000A9F800402C8000E08F
:103ED0000AE0AAF80040234901203C6030800880B5
:103EE00017201F49088028E03088C8B91E481F499C
:103EF000012303800A88012A1FD11D4AB2F900C09C
:103F0000BCF1010F3BD00CDC6FF05908C44503D065
:103F10006FF02C08C4450AD1164BC3F8088015E091
:103F20000BE0BCF12D0F29D0BCF15A0F24D0038037
:103F30000C8010488068FCF773FA0E4880680128EE
:103F400022D05A2871D02D3036D0DAE404800C808B
:103F50000B20CEF800001480EBE70000700000207A
:103F60004C0000204E000020480000204A000020A5
:103F700044000020940000205A2300E02D23DFF8A5
:103F8000F4C3CCF80830E1E7FB4908680B287FF45C
:103F9000EEACB9F9000000286FD001287FF4DCAD49
:103FA000BAF9003043BB0420FEE3A6F800B00120BC
:103FB000DBE10D2877D0A4E4EF4801680B293FF43A
:103FC000B5AC80460C293FF4FBAA0D293FF482A929
:103FD00003460E2968D094E4B9F9000000286FD098
:103FE0000128DBD1BAF90020002A3FF4F4AA012A03
:103FF0003EF441AEB0E500E0D6E1022B08D0032B41
:104000003CD0042B51D0DFF870E3052B6ED091E04B
:1040100012B1012A0AD08DE0D849A6F800B00420D8
:104020000880002003F0A0FF84E0D5E310B1012850
:1040300004D07FE00C2007F0F5F97BE0B8F1000F29
:104040003AD0B8F1010F75D15FEA0E0072D16FF06E
:104050002800FDF7E9FE386801286BD1C648032126
:104060000160A9F800402C80AAF80040C349012053
:104070003C6030800880042035E0F6E1F9B9B8F101
:10408000000F02D1012006F04DF8B5F9000000281C
:1040900050DA012006F046F8288880B9B649042095
:1040A00008602C8046E0F9E3F9E3B8F1000F03D093
:1040B000B8F1010F05D03DE0012005F0F5FE39E033
:1040C0004FE25FEA0E0035D16FF03100FDF7ACFE34
:1040D000386801282ED1A848052101602C800920CC
:1040E0003C6030800120A649088023E011BBA54830
:1040F0000123A5490380009A012A1BD1DDF804C0E1
:10410000A24ABCF1010F24D008DC6FF05908C44565
:1041100024D06FF02C02944506D12BE0BCF12D0F7A
:1041200030D0BCF15A0F23D003800C8091484068F6
:10413000FCF776F98F484068012825D000E0FBE3C2
:1041400010F15A0F79D010F12D0F77D02D2876D09D
:1041500017E4DFF820C2CCF8043002E0854BC3F846
:10416000048004800C800620CEF800001480DDE777
:104170005A23EEE77F4B5A6004800C800621CEF86C
:104180000010D3E72D22F5E77B48006806280BD006
:10419000DFF8E481072823D0082834D009284FD03D
:1041A000C6460A287DD0B1E0B9F9001011B1012945
:1041B00006D0ABE07149A6F800B00420088047E0C3
:1041C000BAF9002012B1012A02D09FE004204AE08F
:1041D000694BC3F800B0A9F80040AAF8004095E088
:1041E000288810B9012005F09DFFB5F900000028CE
:1041F0002DDA012005F096FF288840BB0820C8F87A
:1042000000002C8082E0B5F9000078B301287DD150
:104210003868E0B96FF03100FDF706FE3868012814
:1042200074D10921C8F800102C80554904203C6045
:1042300030800880012051493DE0BDE0BEE1EDE263
:10424000308820B9B9F9001011B1012904D05DE01E
:10425000002004F02DFD59E0BAF9001011B1012938
:1042600005D053E0162007F0DDF84FE005E0B5F982
:10427000000010B1012804D048E0012005F014FE30
:1042800044E03868A8BB6FF02800FDF7CDFD386822
:1042900001283BD10A20C8F80000A9F800402C8072
:1042A00000E00AE0AAF800400120344A3C60308077
:1042B000172111803249088028E03088C8B9314878
:1042C0003149012303800A88012A1FD12F4AB2F9FC
:1042D0000080B8F1010F3BD00CDC6FF0590CE045C9
:1042E00003D06FF02C0CE0450AD1224BC3F808C074
:1042F00024E00BE0B8F12D0F29D0B8F15A0F24D0EB
:1043000003800C801B488068FCF78AF81948806895
:1043100010F15A0F21D010F12D0F7FF444AD164942
:1043200008680B2834D088460C283FF449A90D288A
:104330003EF4D0AF0A460E2872D036E504800C80D9
:104340000B20CEF800001480DCE75A2300E02D2378
:10435000DFF820C0CCF80830F0E7DFF81C80D8F890
:1043600000000B287ED10120308004490880FFF72F
:10437000E6B8000094000020700000204C000020EF
:104380004E000020480000204A0000204400002089
:10439000B9F90020002A68D0012A7FF42BAEBAF9BF
:1043A0000030002B3FF4F5A8012BF6D10C23F2E3EB
:1043B000012BF2D10C23D5E0FC48006806280AD076
:1043C000DFF8E883072839D0082851D0C6460928E5
:1043D0006ED096E0DCE0B9F9001011B1012904D0EB
:1043E0008FE0002004F064FC8BE0BAF9001019B1F2
:1043F000D046012904D084E0162007F013F880E0AD
:10440000B5F9000078B301287BD1386860BB6FF044
:104410002800FDF709FD3868012872D1E34900E062
:10442000EFE3C1F800B0A9F800402C80A8F80040E4
:10443000DF493C6030800880042036E0308898B93D
:10444000288810B9012005F06DFEB5F9000000289C
:1044500057DA012005F066FE288828B90820C8F838
:10446000000003E0F1E309E03EE032E32C8048E0A5
:10447000B5F9000010B1012804D042E0012005F098
:1044800013FD3EE0386878BB6FF03100FDF7CCFCDF
:104490003868012835D10921C8F800102C80C4499A
:1044A00004203C60308008801720C249088028E042
:1044B0003088C8B9C048C149012303800A88012A4D
:1044C0001FD1BF4AB2F900C0BCF1010F2DD00CDCE6
:1044D0006FF05908C44503D06FF02C08C4450AD1C9
:1044E000B84BC3F8088016E00BE0BCF12D0F1BD0D1
:1044F000BCF15A0F16D003800C80B2488068FBF7DD
:104500008FFFB0488068012814D010F12D0F2BD0F8
:104510002D2839D049E404800C800A20CEF8000010
:104520001480EAE75A2300E02D23DFF898C2CCF884
:104530000830F0E79D4801680A2929D1B9F900201F
:10454000002A7AD0012A7FF455ADBAF90030002B49
:104550003FF41DAC012BF6D10B2303E0CFE19549CD
:1045600008809AE10360FAE3904801680A290FD1B4
:10457000B9F90020002AE4D0012AE4D1BAF90030C8
:10458000002BE7D1FFF705B8884801680A2909D050
:1045900080460B293FF4EBAE0C297FF4CAAAFEF744
:1045A0004BBB2AE1B9F90020002ACAD0012ACAD19E
:1045B000BAF90030002BCDD1FEF7F5BF7B4800687B
:1045C00006280BD0DFF8E481072823D0082836D04E
:1045D00009284FD0C6460A2869D0B0E0B9F90000D2
:1045E00010B1012806D0AAE07249A6F800B0042054
:1045F000088047E0BAF9002012B1012A02D09EE0FB
:1046000017204AE0694BC3F800B0A9F80040AAF8A7
:10461000004094E0288810B9012005F083FDB5F929
:10462000000000282DDA012005F07CFD288840BB21
:104630000820C8F800002C8081E0EFE3EFE3B5F933
:10464000000098B301287AD13868D0B96FF03100F2
:10465000FDF7EAFB3868012871D10921C8F800107C
:104660002C80534904203C603080088001203AE0CF
:10467000FEE3FEE3308820B9B9F9001011B1012939
:1046800004D05CE0002004F013FB58E0BAF90010FD
:1046900011B1012904D052E0162006F0C3FE4EE00D
:1046A000B5F9000010B1012806D048E000E01DE097
:1046B000012005F0F9FB42E03868A0BB6FF028004C
:1046C000FDF7B2FB3868012839D10A20C8F800008C
:1046D000A9F800402C80AAF80040354901203C6030
:1046E0003080088017203349088028E03088D0B90E
:1046F000314832494FF0010CA0F800C00A88012A65
:104700001DD12F4AB2F90030012B22D00CDC6FF002
:104710005908434503D06FF02C08434508D1294B75
:10472000C3F8088018E00AE02D2B1CD05A2B1AD0B1
:10473000A0F800C00C8023488068FBF771FE214878
:104740008068012814D010F15A0F45D02D284ED082
:1047500031E41C4BC3F808C004800C800B20CEF859
:1047600000001480E7E7DFF85CC0CCF80830F3E71E
:104770000E4801680B293FF4FFAA80460C293EF43D
:104780001FAF0D293EF4A6AD03460E29E0D13088B7
:1047900000287FF42FACB9F9000000287DD0012853
:1047A000F7D1BAF900000FE0F2E30000700000203A
:1047B0004E0000204C000020480000204A0000204D
:1047C000440000209400002000283EF404AF01289B
:1047D000DFD114201860EFE3DFF8F883D8F8000089
:1047E0000B283FF4E2AB0C287FF4E3ABD7E6F948A3
:1047F00001680B293FF4DAAA07E0012AC9D1BAF906
:104800000030002B7FF4D4ADD6E680460C29B6D01C
:104810000D29B7D003460E2971D09FE2ED480068FC
:1048200006280BD0DFF8AC83072823D0082837D020
:1048300009284ED0C6460A287DD0B2E0B9F900005A
:1048400010B1012806D0ACE0E349A6F800B004207E
:10485000088046E0BAF9002012B1012A02D0A0E097
:104860000D2049E0DB4BC3F800B0A9F80040AAF8DE
:10487000004096E0288810B9012005F053FCB5F9F6
:10488000000000282CDA012005F04CFC288838BBF9
:104890000820C8F800002C8083E0E8E3A9E2E7E301
:1048A000B5F9000060B301287BD13868C0B96FF05A
:1048B0003100FDF7B9FA3868012872D10921C8F82A
:1048C00000102C80C54904203C6030800880012005
:1048D0003BE0308820B9B9F9001011B1012904D0AA
:1048E0005FE0002004F0E4F95BE0BAF9001011B1D8
:1048F000012906D055E0162006F094FD51E0FDE3B5
:1049000005E0B5F9000010B1012804D049E001200C
:1049100005F0CAFA45E03868B8BB6FF02800FDF72B
:1049200083FA386801283CD10A20C8F80000A9F8A9
:1049300000402C8001E00BE061E0AAF80040A749AC
:1049400001203C60308008801720A349088028E0BF
:104950003088D0B9A248A3494FF0010CA0F800C09C
:104960000A88012A1DD1A04AB2F90030012B23D0B8
:104970000CDC6FF05908434503D06FF02C08434519
:1049800008D19A4BC3F8088019E00AE02D2B1DD0FE
:104990005A2B1BD0A0F800C00C8094488068FBF70D
:1049A0003FFD92488068012815D010F15A0F3FF45E
:1049B00013AF2D3016D0D1E18C4BC3F808C0048062
:1049C0000C800B20CEF800001480E6E7DFF81CC254
:1049D000CCF80830F3E77F4801680B297FF40CAF6F
:1049E000FFF7CAB97B4801680B29F7D1B9F9001064
:1049F00000296ED001297FF4AFA8BAF90030002B4E
:104A00007FF4D6ACBEE5022B0AD0032B23D0042BB7
:104A100035D0052B4CD0DFF8BCE1062B7ED0A8E0CA
:104A200012B1012A09D0A4E06B49A6F800B0012018
:104A30000880002003F098FA9BE010B1012802D012
:104A400097E0172042E0634803230360A9F8004081
:104A5000AAF800408DE0B8F1000F02D1012005F066
:104A600061FBB5F90000002826DA012005F05AFBA9
:104A7000288808BB5749042008602C8079E0B8F1E9
:104A8000000F2ED0B8F1010F73D15FEA0E0070D184
:104A90006FF03100FDF7C8F93868012869D14D4839
:104AA000052101602C8009203C603080012034E029
:104AB00011B912B1012A04D05BE0002004F0F8F82B
:104AC00057E010B1012805D053E0162006F0AAFCEB
:104AD0004FE0CFE1B8F1000F03D0B8F1010F04D0DF
:104AE00047E0012005F0E0F943E05FEA0E0040D125
:104AF0006FF02800FDF798F93868012839D1354959
:104B00000620354A0860A9F800402C80AAF8004029
:104B100001203C6030801721118000E002E02F4925
:104B2000088026E029BB2E4801232E4A03800099E5
:104B300001291ED1DDF804C02B49BCF1010F2ED094
:104B40000BDC6FF05908C44503D06FF02C08C44546
:104B500009D1264BC3F8048017E0BCF12D0F1DD0FE
:104B6000BCF15A0F18D00380148020484068FBF72E
:104B700057FC1E484068012816D010F15A0F7CD00F
:104B80005A287BD02D287AD0E8E004801480CEF813
:104B900000B00C80E9E7EDE35A2300E02D23DFF8B5
:104BA0004CC0CCF80430F0E70A48006807280BD066
:104BB000DFF82080082835D0092847D00A285FD0A0
:104BC000C6460B2872D0C0E0B9F9001081B10129A6
:104BD00018D0BAE0700000204C0000204E000020E9
:104BE000480000204A0000204400002094000020DB
:104BF000F949A6F800B001200880002003F0B4F9BC
:104C0000A3E053E1BAF9001011B1012902D09CE0F0
:104C1000042048E0F14B08211960A9F80040AAF8E7
:104C2000004092E0288810B9012005F07BFAB5F920
:104C3000000000282BDA012005F074FA288830BB28
:104C40000921C8F800102C807FE0F2E3B5F90000DC
:104C500068B3012879D13868C8B96FF03100FDF721
:104C6000E3F83868012870D10A20C8F800002C80C9
:104C700009203C60308001203BE0D5E0BAE1C5E28C
:104C8000308820B9B9F9001011B1012904D05CE0D5
:104C9000002004F00DF858E0BAF9001011B1012914
:104CA00006D052E00C2006F0BDFB4EE024E005E00B
:104CB000B5F9000010B1012804D046E0012005F04C
:104CC000F3F842E0386898BB6FF02800FDF7ACF8C5
:104CD0003868012839D10B20C8F80000A9F8004035
:104CE0002C80AAF800400120BB4A3C60308017218C
:104CF0001180BB49088028E03088C8B9B948BA4952
:104D0000012303800A88012A1FD1B84AB2F900C0E2
:104D1000BCF1010F2ED00CDC6FF05908C44503D054
:104D20006FF02C08C4450AD1B14BC3F8088017E0D6
:104D30000BE0BCF12D0F1CD0BCF15A0F17D0038033
:104D40000C80AB488068FBF76BFBA948806810F1CA
:104D50005A0F14D05A2841D02D2850D003E230E207
:104D600004800C800C20CEF800001480E9E75A2360
:104D700000E02D23DFF878C2CCF80830F0E7974840
:104D800001680C2911D100BFB9F90020002A71D0A7
:104D9000012A7EF4E1AEBAF90030002B3EF46CAB90
:104DA000012BF6D10D23FFF7DDBB80460D297BD00B
:104DB0000E297AD002460F2978D0D4E1012005F0DF
:104DC000B1F92888002872D0CDE100BF6FF0310022
:104DD000FDF72AF8386801286AD0C4E1DFF8FC81C1
:104DE000D8F800000C2870D00D283EF473AAFEF706
:104DF00092B9308800283EF491A9BDE8FE8F77482B
:104E000001680C2973D1B9F90020002ABFD0012A0A
:104E1000F3D1BAF90030002BC2D1F5E4EFE3D1E0D1
:104E200002460F297ED09EE16C480068072809D011
:104E3000DFF8A881082821D009283AD0C6460A28D8
:104E400077D09FE06449A6F800B001200880288848
:104E500010B9012005F066F9B5F9000000282FDA35
:104E6000012005F05FF9288850BB08205B4902E06B
:104E7000F1E3A2E0DEE208602C8083E0B5F90000F7
:104E8000A0B301287ED13868D0B96FF03100FCF7AB
:104E9000CBFF3868012875D10920C8F800002C80A4
:104EA0003C603080012041E0B8E2C4E202E1F0E37E
:104EB000F0E3308820B9B9F9001011B1012905D00B
:104EC00060E0002003F0F4FE5CE03BE3BAF9001080
:104ED00011B1012904D055E00C2006F0A3FA51E0ED
:104EE000B5F9000010B1012806D04BE000E0ECE37A
:104EF000012004F0D9FF45E03868B8BB6FF0280006
:104F0000FCF792FF386801283CD10A20C8F800005D
:104F1000A9F800402C80AAF8004001203C603080B5
:104F2000172101E0EFE304E02B4A11802C490880AF
:104F300028E03088D0B92B482B494FF0010CA0F85D
:104F400000C00A88012A1DD1284AB2F90030012B7D
:104F50001FD00CDC6FF05908434503D06FF02C08CC
:104F6000434508D1224BC3F8088015E00AE02D2BF9
:104F700019D05A2B17D0A0F800C00C801C488068AC
:104F8000FBF74EFA1A48806801286FD0FEF709BF78
:104F9000F5E3174BC3F808C004800C800B20CEF853
:104FA00000001480EAE7DFF848C0CCF80830F3E7E7
:104FB00002460E297ED0D6E0FAE3084801680B29A4
:104FC0003EF4F4AE80460C293EF4FAAA0D297EF494
:104FD000B8ACFEF77FB900004C0000207000002044
:104FE0004E000020480000204A000020440000201D
:104FF00094000020FB48006807282CD1B9F9001064
:1050000011B1012909D0A5E0F749A6F800B00420A4
:105010000880002002F0A8FF1DE0BAF9001019B1C5
:10502000D046012904D095E00C2006F0FBF912E0EF
:10503000B5F9000010B1012804D08BE0012004F084
:1050400033FF08E03868B0BB6FF02800FCF7ECFED7
:10505000386801280DD0E3490868082819D0884627
:1050600009282ED08E460A284BD073E0FBE3FBE3E1
:10507000EBE1DC4908200860A9F800402C80A8F882
:105080000040D94901203C6030800880D749042085
:105090000880308878B9288810B9012005F042F8D6
:1050A000B5F90000002855DA012005F03BF8288802
:1050B00008B901E0EDE340E0CA48092101602C8015
:1050C00048E0B5F9000010B1012804D042E0012009
:1050D00004F0EAFE3EE0386878BB6FF03100FCF780
:1050E000A3FE3868012835D10A20C8F800002C80BA
:1050F00009203C6030800120BC4900E062E008806B
:1051000028E03088C8B9BA48BA49012303800A8820
:10511000012A1FD1B84AB2F900C0BCF1010F2DD04D
:105120000CDC6FF05908C44503D06FF02C08C4455F
:105130000AD1B24BC3F8088016E00BE0BCF12D0F8A
:105140001BD0BCF15A0F16D003800C80AB4880688E
:10515000FBF766F9A9488068012814D010F15A0FAE
:1051600035D02D2848D041E204800C800B20CEF8A9
:1051700000001480EAE75A2300E02D23DFF87CC208
:10518000CCF80830F0E7974A10680B280AD0904610
:105190000C283EF415AA0D283DF4A9AF13460E289D
:1051A00010D023E2B9F9001079B301297FF425AEBC
:1051B000BAF90030002B3EF4F6AE012BF6D10C23E9
:1051C000136037E3308800283DF44AAD15E6854882
:1051D00001680B2973D1B9F90020B2B1012AF5D1C8
:1051E000BAF90030002B7FF4E3A8FEF745B90D298A
:1051F0007EF4A7ABFDF77BBF7A4801680B295ED12F
:10520000B9F900200AB1FFF7F8BAEFE37548006872
:1052100007280BD0DFF8CC81082826D0092837D002
:105220000A284DD0C6460B2867D0AFE0B9F9000078
:1052300010B1012809D0A9E06B49A6F800B00120FF
:105240000880002002F090FEA0E0BAF9002012B120
:10525000012A02D09AE00D2045E0624B08221A6034
:10526000A9F80040AAF8004090E0288810B9012071
:1052700004F058FFB5F90000002828DA012004F0F6
:1052800051FF288818BB0921C8F800102C807DE048
:10529000B5F9000080B3012878D13868B8B96FF04B
:1052A0003100FCF7C1FD386801286FD10A20C8F829
:1052B00000002C8009203C603080012039E0EFE3C1
:1052C000308820B9B9F9001011B1012904D05DE08E
:1052D000002003F0EDFC59E0BAF9001011B10129EA
:1052E00004D053E00C2006F09DF84FE0B5F9000023
:1052F00010B1012806D049E000E01DE0012004F0D3
:10530000D3FD43E03868A0BB6FF02800FCF78CFDAC
:10531000386801283AD10B20C8F80000A9F80040ED
:105320002C80AAF8004001202F4A3C6030801721D1
:1053300011802E49088029E03088D0B92C482D49A9
:105340004FF0010CA0F800C00A88012A1ED12A4A99
:10535000B2F90030012B23D00DDC6FF05908434522
:1053600003D06FF02C08434509D1244BC3F80880C3
:1053700019E00BE05DE22D2B1CD05A2B1AD0A0F8BF
:1053800000C00C801D488068FBF74AF81B48806805
:10539000012814D010F15A0F32D05A285AD025E1E2
:1053A000164BC3F808C004800C800C20CEF8000017
:1053B0001480E7E7DFF844C0CCF80830F3E7094889
:1053C00001680C297FF4F1ACB9F9002092B3012AED
:1053D0007FF4FCAEBAF90030002B7FF4E1ACFEF7AD
:1053E000E2BD0000700000204C0000204E000020B4
:1053F000480000204A0000204400002094000020C3
:10540000F74801680C293FF4BFAC80460D2905D050
:105410000E2910D003460F2917D0E7E0288810B9CD
:10542000012004F07FFEB5F900000028FFF6C6ACAD
:10543000DCE0EDE32CE2B5F9000078B30128C7D138
:10544000386800283FF4C2ACD7E4308800283EF426
:10545000C3ADD2E4DFF88883D8F800000C2871D0FF
:105460000D287DF449AFB4E5022B0AD0032B24D0DC
:10547000042B36D0052B4DD0DFF864E3062B7DD00E
:10548000A9E012B1012A0AD0A5E0D649A6F800B0D9
:1054900001200880002002F067FD9CE0EFE310B1DE
:1054A000012802D097E00D2042E0CD48032303609D
:1054B000A9F80040AAF800408DE0B8F1000F02D131
:1054C000012004F02FFEB5F90000002826DA0120A3
:1054D00004F028FE288808BBC149042008602C80FD
:1054E00079E0B8F1000F2ED0B8F1010F73D15FEA67
:1054F0000E0070D16FF03100FCF796FC386801287F
:1055000069D1B748052101602C8009203C603080BA
:10551000012036E011B912B1012A04D05BE000206D
:1055200003F0C6FB57E010B1012804D053E00C2073
:1055300005F078FF4FE0B8F1000F04D0B8F1010F8B
:1055400005D048E044E1012004F0AEFC43E05FEA0E
:105550000E0040D16FF02800FCF766FC3868012887
:1055600039D19F4906200860A9F800402C80AAF88C
:10557000004001203C603080172100E004E0994A9F
:1055800011809949088026E029BB98480123984951
:105590000380009A012A1ED1DDF80480954AB8F1F3
:1055A000010F2ED00BDC6FF0590CE04503D06FF0EB
:1055B0002C0CE04509D1904BC3F804C017E0B8F1BA
:1055C0002D0F1DD0B8F15A0F17D003800C808A48D8
:1055D0004068FAF725FF88484068012816D010F186
:1055E0005A0F6FD05A286ED02D306DD0DBE2048078
:1055F0000C80CEF800B01480E9E75A2301E034E1D2
:105600002D23DFF8F4C1CCF80430F0E774480068CB
:1056100007280BD0DFF8C881082827D009283AD0FE
:105620000A2853D0C6460B286ED0B6E0B9F9000060
:1056300010B1012809D0B0E06A49A6F800B00120F5
:105640000880002002F090FCA7E0BAF900201AB10F
:10565000012A03D0A1E09CE304204AE0604B082229
:105660001A60A9F80040AAF8004096E0288810B90E
:10567000012004F057FDB5F9000000282DDA0120C3
:1056800004F050FD288840BB0921C8F800102C8088
:1056900083E0FAE3FAE3B5F9000098B301287CD17E
:1056A0003868D0B96FF03100FCF7BEFB38680128CC
:1056B00073D10A20C8F800002C8009203C6030809B
:1056C00001203DE0D6E087E285E331E1308820B972
:1056D000B9F9001011B1012904D05EE0002003F0F7
:1056E000E7FA5AE0BAF9001011B1012904D054E0E8
:1056F000162005F097FE50E0B5F9000010B1012822
:1057000007D04AE001E0FCE01DE0012004F0CCFB02
:1057100043E03868A0BB6FF02800FCF785FB3868D1
:1057200001283AD10B20C8F80000A9F800402C80CD
:10573000AAF8004001202B4A3C60308017211180DC
:105740002949088029E03088D0B928482849012310
:1057500003800A88012A20D1264AB2F900C0BCF190
:10576000010F30D00DDC6FF05908C44503D06FF045
:105770002C08C4450BD1204BC3F8088019E05FE02A
:105780000BE0BCF12D0F1DD0BCF15A0F18D00380D7
:105790000C8019488068FAF743FE1748806810F1BA
:1057A0005A0F3FF457AE5A2828D02D304BD0FAE18B
:1057B000EFE304800C800C20CEF800001480E8E7B2
:1057C0005A2300E02D23DFF830C0CCF80830F0E792
:1057D0000449A6F800B001200880FDF7F1BE0000E2
:1057E000700000204C0000204E00002048000020E7
:1057F0004A0000204400002094000020FD49086871
:105800000C280AD088460D283FF408AE0E283FF435
:1058100012AE0A460F2874D0C5E1B9F90000B8B33A
:1058200001287FF4D3ACBAF9003043B1012BF8D191
:105830000D230B60A9F80040AAF80040C6E40C2034
:1058400005F0F0FDAFE1EB4801680C2970D1B9F922
:10585000002052B1012AF1D1BAF90030002B7FF4B7
:105860009FAAFDF796BE81E2FAE3A6F800B00120F8
:10587000FEF775BEDF48006807280BD0DFF8748399
:1058800008283FD0092854D0C6460A2870D097E08F
:10589000E7E379E2B9F9001011B1012909D08FE0ED
:1058A000D549A6F800B004200880002002F05CFB77
:1058B00086E0BAF9001019B1D046012904D07FE082
:1058C000162005F0AFFD7BE0B5F9000078B30128A4
:1058D00076D1386850BB6FF02800FCF7A5FA38681D
:1058E00001286DD1C34908200860A9F800402C8028
:1058F000A8F80040C04901203C60308008800420A6
:1059000032E0F2E3308888B9288810B9012004F029
:1059100009FCB5F90000002852DA012004F002FC6D
:10592000288818B90921C8F800102C8048E006E042
:10593000F1E3B5F9000010B1012804D040E00120E6
:1059400004F0B2FA3CE03868D0BB6FF03100FCF7ED
:105950006BFA3868012833D10A20C8F800002C807F
:1059600009203C6030800120A449088028E0FFE73E
:10597000308828BBA248A349012303800A88012A52
:105980001ED1A14AB2F900C0BCF1010F29D00BDC35
:105990006FF05908C44503D06FF02C08C44509D1F5
:1059A0009A4BC3F8088012E0BCF12D0F18D0BCF15F
:1059B0005A0F13D003800C8094488068FAF730FDAA
:1059C000DFF84882D8F80800012810D073E004807E
:1059D0000C800B20CEF800001480EDE75A2300E085
:1059E0002D23DFF828C2CCF80830F0E7F0E081483A
:1059F00001680B2907D00C2919D00D292AD002469D
:105A00000E2945D0CBE0B9F9002012B1012A06D009
:105A1000C5E07949A6F800B00420088041E0BAF951
:105A200000300BB9042044E0012B71D0B7E0288886
:105A300010B9012004F076FBB5F9000000283ADA2D
:105A4000012004F06FFB288808BB6A490D2008601C
:105A50002C8030E0B5F9000010B1012804D09EE0A0
:105A6000012004F021FA26E0386840BB6FF03100D5
:105A7000FCF7DAF9386801281DD15E490E2008606C
:105A80002C8009203C605D4930800420088012E0B1
:105A90003088A0B9B9F9001019B1012905D07EE00C
:105AA0008AE0002003F004F905E0BAF900303BB9C0
:105AB0000B2005F0B7FCD8F808005A2809D06EE092
:105AC000012B72D06BE000BFA9F80040AAF800409B
:105AD00065E0484801680B2907D00C291BD00D2927
