:020000040800F2
:100000005809002029020008452400081F1E000886
:10001000CD2300081F040008B5AE00080000000052
:1000200000000000000000000000000055770008FC
:10003000D50A00080000000029770008CD770008E5
:10004000430200084302000843020008430200087C
:10005000430200084302000843020008430200086C
:10006000430200084302000843020008430200085C
:10007000430200084302000843020008430200084C
:10008000430200084302000843020008430200083C
:10009000430200084302000843020008D50B000891
:1000A000430200084302000843020008430200081C
:1000B000430200084302000843020008430200080C
:1000C00043020008430200084302000843020008FC
:1000D00043020008430200084302000843020008EC
:1000E00043020008430200084302000843020008DC
:1000F00043020008430200084302000843020008CC
:1001000043020008430200084302000843020008BB
:100110004302000843020008E57A00084302000891
:10012000430200084302000843020008430200089B
:10013000430200084302000843020008430200088B
:10014000430200084302000843020008430200087B
:10015000430200084302000843020008430200086B
:10016000430200084302000843020008430200085B
:100170004302000843020008430200080000000098
:10018000430200084302000800F002F800F03CF8C7
:100190000AA090E8000C82448344AAF10107DA45E2
:1001A00001D100F031F8AFF2090EBAE80F0013F0F8
:1001B000010F18BFFB1A43F001031847A0B5000058
:1001C000C0B50000103A24BF78C878C1FAD85207E9
:1001D00024BF30C830C144BF04680C6070470000C1
:1001E0000023002400250026103A28BF78C1FBD840
:1001F000520728BF30C148BF0B6070471FB50BF0D6
:1002000099FA1FBD10B510BD00F0CFF81146FFF7E9
:10021000F5FF0BF0BDF800F0EDF803B4FFF7F2FFC7
:1002200003BC00F0F5F80000094880470948004782
:10023000FEE7FEE7FEE7FEE7FEE7FEE7FEE7FEE796
:10024000FEE7FEE704480549054A064B70470000F3
:10025000657800088901000858030020580900202B
:10026000580500205805002053EA020C00F0698070
:100270002DE9F04B4FF00006002B1FBFB3FA83F5BA
:1002800003FA05F424FA05F65E4012BF1643B2FAEB
:1002900082F502FA05F4C5F120051EBF22FA05FC1D
:1002A00044EA0C04203556EA044C4FEA144418BFC3
:1002B000641C4FF000084FF00009904271EB030CF2
:1002C00039D3002919BFB1FA81F701FA07F6B0FA5C
:1002D00080F700FA07F6C7F120071EBF20FA07FCD7
:1002E00046EA0C062037B6FBF4FCA7EB0507103FE7
:1002F00007F01F0BCBF120060CFA0BFB2CFA06F6CD
:1003000044BFB3460026202FA4BF5E464FF0000B2B
:100310005BEA060C08BF4FF0010B19EB0B09ABFBB6
:10032000027C48EB0608C01B06FB02CC0BFB03CC8F
:1003300071EB0C01C1E70B46024641464846BDE859
:10034000F08B13B54FF000004FF00001AFF30080C9
:10035000BDE81C4070474FF0000200B513469446BC
:100360009646203922BFA0E80C50A0E80C50B1F10D
:100370002001BFF4F7AF090728BFA0E80C5048BF21
:100380000CC05DF804EB890028BF40F8042B08BFBF
:10039000704748BF20F8022B11F0804F18BF00F8BB
:1003A000012B7047704770477047754600F02CF876
:1003B000AE4605006946534620F00700854618B052
:1003C00020B5FFF73FFFBDE820404FF000064FF09B
:1003D00000074FF000084FF0000B21F00701AC467A
:1003E000ACE8C009ACE8C009ACE8C009ACE8C00999
:1003F0008D46704710B50446AFF300802046BDE837
:100400001040FFF70ABF000000487047F4020020C8
:1004100001491820ABBEFEE7260002007047FEE748
:100420000B49B1F900100C2909D00B2909D0042976
:100430000AD017290AD0162905D1064902E0064933
:1004400000E00649086070470549FBE70549F9E700
:10045000240000206C0000205C00002060000020D0
:1004600064000020680000202DE9F043F7486FF099
:100470002C055A26D0F80080F6482D246F0002681B
:10048000F548F349C1460368F4484FF0010CB8F150
:100490005A0F006803D0B9F1010F74D002E12D2B7F
:1004A00002D0012B1DD03CE0012A05D110F15A0FDA
:1004B00023D010F12D0F22D012F15A0F04D10128B0
:1004C0001BD010F12D0F03D012F12D0F03D028E017
:1004D000C1F800C025E010F15A0FF9D001280ED064
:1004E0001FE02D2A05D110F15A0F06D010F12D0F63
:1004F00005D012F15A0F04D008E00D6011E00F6032
:100500000FE02D28F9D010F12D0F03D012F12D0F8F
:1005100002D006E00C6004E010F15A0FFAD02D284A
:10052000EDD013F15A0F1ED1012A02D02D2A0AD084
:100530000EE02D2803D010F12D0F02D008E00D6041
:1005400011E00C600FE00128F9D010F12D0F03D05D
:1005500012F12D0F03D006E0C1F800C003E02D28F2
:10056000FAD00128EDD013F12D0F0BD1012A04D1BF
:1005700010F15A0F0DD02D2816D012F15A0F03D0BA
:100580002D2A08D08EE011E0012802D02D2808D0B5
:1005900088E00C6086E010F15A0F02D0012803D0E9
:1005A00080E0C1F800C07DE00F607BE02D2B02D021
:1005B0005A2B1CD03BE05A2A05D110F15A0F22D0F9
:1005C00010F12D0F21D012F15A0F04D15A281AD050
:1005D00010F12D0F03D012F12D0F02D027E00E6085
:1005E00025E010F15A0FFAD05A280ED01FE02D2A1C
:1005F00005D110F15A0F06D010F12D0F05D012F1D0
:100600005A0F04D008E00D6011E00F600FE02D28B4
:10061000F9D010F12D0F03D012F12D0F02D006E00A
:100620000C6004E010F15A0FFAD02D28EDD013F130
:100630005A0F1DD15A2A02D02D2A0AD00EE02D2899
:1006400003D010F12D0F02D008E00D6010E00C6017
:100650000EE05A28F9D010F12D0F03D012F12D0F12
:1006600002D005E00E6003E02D28FBD05A28EED022
:1006700013F12D0F16D15A2A04D110F15A0F88D038
:100680002D2891D012F15A0F02D02D2A05D009E061
:100690005A28F4D02D280CD004E010F15A0F08D0BD
:1006A0005A2881D019F15A0F05D0B9F12D0F7AD0FF
:1006B00006E10E60F6E72D2B04D05A2B1AD0012B41
:1006C00032D04FE05A2A02D0012A06D00AE001288F
:1006D00035D010F12D0F17D004E05A282FD010F18B
:1006E0002D0F39D012F12D0F3CD1012834D05A28CA
:1006F0000AD037E02D2A02D0012A08D00CE00128C8
:100700001DD010F12D0F07D1C1F800C02AE02D280F
:1007100015D010F12D0F14D012F12D0F22D1012878
:100720000FD02D28F0D01DE05A2A02D02D2A0AD051
:100730000EE02D2803D010F12D0F02D008E00D603F
:1007400010E00C600EE05A28F9D010F12D0F03D004
:1007500012F12D0F02D005E00E6003E02D28FBD032
:100760005A28EED013F12D0F05D15A2A04D0012AB0
:1007700007D02D2A0DD0A3E0012807D02D280FD0B7
:100780009EE05A2802D02D2808D099E00C6097E00E
:1007900009E0012802D05A2802D091E00E608FE0D3
:1007A000C1F800C08CE0012B02D05A2B1CD03CE0D9
:1007B0005A2A05D110F15A0F22D010F12D0F21D055
:1007C00012F15A0F04D15A281AD010F12D0F03D06C
:1007D00012F12D0F02D028E00E6026E010F15A0F22
:1007E000FAD05A280ED020E0012A05D110F15A0F74
:1007F00006D010F12D0F05D012F15A0F04D008E0E9
:100800000D6012E00F6010E00128F9D010F12D0FFB
:1008100003D012F12D0F03D007E0C1F800C004E0AF
:1008200010F15A0FF9D00128ECD013F15A0F29D149
:100830005A2A02D0012A16D01AE0012803D010F15A
:100840002D0F0DD014E00D601CE000005C000020B6
:100850006800002064000020600000206C00002080
:10086000C1F800C00EE05A28EDD010F12D0F03D0D2
:1008700012F12D0F02D005E00E6003E00128FBD03D
:100880005A28EDD013F12D0F1AD15A2A05D110F1A3
:100890005A0F3FF47BAF012811D012F15A0F02D04A
:1008A000012A07D00CE05A283FF47AAF01283FF420
:1008B00075AF05E010F15A0FF9D05A2800D10F603A
:1008C00019F12D0F4CD12D2B02D05A2B19D035E018
:1008D0005A2A04D110F15A0F20D0012821D012F148
:1008E0005A0F02D0012A06D028E05A2816D0012833
:1008F00024D10E6022E010F15A0FFAD05A2810D0FD
:100900001CE02D2A04D110F15A0F07D0012808D07D
:1009100012F15A0F07D0012A0BD00FE0C1F800C026
:100920000CE00F600AE02D28F8D0012806D10C60F9
:1009300004E010F15A0FFAD02D28F2D013F15A0F1B
:1009400004D0012B0CD15A2A19D01DE05A2A09D003
:100950002D2A0FD0012A03D12D2827D05A281FD0A5
:10096000BDE8F0832D2802D0012819D0F8E7C1F89E
:1009700000C0F5E75A28FAD0012817D0F0E710F1A7
:100980005A0F0DD02D2809D012F15A0F0AD02D2A56
:10099000E6D110F15A0F09D05A28E1D10F60DFE7F4
:1009A0000C60DDE75A28FBD02D28D9D10E60D7E79F
:1009B0002DE9F047444F0024444DB7F90000444E60
:1009C0004FF4FA7A4FF47A79012821D0B8464FF4DF
:1009D0009677022828D04FF4E169032834D0042800
:1009E00048D0052846D006281ED007284ED0082813
:1009F00053D04746092857D00A285CD0112861D126
:100A000000F06AF84FF4C87000F0EAF83C8017E094
:100A1000642000F0E5F80AF041FC504600F0E0F8F0
:100A200000F05AF84846EFE7384600F0D9F800F0F1
:100A300053F8484600F0D4F80AF030FC504620E065
:100A40002C803480322011E0384600F0C9F800F0E4
:100A500043F8484600F0C4F80AF020FC504600F085
:100A6000BFF8A8F800402C8034801420BDE8F0477F
:100A700000F0B6B8384600F0B3F80AF00FFC504664
:100A800005E000F0ADF8A8F80040D9E7384600F0DE
:100A9000A7F800F021F84846F3E7C82000F0A0F8D6
:100AA0000AF0FCFB3846ECE7322000F099F80AF037
:100AB000F5FB6420A8E7322000F092F80AF0EEFB84
:100AC0005046A1E7BDE8F087420000204C0000201E
:100AD0004E000020704700001A4B1B4840F2B6320F
:100AE000B3F9001005291DD008DC012911D0022915
:100AF00012D0032919D0042908D110E0172914D0E5
:100B0000222914D02D2915D0332916D00020188081
:100B1000704740F6020112E040F20E610FE04FF420
:100B2000E1710CE040F6C41109E00260704740F248
:100B3000465104E040F6921101E040F2E2410160CA
:100B4000704700004C0000203804014010B500211F
:100B50001C4801F0AFF804211A4801F0ABF8082155
:100B6000184801F0A7F80C21164801F0A3F800215D
:100B7000154801F09FF80421134801F09BF8082163
:100B8000114801F097F80C210F4801F093F80F4934
:100B90004FF4AF600860091D40F2AA500860091DBB
:100BA00040F2DC500860091D086009490860091D11
:100BB00040F602000860091D4FF448700860091DE6
:100BC000086010BD8C0100201C0200203408004089
:100BD00034040140202000F01FB872B6FEE7000088
:100BE00070B5044600F026F90546601C02D00448A2
:100BF0000078044400F01EF9401BA042FAD370BDF7
:100C000074000020202803D102480168491C0160BB
:100C10007047000058000020044910B50A680242DD
:100C200002D00860FFF7EEFF10BD0000143C014049
:100C30002DE9F84FDFF8BCA10022012503264FF073
:100C40000F090AF1040BAAF1040E00BF0B6805FAA4
:100C500002F42340A34270D10F7907F00307012F5C
:100C600001D0022F16D187684FEA420806FA08FC25
:100C700027EA0C07D1F80CC00CFA08FC4CEA070C68
:100C8000C0F808C04768A7430C79C4F30014944027
:100C90003C4344600C79E443A4070AD0C4684FEA9B
:100CA000420C06FA0CF7BC438F6807FA0CF727438F
:100CB000C7600C7904F00304022C12D1D40800EBB5
:100CC000840CDCF820405707FF0E09FA07F824EAE5
:100CD0000804D1F8108008FA07F848EA0408CCF8AC
:100CE000208004684FEA420C06FA0CF7BC430F79E7
:100CF00007F0030707FA0CF7274307604C6814F462
:100D0000403F70D03C4C276847F4804727602468F8
:100D100022F0030704F480440094384C07EB040CE1
:100D2000DCF8084897074FEA177809FA08F7BC4338
:100D3000334FB84202D1002724E054E0314FB8428B
:100D400001D101271EE0304FB84201D1022719E03E
:100D50002E4FB84201D1032714E02D4FB84201D1E4
:100D600004270FE02B4FB84201D105270AE02A4F94
:100D7000B84201D1062705E0284FB84201D1072724
:100D800000E0082707FA08F72743CCF80878DAF8D4
:100D900000405746D1F804C09C435FEACC2C00D5F4
:100DA0001C433C60DBF800405F46D1F804C09C4324
:100DB0005FEA8C2C00D51C433C60DEF8004077468F
:100DC000D1F804C09C435FEA8C3C00D51C433C60D6
:100DD000084F083F3C68D1F804C09C435FEACC3C14
:100DE00000D51C433C60521C102AFFF42FAFBDE815
:100DF000F88F0000083C01404438024000300140B8
:100E0000000002400004024000080240000C0240C2
:100E1000001002400014024000180240001C024072
:100E20000069084000D0012070470AB18161704715
:100E30000904FBE701488068704700007400002047
:100E40000248816802781144816070477400002074
:100E50000B4810B5016841F400710160016841F46C
:100E600080610160016841F480710160032000F03D
:100E70006FF8002000F006F800F024F8002010BD04
:100E8000003C024070B50D4D04464FF47A7128784D
:100E9000B1FBF0F00A490968B1FBF0F000F0EAFAA2
:100EA00048B9102C07D200222146501E00F030F81D
:100EB00000206C6070BD012070BD00007400002037
:100EC000800000200A4808B5016841F480410160B3
:100ED000006800F4804000900548001F016841F060
:100EE00080510160006800F08050009008BD000053
:100EF00044380240002809DB00F01F020121914024
:100F00004009800000F1E020C0F8001170470000A7
:100F1000F0B40E4B1B680C46C3F30223C3F1070564
:100F2000042D00D90425191D072901D2002300E052
:100F3000DB1E012606FA05F1491E214099409E401C
:100F4000761E16403143F0BC0AF098B90CED00E073
:100F5000064900F0070208684FF6FF03184040EA10
:100F60000220034A10430860704700000CED00E0C7
:100F70000000FA052DE9F0470E46050065D0DFF8C0
:100F80001481D8F80000F7B200F00700B04207D291
:100F900088F80070D8F8000000F00700B04254D183
:100FA00028683D4C810712D5400703D5206840F4DE
:100FB000E05020602878000703D5206840F46040A6
:100FC00020602068A96820F0F0000843206028789D
:100FD000C0072DD0304968680839012812D002288E
:100FE00013D0032811D00968890700292DDA216858
:100FF00021F0030101432160FFF71CFF814641F20C
:10100000883A0EE009688903EFE709688901ECE78F
:10101000FFF710FFA0EB0901514502D90320BDE8FD
:10102000F0872068696800F00C00B0EB810FEFD109
:10103000D8F80010404601F00701B14207D9077007
:10104000006800F00700B04201D00120E7E72878EF
:10105000400705D52068E96820F4E0500843206087
:101060002878000706D52068296920F4604040EA06
:10107000C100206000F018F82168084AC1F303118C
:10108000515CC8400649086006480068FFF7FAFE50
:101090000020C4E7003C0240083802403EB7000888
:1010A0008000002078000020154810B5006810F07E
:1010B0000C02144813D04110042A0FD0082A0ED174
:1010C0000F4C241F2268236802F03F025B0207D501
:1010D0002068C0F38810A0FB010106E0084610BD9F
:1010E0002168C1F38811A1FB00010023FFF7BCF8C0
:1010F0002168C1F30141491C4900B0FBF1F010BD6A
:10110000083802400024F4002DE9F84F04006ED0A6
:101110002078DFF84C93C007A9F104054AD009F103
:1011200004000168C1F38101012908D00068C0F3FF
:10113000810002280AD1D9F80000400206D52868AB
:10114000800337D560680028E1D033E06068B0F5EF
:10115000803F10D0B0F5A02F286810D020F4803048
:101160002860286820F4802028606068A8B1FFF714
:1011700061FE06460DE0286840F48030F4E740F454
:1011800080202860F7E700BFFFF754FE801B64282B
:1011900073D828688003F7D50CE0FFF74BFE0646AE
:1011A00005E000BFFFF746FE801B6428F0D82868E2
:1011B0008003F7D42078DFF8AC8280074FF0000A74
:1011C0003ED5A748001D016811F00C0F08D000683B
:1011D000C0F3810002280BD1D9F80000400207D4E7
:1011E0002868800716D5E068012800D112E033E1B5
:1011F000E068B8B10120C8F80000FFF71BFE064602
:1012000005E000BFFFF716FE801B0228C0D8286843
:101210008007F7D52868216920F0F80040EAC1006E
:1012200028600DE0C8F800A0FFF704FE064604E0C1
:10123000FFF700FE801B02281FD828688007F7D41C
:101240002078000722D5864F87486169703771B1D1
:1012500001210160FFF7EEFD064604E0FFF7EAFD1D
:10126000801B022809D838688007F7D50EE0C0F83F
:1012700000A0FFF7DFFD064605E082E0FFF7DAFD9C
:10128000801B02287DD838688007F7D42078400773
:1012900068D5DFF8CCB100270BF13C0BDBF8000080
:1012A000C0000BD4DBF8001041F08051CBF80010E7
:1012B000DBF80000012700F0805000906B4E306892
:1012C000C00510D4306840F480703060FFF7B2FD84
:1012D000009005E0FFF7AEFD0099401A022850D8B3
:1012E0003068C005F6D55E4EA0686C3601280FD078
:1012F0000528306810D020F001003060306820F000
:1013000004003060A068B8B1FFF794FD00900FE0D2
:10131000306840F00100F4E740F004003060F7E787
:10132000FFF788FD0099411A41F28830814266D862
:1013300030688007F4D50EE0FFF77CFD009007E0F1
:10134000FFF778FD0099411A41F28830814256D862
:1013500030688007F4D42FB1DBF8001021F0805101
:10136000CBF80010A069C8B33D49091D0968C1F355
:10137000810102294AD00228504607D0C8F86000EF
:1013800000E03CE0FFF756FD04463BE04746C8F866
:101390006000FFF74FFD064605E000BFFFF74AFD7E
:1013A000801B02282BD828688001F7D4D4E90701D4
:1013B0000843A16A2E4A490802EB0141626A41EAE8
:1013C0008211084394F82C1040EA0161C9F800101A
:1013D00001203866FFF72EFD044606E03EE000BF20
:1013E000FFF728FD001B022809D828688001F7D5DF
:1013F00034E000BFFFF71EFD001B022802D90320C6
:10140000BDE8F88F28688001F4D427E00128F7D0E0
:10141000D9F80000E26900F4800191421CD1226AEF
:1014200000F03F01914217D147F6C071626A014056
:10143000B1EB821F10D1A26A4FF0FF3300F44031AC
:1014400003EB5202B1EB024F06D194F82C1000F0DE
:101450007060B0EB016F01D00120D1E70020CFE731
:101460000438024000004742800E474200700040AE
:101470000000FFFF10B5401EB0F1807F01D30120B6
:1014800010BD4FF0E02460610F21601709F0F6FEF7
:101490000020A06107202061002010BD7047704728
:1014A00010B590F83C20012A22D0012280F83C207F
:1014B000CA688C6822F4407222434C6822F480622D
:1014C00022430C6822F4006222430C6922F4805209
:1014D00022434C6922F400522243C969002322F4BA
:1014E00080420A4301684A6480F83C30002010BD05
:1014F000022010BD70B590F83C20012A32D00124A2
:1015000080F83C40022280F83D2003685A689D68BC
:1015100022F070060A6832435A60134B02689A42FE
:1015200014D0B2F1804F11D0104B9A420ED0104B14
:101530009A420BD00F4B9A4208D00F4B9A4205D0DB
:101540000E4B9A4202D00E4B9A4204D1496825F0C4
:1015500080031943916080F83D40002180F83C10E1
:10156000084670BD022070BD00000140000400402C
:1015700000080040000C0040000401400040014011
:101580000018004010B5040003D094F83D0010B1DD
:1015900007E0012010BD002084F83C00204600F048
:1015A0001FF8022084F83D00211D206806F0A0FAF3
:1015B000012084F8460084F83E0084F83F0084F857
:1015C000400084F8410084F8420084F8430084F825
:1015D000440084F8450084F83D00002010BD000060
:1015E00008B51D4902681D488A4207D1016841F0CB
:1015F00001010160006800F001000BE01749184B81
:10160000091F9A4208D1086840F004000860086881
:1016100000F00400009008BD124B9A4211D10868F6
:1016200040F0100008600868002200F010000090F0
:1016300001213620FFF76CFCBDE808403620FFF79B
:1016400059BC09498A42E6D1016841F002010160B2
:10165000006800F00200DDE700000140443802406D
:1016600000080040001000400004014090F83D10C8
:10167000012901D001207047022180F83D10016846
:10168000CA6842F00102CA6000681149884214D059
:10169000B0F1804F11D00F4988420ED00E498842D8
:1016A0000BD00E49884208D00D49884205D00D491B
:1016B000884202D00C49884204D1816801F00701B8
:1016C000062903D0016841F0010101600020704744
:1016D000000001400004004000080040000C0040F1
:1016E00000040140004001400018004070B504466D
:1016F00090F83C000025012817D0012684F83C60B2
:10170000022084F83D002068826822F0770222F4EB
:101710007F4282600868502838D00DDC20284FD0E6
:1017200005DC90B3102811D14AE0022070BD3028AA
:1017300046D040280AD13BE060282FD070280DD039
:10174000B0F5805F03D0B0F5005F12D0012584F8BA
:101750003D60002084F83C00284670BDCB68D1E98C
:101760000121206806F03DFA2068816841F0770188
:1017700009E0CB68D1E90121206806F032FA20683F
:10178000816841F480418160E1E719E0CA684968F5
:10179000206806F0FBFA5021206806E0CA68496814
:1017A000206806F004FB6021206806F024FACEE7EA
:1017B000CA684968206806F0E9FA40212068F4E721
:1017C000226801461046F0E72DE9F0410D4604007D
:1017D00003D094F83D0018B108E00120BDE8F08185
:1017E000002084F83C00204600F040F8022084F8F5
:1017F0003D002068816844F2070291438160211D09
:10180000206806F075F9226890689169166A2B685D
:10181000AF69034340F20330814341EA0721A868DE
:10182000EF6908434FF6FC418843E96840EA072026
:10183000014328692F6A000140EA073008436968BC
:101840006D6926F0AA0646EA0515294393602268C9
:10185000906154F8460B0162012004F81F09E075FD
:101860002076E0762077A0750020B7E770B586B0C7
:10187000044614216846FEF76EFD214A25680023C0
:101880001F49103A02241F48B5F1804F1ED01E4E4A
:10189000B54219D10D6845F002050D60096801F0E7
:1018A00002010591116841F001011160116801F018
:1018B00001010591C0210091CDE90143CDE9033437
:1018C000694600BFFFF7B4F906B070BD0D6845F07A
:1018D00001050D60096801F001010591116841F0F1
:1018E00001011160116801F00101059103210091CE
:1018F000CDE901430121CDE903316946E2E700006A
:1019000040380240000002400004004070B590F8EA
:101910003E60044690F83F5090F8423090F84320E3
:10192000022021B104290ED0012E1BD114E0012E7A
:1019300018D1012B16D184F83E0084F84200012210
:101940000021206820E0012D0CD1012A0AD184F861
:101950003F0084F8430014E0012D03D1012B01D195
:10196000012A01D0012070BD84F83E0084F83F00B8
:1019700084F8420084F8430001220021206806F028
:1019800023F901220421206806F01EF9206801686D
:1019900041F001010160002070BD70472DE9F04168
:1019A00004460068C66805694FF00007A90713D50B
:1019B000B10711D5F91E01610120207720688069E7
:1019C0008007204602D0FFF7E8FF04E000F0DCF8D3
:1019D000204600F06EF92777680716D5700714D5F2
:1019E00021686FF004000861022020772068806978
:1019F00010F4407F204602D0FFF7CFFF04E000F054
:101A0000C3F8204600F055F92777280715D5300789
:101A100013D521686FF00800086104202077206842
:101A2000C0698007204602D0FFF7B7FF04E000F04E
:101A3000ABF8204600F03DF92777E80616D5F0060A
:101A400014D521686FF01000086108202077206805
:101A5000C06910F4407F204602D0FFF79EFF04E0EB
:101A600000F092F8204600F024F92777E80708D024
:101A7000F00706D021686FF001000861204600F0F1
:101A80007DF9280608D5300606D521686FF080005C
:101A900008612046FFF702FD680608D5700606D5E6
:101AA00021686FF040000861204600F0B7F9A806F1
:101AB0000AD5B00608D521686FF0200008612046DD
:101AC000BDE8F041FFF7EBBCBDE8F08110B586B092
:101AD000044614216846FEF73EFC2368234C00218F
:101AE00023480222A34212D1036843F0010303609A
:101AF000006800F0010005904FF410600090CDE9FF
:101B000001210120CDE9031069461A4813E01A4C5F
:101B1000A34214D1036843F008030360006800F097
:101B2000080005904FF470400090CDE90121CDE907
:101B3000031269461148FFF77BF806B010BD104C40
:101B4000A342FAD1036843F004030360006800F085
:101B5000040005904FF470700090CDE9012103203E
:101B6000CDE9031069460748E5E7000000000140A1
:101B7000303802400000024000080040000C0240E3
:101B80000004014000080240704770B5044690F818
:101B90003C0000260D4601280FD0012084F83C00AF
:101BA0006AB1042A1DD0082A2FD00C2A3FD0012662
:101BB000002084F83C00304670BD022070BD2068D3
:101BC00006F022F82068816941F0080181612068EF
:101BD000816921F004018161206881692A691143CA
:101BE00011E0206806F040F82068816941F4006146
:101BF00081612068816921F4806181612068816947
:101C00002A6941EA02218161D2E7206806F062F880
:101C10002068C16941F00801C1612068C16921F0F3
:101C20000401C1612068C1692A69114311E020687B
:101C300006F084F82068C16941F40061C161206840
:101C4000C16921F48061C1612068C1692A6941EAE2
:101C50000221C161ACE710B5040003D094F83D0047
:101C600010B107E0012010BD002084F83C002046A0
:101C700000F01EF8022084F83D00211D206805F0C8
:101C800037FF012084F8460084F83E0084F83F00C6
:101C900084F8400084F8410084F8420084F843004E
:101CA00084F8440084F8450084F83D00002010BD0D
:101CB0007047704710B50446022249B104290ED07E
:101CC000082913D094F84100012816D0012010BD36
:101CD00094F83E000128F9D184F83E200FE094F8F2
:101CE0003F000128F2D184F83F2008E094F840003A
:101CF0000128EBD184F8402001E084F84120012242
:101D0000206805F061FF16492068164A884201D014
:101D1000904203D1436C43F40043436420688842FB
:101D200013D0B0F1804F10D00F4988420DD00F4929
:101D300088420AD00E49884207D0904205D00D490A
:101D4000884202D00C49884204D1816801F0070121
:101D5000062903D0016841F001010160002010BD97
:101D60000000014000040140000400400008004061
:101D7000000C0040004001400018004070B50068B1
:101D80001D49884237D1022005F0D0FC1B4D286048
:101D9000032005F0CBFC1A4C4042206005F0A6FD64
:101DA00018480088012801D100F098FC164895EDEC
:101DB000000AD0ED000AB8EEC00A144800F044FB57
:101DC000BDEEC00A124A134882ED000AD0ED000AA7
:101DD00094ED000A0D48B8EEC00A483000F09AFBB6
:101DE000BDEEC00A0C4810EE101A01601068BDE884
:101DF000704005F0B1BC70BD001000400000002034
:101E00000400002054000020100000206402002084
:101E100008000020140000200C0000207047FEE79E
:101E2000F0B5DFF88CE023494FF0010CDEF80070CC
:101E3000D7B10846002302681F4C204D204E9FED6D
:101E4000210A501E012F1ED0022F0CD1002A2CDD9A
:101E500008609FED1D0A84ED000A9FED1C0A00BF7B
:101E600085ED000A3360F0BD002803DD0860CEF880
:101E700000C0F0BDFDDAC0F1000008604FF00200C4
:101E8000CEF80000F0BD002A05DD08609FED100AC5
:101E900084ED000AE4E7F5D184ED000A85ED000A3F
:101EA000CEF80030C6F800C0F0BDF5D0F0BD00009F
:101EB000840000202C0000201000002014000020CE
:101EC0002800002000000000000091C3000096C31D
:101ED000000096432DE9F04F87B014216846FEF7C5
:101EE0003AFA48480024016841F010010160016895
:101EF00001F010010591016841F080010160016865
:101F000001F080010591016841F001010160016863
:101F100001F001010591016841F0040101600168CF
:101F200001F004010591016841F0020101600168BE
:101F300001F002010591016841F0080101600068AB
:101F4000DFF8C49000F00800059000221F214846E9
:101F5000FEF76BFFDFF8B4A04FF47047002239465C
:101F60005046FEF762FFDFF8A8B04FF480780022F9
:101F700041465846FEF759FF1F200126CDE90006CD
:101F8000022569464846CDE90245FEF751FE20206C
:101F900000904FF48810CDE9010469461D48FEF712
:101FA00047FE30208DE8310069461B48FEF740FEB1
:101FB00003208DE8310069465046FEF739FE4FF4A4
:101FC000FF408DE8310069464846FEF731FECDE915
:101FD000007669465046CDE90245FEF729FECDE977
:101FE000008669465846CDE90245FEF721FE0022EB
:101FF00002211720FEF78CFF1720FEF77BFF07B0AA
:10200000BDE8F08F3038024000100240000402406A
:10201000000C0240000002400008024010B596B0DB
:1020200000240F9410941194129413941C21684668
:102030001494FEF790F9202107A8FEF78CF92C489C
:102040002A49C0E9001444F29F11C0E90241046129
:1020500044618461FFF796FA08B1FEF7BEFD4FF4C4
:1020600080500F900FA92248FFF740FB08B1FEF700
:10207000B4FD1F48FFF7EFFD08B1FEF7AEFD139466
:1020800013A91B481494FFF735FA08B1FEF7A5FD14
:102090006020CDE900040294039404940594002286
:1020A000694613480694FFF770FD08B1FEF795FDE9
:1020B0000C2269460E48FFF768FD08B1FEF78DFD5A
:1020C0000794089409944FF400500A94CDE90B400A
:1020D00007A907480E94FFF7E3F908B1FEF77DFD65
:1020E0000348FFF7F3FC16B010BD000000000140EC
:1020F000B400002010B58CB024216846FEF72BF9FF
:102100000024154809944FF080410A94C0E9001456
:102110004FF6FF71C0E90241046184610320CDE9FB
:1021200000040120CDE902040494CDE905400794A0
:10213000694609480894FFF747FB08B1FEF74DFDD3
:10214000099409A904480A94FFF7D4F9002801D09A
:10215000FEF743FD0CB010BDFC00002010B58CB0A4
:1021600024216846FEF7F7F800241648099414491C
:102170000A94C0E900144FF6FF71C0E902410461FE
:1021800084610320CDE900040120CDE90204049418
:10219000CDE90540079469460A480894FFF714FB07
:1021A00008B1FEF71AFD099409A906480A94FFF739
:1021B000A1F9002801D0FEF710FD0CB010BD000001
:1021C000000400404401002010B58EB000240794A4
:1021D000089409940A940B941C2168460C94FEF709
:1021E000BAF82A48284901605321C0E9011444F68D
:1021F0001F61C0E903148461FFF7C4F908B1FEF759
:10220000ECFC4FF48050079007A92048FFF76EFAC6
:1022100008B1FEF7E2FC1D48FFF71DFD08B1FEF70F
:10222000DCFC0B940BA919480C94FFF763F908B177
:10223000FEF7D3FC6020CDE9000402940022694639
:1022400012480494FFF7A1FC08B1FEF7C6FC042273
:1022500069460E48FFF799FC08B1FEF7BEFC08225C
:1022600069460A48FFF791FC08B1FEF7B6FC0C225C
:1022700069460648FFF789FC08B1FEF7AEFC034843
:10228000FFF724FC0EB010BD000800408C010020B8
:102290001CB500240E4800940C49019401605321A0
:1022A000C0E9011442F20F718461C160FFF76AF95D
:1022B00008B1FEF792FC0094694605480194FFF7C7
:1022C00019F9002801D0FEF788FC1CBD0010004061
:1022D000D401002010B596B000240F9410941194EE
:1022E000129413941C2168461494FEF734F82021AC
:1022F00007A8FEF730F8344832490160A721C0E949
:10230000011444F61F61C0E9031444618461FFF7BE
:1023100039F908B1FEF761FC4FF480500F900FA916
:102320002948FFF7E3F908B1FEF757FC2648FFF705
:1023300092FC08B1FEF751FC139413A9224814949F
:10234000FFF7D8F808B1FEF748FC6020CDE900049B
:102350000294039404940594002269461A48069452
:10236000FFF713FC08B1FEF738FC04226946164853
:10237000FFF70BFC08B1FEF730FC08226946124853
:10238000FFF703FC08B1FEF728FC0C2269460E4853
:10239000FFF7FBFB08B1FEF720FC079408940994B3
:1023A0004FF400500A94CDE90B4007A906480E945B
:1023B000FFF776F808B1FEF710FC0348FFF786FB3D
:1023C00016B010BD000401401C020020FEE7000012
:1023D00010B53C210448FFF799FABDE810403C21B4
:1023E0000248FFF793BA0000FC00002044010020DF
:1023F00010B500211148FFF75DFC0C210F48FFF7D5
:1024000059FC0F4C002201212046FEF70EFD002250
:1024100002212046FEF709FD002208212046FEF792
:1024200004FD002210212046FEF7FFFC2046012279
:10243000BDE810400421FEF7F8BC0000B400002005
:1024400000100240FEE7000090B190ED101A80ED00
:10245000111AD0ED0F1AC0ED101AC0ED060A80ED6A
:10246000070A30EEC00A80ED0F0A017819B14BE07F
:102470009FED270A7047D0ED010A20EE801A80ED0B
:10248000091AD0ED0A0A90ED022A42EE000A30EE57
:10249000610AC0ED0A0A90ED0D2A80ED0E2A90ED3A
:1024A0000C2A80ED0D2A80ED0C0AD0ED031A61EEA6
:1024B000801AC0ED0B1A90ED050AF4EEC00AF1EE99
:1024C00010FA09DCB1EE400AF4EEC00AF1EE10FA9F
:1024D00002D390ED0A0A01E080ED0A0A31EE000A0B
:1024E00030EE210A80ED080AD0ED040AB4EEE00ACD
:1024F000F1EE10FA06DCF1EE600AB4EEE00AF1EE5D
:1025000010FA01D2C0ED080A90ED080A70470000E9
:102510000000000090B190ED101A80ED111AD0ED7E
:102520000F1AC0ED101AC0ED060A80ED070A30EE52
:10253000C00A80ED0F0A017819B14BE09FED270A20
:102540007047D0ED010A20EE801A80ED091AD0ED17
:102550000A0A90ED022A42EE000A30EE610AC0ED4E
:102560000A0A90ED0D2A80ED0E2A90ED0C2A80EDDE
:102570000D2A80ED0C0AD0ED031A61EE801AC0ED31
:102580000B1A90ED050AF4EEC00AF1EE10FA09DC20
:10259000B1EE400AF4EEC00AF1EE10FA02D390ED6B
:1025A0000A0A01E080ED0A0A31EE000A30EE210A43
:1025B00080ED080AD0ED040AB4EEE00AF1EE10FA5C
:1025C00006DCF1EE600AB4EEE00AF1EE10FA01D298
:1025D000C0ED080A90ED080A7047000000000000F6
:1025E000DFED0C1A9FED0C2A00B5F0EE610AB0EE9B
:1025F000420A0A4A00210A4800F014F8084800215B
:10260000F0EE610AB0EE420A044A48305DF804EB8D
:1026100000F036B800409C4500C0DA4550B70008CD
:1026200064020020002828D0002A26D0017092EDF4
:10263000001A80ED011A92ED011A80ED021A92ED56
:10264000021A80ED031A80ED040A9FED0C0AC0ED1A
:10265000050A80ED0E0A80ED0D0A80ED0C0A80ED72
:10266000080A80ED0B0A80ED0A0A80ED090A80ED68
:10267000110A80ED100A80ED0F0A7047000000007B
:10268000002828D0002A26D0017092ED001A80ED93
:10269000011A92ED011A80ED021A92ED021A80EDF4
:1026A000031A80ED040A9FED0C0AC0ED050A80EDC7
:1026B0000E0A80ED0D0A80ED0C0A80ED080A80ED0F
:1026C0000B0A80ED0A0A80ED090A80ED110A80EDFF
:1026D000100A80ED0F0A7047000000002DE9FE4F40
:1026E000F748F849F94E00680290B1F900100191DD
:1026F000F549F74FF94AB1F900100091F84DB6F9D4
:102700000010DFF8D093DFF8D0A3D7F800E0B5F9D8
:10271000008013684FF0070B0024E8B18446484658
:10272000BCF1010FB0F900205046B0F9000078D09C
:102730001CF15A0F6DD0DDF808C0BCF15A0F69D0FA
:102740001CF12D0F02F0A280DDF808C0BCF12D0FA6
:1027500002F0B18503F0A1BC23B1DFF880E3012BC7
:1027600024D0F7E7B8F1000F0DD0B8F1010F7BD1FD
:102770005FEA0E00FBD16FF02800FFF751FB3868CD
:10278000012807D0E6E7D74904200880012005F09A
:1027900021FBDFE7D1490120D34A0860A9F80040B6
:1027A0002C803C60308017211180FDE10029DED1B2
:1027B000CE480123C4490380009A012AD7D1DDF80D
:1027C0000480C04AB8F1010F26D00BDC6FF0590C21
:1027D000E04503D06FF02C0CE04509D1B84BC3F8AD
:1027E00000C00CE0B8F12D0F15D0B8F15A0F0DD084
:1027F00003800C80B2480068FDF712FEAAE704804F
:102800000C800221CEF800101480F3E75A2303E075
:1028100007E0EBE3ECE32D23DFF8A4C2CCF80030B3
:10282000EDE7022B08D0032B1FD0042B36D0DFF8A6
:10283000ACE2052B69D08FE0AB490120A6F800B0CF
:102840000880B8F1000F01D107F0D8F9B5F9000000
:10285000002827DA012007F0D1F9288810BB9F480B
:10286000032101602C8077E003E2B8F1000F2DD046
:10287000B8F1010F70D15FEA0E006DD16FF0310039
:10288000FFF7CEFA3868012866D194490420086021
:102890002C8009203C603080012033E011B912B156
:1028A000012A04D058E0002006F070FA54E010B17C
:1028B000012804D050E0162008F0FEFA4CE0B8F1F0
:1028C000000F03D0B8F1010F04D045E0012006F05D
:1028D000E3FF41E05FEA0E003ED16FF02800FFF712
:1028E0009FFA3868012837D17C4805217E4A01606B
:1028F000A9F800402C80AAF8004001203C603080FC
:10290000172111807A49088026E029BB77480123E6
:102910006D490380009A012A1ED1DDF80480694ABE
:10292000B8F1010F2FD00BDC6FF0590CE04503D04C
:102930006FF02C0CE04509D1614BC3F804C018E0DE
:10294000B8F12D0F1ED0B8F15A0F19D003800C80AA
:102950005B484068FDF764FD5948406810F15A0F24
:1029600016D05A286ED010F12D0F6CD02D286BD0B8
:10297000F0E604800C800620CEF800001480E7E723
:102980005A2300E02D23DFF838C1CCF80430F0E7FB
:1029900052480068062809D0DFF8408107281DD07A
:1029A000082832D0C64609286CD0AFE04E49A6F8B8
:1029B00000B001200880288810B9012007F01EF916
:1029C000B5F90000002827DA012007F017F9288858
:1029D00010BB4249C1F800B02C8097E0B5F9000067
:1029E00078B3012818D13868B0B96FF03100FFF71B
:1029F00017FA386801280FD10820C8F800002C8089
:102A000009203C603080012039E0308820B9B9F9D4
:102A1000001011B1012904D078E0002006F0B6F9C9
:102A200074E0BAF9001011B1012904D06EE00C2055
:102A300008F042FA6AE0B5F9000010B1012808D0A8
:102A400064E002E036E16BE2F0E3012006F024FFEF
:102A50005CE0386890BB6FF02800FFF7E1F9386858
:102A6000012853D10921C8F80010A9F800402C8092
:102A7000AAF800401C4A3C603080172111801C4994
:102A8000088043E03088C8B918480F490123038003
:102A90000A88012A3AD10B4AB2F90080B8F1010F35
:102AA00048D027DC6FF0590CE04503D06FF02C0CB8
:102AB000E04525D1024BC3F808C031E026E0000014
:102AC00094000020440000204A0000204200002022
:102AD000280000203E000020200000207000002080
:102AE00040000020240000204C000020480000206E
:102AF0004E000020B8F12D0F1BD0B8F15A0F16D0A0
:102B000003800C80FB488068FDF78AFCF9488068E8
:102B10005A2814D010F12D0F57D02D2876D019E651
:102B200004800C800A20CEF800001480EAE75A23C3
:102B300000E02D23DFF8BCC3CCF80830F0E7DFF865
:102B4000B883D8F800000A2805D00B2819D00C2823
:102B500003F09C80FEE5E949A6F800B0012008805A
:102B6000288810B9012007F049F8B5F900000028BD
:102B7000D5DA012007F042F828880028CFD10B20B1
:102B800045E0B5F90000002803F06982012870D102
:102B900038680028FBD16FF03100FFF741F9386841
:102BA0000128BCD10C2080E2D54990E2B9F900009F
:102BB000002803F06F820128E9D1BAF900306EE1F4
:102BC0001423C8F8003002F05DBDCB4908680A281C
:102BD00003D088460B280ED0FEE2B9F9000090B36E
:102BE0000128D4D1BAF90030002B71D0012BCED1FD
:102BF0000B230B604BE0288878B3F2E3012006F04A
:102C0000FDFF2888002803F03E80A3E529E0C8F8EE
:102C1000000004F034BD00BFB5F900000028B3D0B7
:102C20000128B4D138680028B1D16FF03100FFF726
:102C3000F7F8386801288DD10D20B4E70A460D2831
:102C400003F0018086E527E0B9F900100029B0D033
:102C500001299CD1BAF90030EFE321E0142313607D
:102C6000B1E7A54801680A2904D080460B29C2D0E3
:102C7000F4E33DE1B9F9002072B1012A87D1BAF934
:102C80000030002B70D0012B84D10B230360A9F8F6
:102C900000402C8002F0D4BF002005F0F1FA59E585
:102CA0009649A6F800B001200880FDE302460D29F0
:102CB000C6D04FE59048006806280AD0DFF8388271
:102CC00007283CD0082851D0C64609286BD092E08E
:102CD00067E1B9F9001011B1012909D08BE08749EA
:102CE000A6F800B004200880002005F0C9FA82E0B0
:102CF000BAF9001019B1D046012904D07BE00C20AC
:102D000008F0DAF877E0B5F9000070B3012872D165
:102D1000386840BB6FF02800FFF782F83868012858
:102D200069D17549C1F800B0A9F800402C80A8F815
:102D3000004072493C6030800880042030E03088D8
:102D400088B9288810B9012006F058FFB5F90000AD
:102D5000002850DA012006F051FF288818B9082011
:102D6000C8F800002C8046E03EE105E0B5F900001F
:102D700010B1012804D03EE0012006F08DFD3AE0BC
:102D80003868C0BB6FF03100FFF74AF83868012897
:102D900031D10920C8F800002C803C60308001202F
:102DA0005749088027E0308828BB564856490123F8
:102DB00003800A88012A1ED1544AB2F90080B8F172
:102DC000010F2DD00BDC6FF0590CE04503D06FF0F4
:102DD0002C0CE04509D1474BC3F808C016E0B8F108
:102DE0002D0F1CD0B8F15A0F17D003800C8041482A
:102DF0008068FDF715FB3F48806810F15A0F14D02A
:102E000010F12D0F4FD02D285CD0A3E404800C804E
:102E10000A20CEF800001480E9E75A2300E02D23B1
:102E2000DFF8D0C0CCF80830F0E7334A10680A2841
:102E30000FD1B9F90010002902F01F86012957D1DE
:102E4000BAF90030002B74D050E00B23136004F06B
:102E50002ABC90460B285BD00C2812D1B5F9000093
:102E6000002803F0FC80012842D1386800283FD1B7
:102E70006FF03100FEF7D4FF38680128C5D10D206E
:102E8000EEE10D2802F0128264E400BFB9F90010EF
:102E9000002903F0FF8001292AD1BAF90030002B64
:102EA0007ED003F0B2B8144A10680A28D1D1B9F91B
:102EB00000100029C0D001291AD1BAF90030002B26
:102EC0006FD013E00C4A10680A2805D090460B28F2
:102ED0001ED00C28C2D01FE0B9F900100029ABD0D9
:102EE000012905D1BAF90030002B7DD0012BACD0DF
:102EF000BDE8FE8F94000020700000204C000020F0
:102F00004E000020480000204A000020440000201D
:102F1000308800286BD0EBE70D2802F0B78619E463
:102F2000F8480068062805D0DFF8D8E3072841D024
:102F30006EE090E2B9F9001011B1012909D067E003
:102F4000F149A6F800B004200880002005F098F9A7
:102F50005EE0BAF9001019B1D046012904D057E05B
:102F60000C2007F0A9FF53E0B5F9000010B10128CB
:102F700004D04DE0012006F08FFC49E03868A0BB8A
:102F80006FF02800FEF74CFF3868012840D1DD497A
:102F9000C1F800B0A9F800402C80A8F8004001E07A
:102FA000F8E296E0D8493C6030800880D749042098
:102FB00008802DE03088C0B9D548D6490123038068
:102FC0000A88012A24D1D44AB2F90080B8F1010F4D
:102FD00032D011DC6FF0590CE04503D06FF02C0CAF
:102FE000E0450FD1CD4B04E052E111E0D4E265E1C0
:102FF000F2E3C3F808C015E0B8F12D0F1BD0B8F10B
:103000005A0F16D003800C80C4488068FDF708FA78
:10301000C248806810F15A0F13D05A287AD02D2850
:1030200079D0A5E404800C800820CEF8000014803C
:10303000EAE75A2300E02D23DFF8E0C2CCF808309D
:10304000F0E7B0490868082808D08846092872D0F7
:103050000A2818D00A460B2828D03CE0B9F90020ED
:10306000002A3FF419AE012A7FF455AFBAF90030B7
:103070007BB3DEE109230B6040E2012006F0BEFDD8
:10308000288838B374E4B5F90000002802F0E78717
:103090000128E9D138680028E6D16FF03100FEF749
:1030A000BFFE38680128BCD10B20EFE33088002830
:1030B000DAD1B9F90000002802F0EC870128D3D159
:1030C000BAF90030C6E10C231360A7E08E490880EE
:1030D0000EE705E150E20C2870D00D281CD107E066
:1030E000012006F08BFD2888002802F0DF853FE4F0
:1030F000B5F900000028C9D00128E9D138680028B6
:10310000E6D16FF03100FEF78BFE3868012888D1D8
:103110000E20A5E004E063E00E2802F0C78027E45B
:10312000DFF8E081D8F80000082805D009281AD077
:103130000A282ED04BE0C2E07349A6F800B0042064
:103140000880288810B9012006F058FDB5F9000064
:1031500000283CDA012006F051FD288878BB0921BF
:10316000C8F8001055E5B5F9000060B10128AFD1ED
:1031700038680028ACD16FF03100FEF751FE386896
:10318000012804D023E0012006F086FB1FE00A207E
:1031900066E0308800289BD1B9F9001081B101297F
:1031A00096D1BAF900207AB1012A91D10B22C8F840
:1031B0000020A9F80040AAF80040ECE38FE006E008
:1031C000002005F0E3FD02E0172007F075FED8F8B7
:1031D000000041460B2871D00C287FF42FAD1BE571
:1031E0004849086808280BD08846092867D00A286B
:1031F00024D00A460B283BD00C2870D002F050B8DF
:10320000B9F90020002A3FF447AD012AAFD1BAF93D
:103210000030EBB3012BAAD109230B60A9F80040C1
:10322000AAF80040A6F800B004204FE748E000BF2D
:10323000B5F900000028FFF620AF70E4B5F90000F2
:10324000002802F00C87012891D1386800288ED11F
:103250006FF03100FEF7E4FD38680128EDD10B2056
:10326000C8F800002C8009203C60308004209BE4DA
:10327000308800288FD1B9F90000002802F00A87B1
:10328000012888D1BAF9003053B3012B88D100E06E
:103290000BE10C231360F0E3B5F900000028D0D057
:1032A0000128B3D138680028B0D16FF03100FEF7A3
:1032B000B7FD38680128C0D10E20E7E221E11EE108
:1032C00010480068062804D0DFF838E007284ED000
:1032D00076E0B9F9001021B101290BD070E00FE1BF
:1032E00035E10949A6F800B004200880002004F068
:1032F000C7FF65E0BAF9001091B1D046012913D09B
:103300005EE00000700000204C0000204E00002015
:10331000480000204A0000204400002094000020C3
:103320000C2007F0C9FD4BE0B5F9000010B10128F1
:1033300004D045E0012006F0AFFA41E0386890BBC8
:103340006FF02800FEF76CFD3868012838D1F84985
:10335000C1F800B0A9F800402C80A8F80040F54959
:103360003C6030800880F4490420088028E03088E0
:10337000C8B9F248F249012303800A88012A1FD103
:10338000F04AB2F90080B8F1010F2ED00CDC6FF0DA
:10339000590CE04503D06FF02C0CE0450AD1EA4B04
:1033A000C3F808C016E00BE0B8F12D0F1CD0B8F13F
:1033B0005A0F17D003800C80E3488068FDF730F87F
:1033C000E148806810F15A0F14D05A284BD02D30A4
:1033D0006CD01AE404800C800820CEF80000148021
:1033E000EAE793E05A2300E02D23DFF85CC3CCF832
:1033F0000830EFE7CE490868082811D08846092828
:103400007DD00A283FF43FAE0A460B2816D00C2880
:1034100076D00D283FF463AE0E2802F0378411E415
:10342000B9F90020002A3FF437AC97E0BAF9003030
:10343000DBB3012B3FF41EAE5AE5F0E330880028E1
:10344000FAD1B9F90010002902F024860129F3D13C
:10345000BAF900301BB9162002F027B9FCE3012BA2
:103460003FF431AE44E5DFF8C882D8F80000082800
:1034700006D009281ED00A282FD00B2841D0EDE312
:10348000AC49A6F800B004200880288810B90120B3
:1034900006F0B4FBB5F9000000289ADA012006F026
:1034A000ADFB2888002802E02DE052E034E03FF434
:1034B00056AEAAE4B5F90000002802F0D085012834
:1034C000BAD138680028B7D16FF03100FEF7A8FCF8
:1034D000386801283FF45BAE97E430880028ABD110
:1034E000B9F900100029AFD00129A5D1BAF90030EF
:1034F0007BB3012BA0D10B23C8F80030BDE233E031
:103500003DE0288810B9012006F078FBB5F90000ED
:103510000028FFF673AB78E485490868082819D0BD
:103520008846092820D00A283FF4ADAD0A460B286A
:103530007FF493AD3088002894D1B9F900000028B9
:10354000D1D001288ED1BAF90030002B87D11720B5
:1035500082E707E0B9F90020002AC4D0012A3FF42D
:1035600065AFC5E40D2077E7288800287FF460AEBA
:10357000012006F043FB5BE60A20FFF748BB2888E2
:1035800010B9012006F03AFBB5F900000028FFF65B
:10359000A7AD3AE40B205FE7022B08D0032B3AD00B
:1035A000042B4DD0DFF888E1052B69D08FE012B1F4
:1035B000012A09D08BE05F49A6F800B004200880FA
:1035C000002004F05DFE82E010B1012804D07EE00E
:1035D000162007F071FC7AE0B8F1000F37D0B8F18F
:1035E000010F74D15FEA0E0071D16FF02800FEF771
:1035F00017FC386801286AD14D4803210160A9F8F9
:1036000000402C80AAF800404A4901203C603080EC
:103610000880042031E091BBB8F1000F02D10120F5
:1036200006F0ECFAB5F90000002850DA012006F0A7
:10363000E5FA288818BB3E49042008602C8046E043
:10364000B8F1000F03D0B8F1010F04D03FE0012022
:1036500006F022F93BE05FEA0E0038D16FF031004E
:10366000FEF7DEFB3868012831D1314805210160C1
:103670002C8009203C60308001202F49088026E002
:1036800029BB2E4801232E490380009A012A1ED10E
:10369000DDF804802B4AB8F1010F2ED00BDC6FF05F
:1036A000590CE04503D06FF02C0CE04509D1264BB6
:1036B000C3F804C017E0B8F12D0F1DD0B8F15A0FB0
:1036C00018D003800C8020484068FCF7A9FE1E48F3
:1036D0004068012816D05A287BD010F12D0F79D0E0
:1036E0002D2878D01BE404800C800620CEF8000042
:1036F0001480E8E75A2300E02D23DFF84CC0CCF813
:103700000430F0E70A48006806280BD0DFF8208074
:10371000072831D0082842D009285ED0C6460A289A
:1037200071D0C0E0B9F9000080B1012814D0BAE02E
:10373000700000204C0000204E00002048000020B7
:103740004A0000204400002094000020F749A6F819
:1037500000B00420088048E0BAF9002012B1012A24
:1037600002D0A0E004204BE0F14BC3F800B0A9F870
:103770000040AAF8004096E0288810B9012006F021
:103780003DFAB5F9000000282EDA012006F036FADD
:10379000288848BB0820C8F800002C8083E0B5F9D1
:1037A000000088B301287ED13868E8B96FF0310095
:1037B000FEF736FB3868012875D10921C8F80010DA
:1037C0002C80DC4904203C60308008800120D749EF
:1037D0003DE084E07EE196E286E3308820B9B9F9E5
:1037E000001011B1012904D05DE0002005F0CEFAEF
:1037F00059E0BAF9001011B1012906D053E01620A2
:1038000007F05AFB4FE024E005E0B5F9000010B1E5
:10381000012804D047E0012006F03EF843E0386874
:1038200098BB6FF02800FEF7FBFA386801283AD100
:103830000A20C8F80000A9F800402C80AAF800402F
:103840000120BA4A3C60308017211180B9490880B4
:1038500029E03088C8B9B848B849012303800A88EC
:10386000012A20D1B64AB2F90080B8F1010F29D05F
:103870000DDC6FF0590CE04503D06FF02C0CE045E7
:103880000BD1B04BC3F808C012E00CE012E2B8F163
:103890002D0F16D0B8F15A0F11D003800C80A94813
:1038A0008068FCF7BDFDA74880685A2872D0F0E315
:1038B00004800C800B20CEF800001480EFE75A2320
:1038C00000E02D23DFF87CC2CCF80830F0E7024698
:1038D0000E2902F0B8810AE42D2877D007E4944835
:1038E0000068062809D0DFF84882072836D0082863
:1038F00049D0C64609286BD093E0B9F9001011B140
:10390000012904D08DE0002005F040FA89E0BAF9E1
:10391000001019B1D046012904D082E00C2007F034
:10392000CBFA7EE0B5F9000098B3012879D1386868
:1039300040BB6FF02800FEF773FA3868012870D199
:103940007B49C1F800B0A9F800402C80A8F80040DD
:1039500078493C6030800880042034E0308888B9A1
:10396000288810B9012006F049F9B5F900000028AF
:1039700057DA012006F042F9288818B90820C8F85B
:1039800000002C804DE0B5F9000010B1012807D0EF
:1039900047E001E0E4E195E2012005F07DFF40E031
:1039A000386888BB6FF03100FEF73AFA38680128B2
:1039B00037D10921C8F800102C805E4904203C60F2
:1039C000308008801720594908802AE0F2E3FFE799
:1039D0003088C8B958485949012303800A88012A08
:1039E0001FD1574AB2F90080B8F1010F2DD00CDC7D
:1039F0006FF0590CE04503D06FF02C0CE0450AD174
:103A0000504BC3F808C016E00BE0B8F12D0F1BD0E7
:103A1000B8F15A0F16D003800C804A488068FCF732
:103A2000FFFC48488068012814D010F12D0F32D0D7
:103A30002D283FD0CDE404800C800A20CEF8000071
:103A40001480EAE75A2300E02D23DFF8F8C0CCF811
:103A50000830F0E7364801680A2975D1B9F9002025
:103A6000002A02F01783012A7FF4E6ACBAF900308D
:103A70007BB3012BF8D10B230360A9F80040AAF80F
:103A80000040A6F800B00120FFF720BB02460D2938
:103A900002F0EC829DE4264801680A297ED1B9F93A
:103AA0000020002ADDD0012ADED1BAF90030002B37
:103AB000DFD14CE51E4801680A296FD1B9F9002011
:103AC000002ACED0012ACFD1BAF90030002BD0D1B4
:103AD00048E5F5E11648006806280BD0DFF850806D
:103AE000072832D0082843D009285CD0C6460A28C7
:103AF0006FD0C0E0B9F9000010B1012806D0BAE0DB
:103B00000A49A6F800B00420088054E0BAF9002061
:103B100012B1012A02D0AEE0172057E0044BC3F8DF
:103B200000B0A9F80040AAF80040A4E04C00002032
:103B3000700000204E000020480000204A000020B5
:103B40004400002094000020F3E3288810B90120ED
:103B500006F054F8B5F9000000282BDA012006F031
:103B60004DF8288830BB0820C8F800002C8082E07F
:103B7000B5F9000070B301287DD13868D0B96FF075
:103B80003100FEF74DF93868012874D10921C8F8D1
:103B900000102C8004203C60308000E0FEE3FC49F3
:103BA0000880012038E0308820B9B9F9001011B13F
:103BB000012904D05FE0002005F0E8F85BE0BAF9E5
:103BC000001011B1012906D055E00C2007F074F95E
:103BD00051E025E005E0B5F9000010B1012804D05E
:103BE00049E0012005F058FE45E03868A8BB6FF0B9
:103BF0002800FEF715F9386801283CD10A20C8F8DA
:103C00000000A9F800402C80AAF80040E0490120FB
:103C10003C60308008801720DE4908802BE061E09E
:103C20003088D0B9DC48DD49012303800A88012AA5
:103C300021D1DB4AB2F90080B8F1010F2ED00EDCA1
:103C40006FF0590CE04503D06FF02C0CE0450CD11F
:103C5000D44BC3F808C017E0F8E30CE082E3B8F1F6
:103C60002D0F1AD0B8F15A0F15D003800C80CD4813
:103C70008068FCF7D5FBCB48806801286FD05A28B4
:103C80006ED02D2835D014E404800C800B20CEF8A3
:103C900000001480EBE75A2300E02D23DFF804C373
:103CA000CCF80830F0E700BFB9F90020002A02F094
:103CB000CD81FFE0C8F800002C8009203C603080F6
:103CC0000120FEF771BF02460E2902F0CF8122E4E7
:103CD000B9F90000002802F0DD8101287FF441AC31
:103CE000BAF90030002B3FF455AC012B3EF4B6AFCF
:103CF00037E4AD4801680B2971D100BFB9F9002044
:103D0000002AD4D0F3E3A848006806280BD0DFF8D7
:103D10009882072825D0082836D009284DD0C646D5
:103D20000A287CD0B0E0B9F9001011B1012906D001
:103D3000AAE09849A6F800B00420088045E0BAF946
:103D4000002012B1012A02D09EE00D204AE0964BDD
:103D5000C3F800B0A9F80040AAF8004094E0F7E3E7
:103D600015E1288810B9012005F048FFB5F90000D9
:103D7000002829DA012005F041FF288820BB08200F
:103D8000C8F800002C807FE0B5F9000040B301289E
:103D90007AD13868C0B96FF03100FEF741F8386861
:103DA000012871D10921C8F800102C80784904201D
:103DB0003C603080088001203AE0308820B9B9F9B1
:103DC000001011B1012904D05EE0002004F0DEFFF4
:103DD0005AE0BAF9001021B1012906D054E0EFE30E
:103DE00009E00C2007F068F84EE0B5F9000010B1CA
:103DF000012804D048E0012005F04EFD44E0386879
:103E0000A8BB6FF02800FEF70BF8386801283BD1FB
:103E10000A20C8F80000A9F800402C8000E00AE061
:103E2000AAF800405A4901203C60308008801720E1
:103E30005849088028E03088C8B9574857490123B5
:103E400003800A88012A1FD1554AB2F90080B8F1CF
:103E5000010F2AD00CDC6FF0590CE04503D06FF055
:103E60002C0CE0450AD14F4BC3F808C013E00BE01F
:103E7000B8F12D0F18D0B8F15A0F13D003800C8071
:103E800048488068FCF7CCFA4648806801287DD015
:103E90005A287CD01AE004800C800B20CEF8000059
:103EA0001480EDE75A2300E02D23DFF8F8C0CCF8AA
:103EB0000830F0E7012A7FF41BAFBAF900307BBB72
:103EC0000420FDE3A6F800B00120CEE12D306DD036
:103ED00008E400BFB9F90020002A68D0012AEAD11D
:103EE000BAF90030E3B9E4E5022B08D0032B3BD04C
:103EF000042B61D0DFF8B0E0052B7ED0A0E012B13A
:103F0000012A09D09CE02349A6F800B004200880CB
:103F1000002004F0B5F993E018B1012805D08FE036
:103F2000A7E10C2006F0C8FF8AE0B8F1000F4AD0E4
:103F3000B8F1010F3FD15FEA0E003CD16FF02800CD
:103F4000FDF76EFF386801287AD117480321016018
:103F5000A9F800402C80AAF800400E4901203C60DE
:103F600030800880042044E029BBB8F1000F02D162
:103F7000012005F043FEB5F90000002860DA0120B9
:103F800005F03CFE2888B0B9042011E079E3F3E3A2
:103F90004E0000204C000020480000204A00002075
:103FA00044000020940000207000002040E1EFE376
:103FB000FE4908602C8043E0B8F1000F03D0B8F14F
:103FC000010F04D03CE0012005F066FC38E05FEA18
:103FD0000E0035D16FF03100FDF722FF386801285F
:103FE0002ED1F248052101602C8009203C603080F0
:103FF0000120EF49088023E0FFE709BBED484FF0BF
:10400000010CED49A0F800C0009A012A18D1019BCB
:10401000EA4A012B21D008DC6FF05908434520D033
:104020006FF02C02934204D12BE02D2B32D05A2B6F
:1040300021D0A0F800C00C80E1484068FCF7F0F9FE
:10404000DF484068012827D010F15A0F7DD010F1C9
:104050002D0F7BD02D287AD03DE4D94BC3F804C076
:1040600002E0D74BC3F8048004800C800620CEF811
:1040700000001480E0E7DFF848C35A23CCF804308E
:10408000F2E7CF4B5A6004800C800620CEF8000087
:10409000D2E7C9E02D22F4E7C448006806280BD017
:1040A000DFF80883072823D0082834D009284FD008
:1040B000C6460A287DD0B2E0B9F9001011B1012935
:1040C00006D0ACE0BF49A6F800B00420088047E065
:1040D000BAF9002012B1012A02D0A0E004204AE07F
:1040E000B24BC3F800B0A9F80040AAF8004096E02F
:1040F000288810B9012005F081FDB5F900000028DD
:104100002DDA012005F07AFD288840BB0820C8F888
:1041100000002C8083E0B5F9000078B301287ED13F
:104120003868E0B96FF03100FDF77AFE3868012891
:1041300075D10921C8F800102C809D4904203C60ED
:104140003080088001209F493EE097E0BFE1A7E270
:10415000308820B9B9F9001011B1012904D05EE00E
:10416000002004F013FE5AE0BAF9001011B1012941
:1041700005D054E0162006F09FFE50E005E0B5F9AA
:10418000000010B1012804D049E0012005F084FBB3
:1041900045E03868B0BB6FF02800FDF741FE386895
:1041A00001283CD10A20C8F80000A9F800402C8062
:1041B00001E00BE0F5E3AAF800400120814A3C60F1
:1041C0003080172111807A49088028E03088C8B9EA
:1041D00078487949012303800A88012A1FD1774A48
:1041E000B2F900C0BCF1010F32D00CDC6FF05908FD
:1041F000C44503D06FF02C08C4450AD1704BC3F8F6
:1042000008801BE00BE0BCF12D0F20D0BCF15A0F51
:104210001BD003800C806A488068FCF701F968486D
:10422000806810F15A0F18D010F12D0F7FF454ABA5
:104230005E4801680B293FF44DAE27E204800C80F4
:104240000B20CEF800001480E5E75A2300E02D2370
:10425000DFF86CC1CCF80830F0E7DFF85081D8F80F
:1042600000000B287ED10120308056490880FFF7DE
:1042700048B9012B7FF43CAD0C23EBE04B480068C0
:10428000062809D0DFF82481072836D0082849D02D
:10429000C64609286BD0A3E0B9F9001011B1012975
:1042A00004D09DE0002004F071FD99E0BAF90010FF
:1042B00019B1D046012904D092E0162006F0FCFD89
:1042C0008EE0B5F9000098B301282AD1386840BBC8
:1042D0006FF02800FDF7A4FD3868012821D133498B
:1042E000C1F800B0A9F800402C80A8F8004030497F
:1042F0003C6030800880042033E0308888B928880A
:1043000010B9012005F07AFCB5F90000002867DA41
:10431000012005F073FC288818B90820C8F80000AF
:104320002C805DE0B5F9000010B1012806D057E0FF
:1043300000E072E0012005F0AFFA51E0386870BB90
:104340006FF03100FDF76CFD3868012848D1092174
:10435000C8F800102C80164904203C60308008808A
:10436000172001E0FBE302E01649088038E03088BE
:10437000A8B910481049012303800A88012A2FD1C7
:104380000E4AB2F900C0BCF1010F3DD01CDC6FF049
:104390005908C44506D06FF02C0801E084E01FE006
:1043A000C44517D1064BC3F8088023E070000020F5
:1043B0004E000020480000204A0000204400002059
:1043C000940000204C000020BCF12D0F1BD0BCF14C
:1043D0005A0F16D003800C80FD488068FCF720F847
:1043E000FB488068012814D010F12D0F34D02D28FF
:1043F00056D048E404800C800A20CEF800001480D7
:10440000EAE75A2300E02D23DFF8C4C3CCF80830D4
:10441000F0E7F04801680A2908D080460B293FF4EC
:1044200026AF0C297FF432ABFEF7F6BBB9F90020BA
:10443000002A6FD0012A7FF45BACBAF90030002B60
:104440003FF43EAD012BF6D10B2303E02FE0E24910
:104450000880F5E30360F4E3DE4801680A2908D028
:1044600080460B29DBD00C29DED003460D2970D005
:1044700009E4B9F90020002ADBD0012ADBD1BAF91E
:104480000030002BDED12EE5B9F900100029E0D074
:104490000129D0D1BAF90020F1E314221A60EFE328
:1044A000CC4801680A2906D080460B29B7D00C29D0
:1044B0007EF4FCABB8E7B9F90020002AB9D0012A94
:1044C000B9D1BAF90030002BBCD1FFF74BB8C148C5
:1044D000006806280CD0DFF8FC82072825D00828C1
:1044E00038D009284FD0C6460A286AD0B1E0CEE0BD
:1044F000B9F9000010B1012806D0AAE0B649A6F823
:1045000000B00420088046E0BAF900201AB1012A60
:1045100003D09EE0F3E3172048E0AE4BC3F800B0B1
:10452000A9F80040AAF8004093E0288810B90120BB
:1045300005F064FBB5F9000000282BDA012005F036
:104540005DFB288830BB0820C8F800002C8080E084
:104550008EE1EAE3B5F9000088B3012879D1386823
:10456000C0B96FF03100FDF75BFC3868012870D1ED
:104570000921C8F800102C80984904203C60308044
:104580000880012039E0308820B9B9F9001011B154
:10459000012904D05DE0002004F0F8FB59E0BAF9ED
:1045A000001011B1012904D053E0162006F084FC5C
:1045B0004FE0B5F9000010B1012807D049E001E053
:1045C0005BE11DE0012005F067F942E0386898BB27
:1045D0006FF02800FDF724FC3868012839D10A2043
:1045E000C8F80000A9F800402C80AAF800407B49D8
:1045F00001203C603080088017207749088028E03F
:104600003088C8B976487749012303800A88012A8F
:104610001FD1754AB2F900C0BCF1010F2CD00CDCDF
:104620006FF05908C44503D06FF02C08C4450AD177
:10463000674BC3F8088015E00BE0BCF12D0F1AD0D2
:10464000BCF15A0F15D003800C8061488068FBF7DD
:10465000E7FE5F488068012813D010F15A0F78D028
:10466000FFF73AB904800C800B20CEF800001480CC
:10467000EBE75A2300E02D23DFF854C1CCF80830D3
:10468000F0E7544801680B293FF40EABEDE3012A33
:104690007EF467AFBAF90030002B7FF4EAAD14E77F
:1046A0004C48006806280CD0DFF82881072824D061
:1046B000082835D009284DD0C6460A2869D0BFE061
:1046C000F4E3B9F9001011B1012906D0B8E042496C
:1046D000A6F800B00420088044E0BAF9002012B126
:1046E000012A02D0ACE00D2049E03A4BC3F800B0FB
:1046F000A9F80040AAF80040A2E0288810B90120DB
:1047000005F07CFAB5F9000000282ADA012005F04E
:1047100075FA288828BB0820C8F800002C808FE094
:10472000B5F9000048B301281BD13868C8B96FF04B
:104730003100FDF775FB3868012812D10921C8F84E
:1047400000102C80254904203C6030800880012026
:104750003BE0F2E3308820B9B9F9001011B101292A
:1047600004D06DE0002004F011FB69E0BAF90010FC
:1047700021B1012906D063E0DDE00BE0162006F050
:104780009BFB5DE0B5F9000020B1012806D057E0A1
:10479000B4E22BE0012005F07FF851E03868E8BB77
:1047A0006FF02800FDF73CFB3868012848D10A204B
:1047B000C8F80000A9F800402C80AAF8004007497A
:1047C00001203C603080088017200349088037E0D2
:1047D00094000020700000204C0000204E000020BB
:1047E000480000204A000020440000203088A8B97A
:1047F000F848F949012303800A88012A20D1F74AA1
:10480000B2F900C0BCF1010F2DD00DDC6FF05908DA
:10481000C44505D06FF02C08C44500E010E009D174
:10482000EF4BC3F8088014E0BCF12D0F1AD0BCF197
:104830005A0F15D003800C80E9488068FBF7F0FD23
:10484000E7488068012813D010F15A0F73D0FFF7A2
:104850003DBB04800C800B20CEF800001480EBE7F9
:104860005A2300E02D23DFF878C3CCF80830F0E7B6
:10487000DC4801680B293FF417AA80460C293EF456
:104880007EAE0D297FF41FAAFEF706BD022B0AD0CB
:10489000032B23D0042B35D0052B4DD0DFF844E378
:1048A000062B7DD0A9E012B1012A09D0A5E0CE499E
:1048B000A6F800B001200880002003F0E1FC9CE095
:1048C00010B1012802D098E0172043E0C548032327
:1048D0000360A9F80040AAF800408EE0B8F1000F8C
:1048E00002D1012005F08AF9B5F90000002827DA85
:1048F000012005F083F9288810BBBA49042008601C
:104900002C807AE0B8F1000F2ED0B8F1010F74D1ED
:104910005FEA0E0071D16FF03100FDF781FA38685F
:1049200001286AD1AF48052101602C8009203C6034
:104930003080012037E055E211B912B1012A04D0CC
:104940005BE0002004F022FA57E010B1012804D007
:1049500053E0162006F0B0FA4FE0B8F1000F03D094
:10496000B8F1010F04D048E0012004F095FF44E0C5
:104970005FEA0E0041D16FF02800FDF751FA386868
:1049800001283AD197490620974A0860A9F80040C3
:104990002C80AAF8004001203C603080172101E003
:1049A00004E05DE211809149088026E029BB894836
:1049B000012389490380009A012A1ED1DDF804C031
:1049C000864ABCF1010F2DD00BDC6FF05908C445AD
:1049D00003D06FF02C08C44509D1814BC3F8048083
:1049E00017E0BCF12D0F1CD0BCF15A0F17D003807B
:1049F0000C807B484068FBF713FD7948406801282C
:104A000015D010F15A0F73D05A2872D02D2871D0BA
:104A100090E204800C80CEF800B01480E9E75A23BD
:104A200000E02D23DFF8B8C1CCF80430F1E76D4881
:104A3000006807280BD0DFF8AC81082826D00928A9
:104A400037D00A284CD0C6460B2869D0B1E0B9F956
:104A5000000010B1012809D0ABE06349A6F800B00E
:104A600001200880002003F00BFCA2E0BAF900202E
:104A700012B1012A02D09CE0042047E0594B0822E1
:104A80001A60A9F80040AAF8004092E0288810B9FE
:104A9000012005F0B3F8B5F90000002827DA01205D
:104AA00005F0ACF8288810BB0921C8F800102C804C
:104AB0007FE0B5F9000090B301287AD13868B0B929
:104AC0006FF03100FDF7ACF93868012871D10A2088
:104AD000C8F800002C8009203C60308001203BE0B9
:104AE000308820B9B9F9001029B1012907D060E058
:104AF000C7E0C1E1CAE2002004F048F959E0BAF980
:104B0000001011B1012904D053E00C2006F0D4F9B3
:104B10004FE0B5F9000010B1012806D049E000E0EF
:104B20001EE0012004F0B8FE43E03868A0BB6FF03F
:104B30002800FDF775F9386801283AD10B20C8F82C
:104B40000000A9F800402C80AAF800400120264A65
:104B50003C603080172111802449088029E048E119
:104B60003088C8B91B481C49012303800A88012AE0
:104B70001FD11A4AB2F900C0BCF1010F3BD00CDCC6
:104B80006FF05908C44503D06FF02C08C4450AD112
:104B9000134BC3F8088016E00BE0BCF12D0F29D0B1
:104BA000BCF15A0F24D003800C800D488068FBF7BD
:104BB00037FC0B48806810F15A0F70D05A2845D046
:104BC0002D284DD0B6E104800C800C20CEF80000DA
:104BD0001480EAE7480000204A000020440000203A
:104BE00094000020700000204C0000204E000020A7
:104BF0005A2300E02D23DFF854C4CCF80830E2E754
:104C0000B9F90020002A79D0012A7EF4AAACBAF9B9
:104C10000030002B3EF41FAC012BF6D10D2319E41C
:104C2000012004F0EBFF2888002869D082E100BF52
:104C30006FF03100FDF7F4F83868012873D079E19E
:104C400079E1FBE302460F296ED073E1DFF80084BF
:104C5000D8F800000C286AD00D287EF4DDAB13E6EE
:104C6000FB4801680C2971D1B9F90020002ACAD08B
:104C7000012ACAD1BAF90030002BCDD125E4E7E0F2
:104C8000E3E3F348006807280AD0DFF8C483082864
:104C90001ED0092835D0C6460A2873D09BE0DEE234
:104CA000EC49A6F800B001200880288810B901203E
:104CB00004F0A4FFB5F90000002829DA012004F06F
:104CC0009DFF288820BBE249082008602C8082E0F4
:104CD000B5F9000050B301287DD13868C0B96FF034
:104CE0003100FDF79DF83868012874D10920C8F813
:104CF00000002C803C60308001203FE0D5E2FDE3E5
:104D0000FDE3308820B9B9F9001011B1012904D0B0
:104D100061E0002004F03AF85DE0BAF9001039B122
:104D2000012909D057E0EBE3EBE3EBE30AE029E3E9
:104D30000C2006F0C1F84EE0B5F9000010B10128D2
:104D400005D048E0012004F0A7FD44E08CE238687B
:104D5000A0BB6FF02800FDF763F8386801283AD14E
:104D60000A20C8F80000A9F800402C80AAF80040EA
:104D70000120B84A3C60308017211180B649088074
:104D800029E0FFE73088C8B9B448B549012303805A
:104D90000A88012A1FD1B34AB2F900C0BCF1010F41
:104DA00036D00CDC6FF05908C44503D06FF02C08E6
:104DB000C4450AD1A54BC3F808801FE00BE0BCF145
:104DC0002D0F24D0BCF15A0F1FD003800C809F48B8
:104DD0008068FBF725FB9D48806801281DD05A2874
:104DE0007FF43EACDFF86882D8F800000B283FF46F
:104DF00069A80C287EF445A8FDF70EBF04800C803E
:104E00000B20CEF800001480E1E75A2300E02D23A8
:104E1000DFF838C2CCF80830F0E78D4801680B297C
:104E20003EF442AF80460C293EF4A9AB0D293FF475
:104E30002BAD03460E297DD1308800287EF491AB3E
:104E4000B9F90000002876D00128F7D1BAF900207E
:104E5000002A3EF49FAB012A3FF41FABBDE8FE8F52
:104E60007B4801680B293EF449AF80460C29DBD012
:104E70000D297EF42CAD07E57548006807282DD173
:104E8000B9F9001011B1012909D0A2E07149A6F8C1
:104E900000B004200880002003F0F2F91EE0BAF907
:104EA000001021B1D046012905D092E0EFE30C209B
:104EB00006F002F812E0B5F9000010B1012804D0A4
:104EC00087E0012004F0E8FC08E03868A0BB6FF040
:104ED0002800FCF7A5FF386801280AD05C48016863
:104EE000082916D0804609292DD086460A2948D09F
:104EF0006FE0574908200860A9F800402C80A8F806
:104F00000040544901203C60308008805249042010
:104F10000880308880B9288810B9012004F06EFE1E
:104F2000B5F90000002854DA012004F067FE288853
:104F300010B903E081E2D3E34BE0F4E344480921F4
:104F400001602C8045E0B5F9000010B1012804D0C3
:104F50003FE0012004F0A0FC3BE03868C8BB6FF0E4
:104F60003100FCF75DFF3868012832D10A20C8F80B
:104F700000002C8009203C603749308001200880E7
:104F800027E0308828BB35483549012303800A884B
:104F9000012A1ED1334AB2F900C0BCF1010F2CD056
:104FA0000BDC6FF05908C44503D06FF02C08C445E2
:104FB00009D1264BC3F8088015E0BCF12D0F1BD09A
:104FC000BCF15A0F16D003800C8020488068FBF794
:104FD00027FA1E488068012814D010F15A0F23D0F8
:104FE0002D2845D029E204800C800B20CEF800004B
:104FF0001480EAE75A2300E02D23DFF850C0CCF8F4
:105000000830F0E7124801680B2908D080460C29C7
:105010003EF4B5AA0D297EF456AEFEF769B8B9F98B
:10502000002092B1FEF746BF094801680B2923D141
:10503000B9F900204AB1012A7FF410AFBAF9003063
:10504000002B7FF416A9FEF706BA4EE0940000206C
:10505000700000204C0000204E000020480000207E
:105060004A000020440000200D297EF430ACD4E733
:10507000F64801680B2904D080460C29F4D1FEF7CC
:105080007EBAB9F9002082B3FFF701BBEF48006890
:1050900007280BD0DFF8B483082827D0092838D098
:1050A0000A284DD0C6460B2867D0AEE0B9F90010EB
:1050B00011B1012909D0A8E0E549A6F800B0012006
:1050C0000880002003F0DCF89FE0BAF9002012B15C
:1050D000012A02D099E00D2045E0DC4B08221A603D
:1050E000A9F80040AAF800408FE0FAE3288810B938
:1050F000012004F083FDB5F90000002827DA012023
:1051000004F07CFD288810BB0921C8F800102C8011
:105110007BE0B5F9000078B3012876D13868B0B9E2
:105120006FF03100FCF77CFE386801286DD10A2051
:10513000C8F800002C8009203C603080012038E055
:10514000308820B9B9F9001011B1012904D05CE010
:10515000002003F01BFE58E0BAF9001011B101293C
:1051600004D052E00C2005F0A7FE4EE0B5F9000097
:1051700010B1012806D048E000E01DE0012004F055
:105180008BFB42E0386898BB6FF02800FCF748FEC4
:105190003868012839D10B20C8F80000A9F8004070
:1051A0002C80AAF800400120A94A3C6030801721D9
:1051B0001180A849088028E03088C8B9A648A749C6
:1051C000012303800A88012A1FD1A54AB2F900C031
:1051D000BCF1010F2DD00CDC6FF05908C44503D091
:1051E0006FF02C08C4450AD19E4BC3F8088016E026
:1051F0000BE0BCF12D0F1BD0BCF15A0F16D0038071
:105200000C8098488068FBF70BF996488068012865
:1052100014D010F15A0F22D05A283BD00DE104804F
:105220000C800C20CEF800001480EAE75A2300E03E
:105230002D23DFF830C2CCF80830F0E7834801684E
:105240000C2911D1B9F900207AB3012A7FF406AEF6
:10525000BAF90030002B7FF4DFACFEF731BE7B489B
:1052600001680C293FF4CCAC22E2288810B9012057
:1052700004F0C4FCB5F900000028FFF6D1ACDCE076
:10528000B5F9000088B30128E0D1386800283FF460
:10529000CFACE3E5DFF8B481D8F800000C2871D07A
:1052A0000D283FF4DCACFDF737BFEFE33088002872
:1052B0003DF4ECADD2E5022B0AD0032B24D0042B15
:1052C00036D0052B4DD0DFF884E1062B7ED0A9E047
:1052D00012B1012A0AD0A5E05D49A6F800B001206C
:1052E0000880002002F0CCFF9CE0F6E310B101281A
:1052F00002D097E00D2042E0544803230360A9F850
:105300000040AAF800408DE0B8F1000F02D1012062
:1053100004F074FCB5F90000002826DA012004F03E
:105320006DFC288808BB4949042008602C8079E07E
:10533000B8F1000F2ED0B8F1010F73D15FEA0E0063
:1053400070D16FF03100FCF76BFD3868012869D12E
:105350003E48052101602C8009203C6030800120FE
:1053600036E011B912B1012A04D05BE0002003F04D
:105370000DFD57E010B1012805D053E00C2005F0D9
:105380009BFD4FE065E1B8F1000F03D0B8F1010FCC
:1053900004D047E0012004F07FFA43E05FEA0E000A
:1053A00040D16FF02800FCF73BFD3868012839D167
:1053B00026490620264A0860A9F800402C80AAF851
:1053C000004001203C603080172100E003E01180A4
:1053D0002049088026E029BB1F4801231F4903807C
:1053E000009A012A1ED1DDF804C01D4ABCF1010F4C
:1053F0003DD00BDC6FF05908C44503D06FF02C088A
:10540000C44509D1174BC3F8048018E0BCF12D0F37
:105410002CD0BCF15A0F27D003800C801148406873
:10542000FAF7FEFF0F484068012825D010F15A0F07
:1054300069D05A2868D02D3067D0FAE21CE3048086
:105440000C80CEF800B01480E8E71BE1700000206B
:105450004C0000204E000020480000204A000020A0
:1054600044000020940000205A2300E02D23DFF8A0
:10547000E4C3CCF80430E2E7F748006807280BD013
:10548000DFF8D483082826D009283FD00A2854D032
:10549000C6460B286ED0B4E0B9F9001011B101294D
:1054A00009D0AEE0ED49A6F800B001200880002048
:1054B00002F0E6FEA5E0BAF9002012B1012A02D0FE
:1054C0009FE004204CE0E44B08221A60A9F8004059
:1054D000AAF8004095E0288810B9012004F08EFB5E
:1054E000B5F9000000282FDA012004F087FB288896
:1054F00050BB0921C8F800102C8082E0F1E0F5E3F0
:10550000F5E3A0E3BDE2F1E0C1E2D5E3B5F90000C7
:1055100078B3012875D13868B0B96FF03100FCF765
:105520007FFC386801286CD10A20C8F800002C8064
:1055300009203C603080012038E0308820B9B9F97A
:10554000001011B1012904D05BE0002003F01EFC23
:1055500057E0BAF9001011B1012904D051E016202A
:1055600005F0AAFC4DE0B5F9000010B1012806D005
:1055700047E000E01DE0012004F08EF941E03868CA
:1055800088BB6FF02800FCF74BFC3868012838D145
:105590000B20C8F80000A9F800402C80AAF80040B1
:1055A0000120AE4A3C60308017211180AC49088050
:1055B00027E03088B8B9AB48AB494FF0010CA0F8F0
:1055C00000C00A88012A1CD1A84AB2F90080B8F1AB
:1055D000010F20D008DC6FF05903984526D05B10EE
:1055E000984507D122E00CE0B8F12D0F23D0B8F197
:1055F0005A0F1AD0A0F800C00C8096488068FAF7BD
:105600000FFF9448806810F15A0F16D05A283FD0E7
:105610002D3056D00DE28F4BC3F808C004800C80AB
:105620000C20CEF800001480E7E75A23DFF824C2EC
:10563000CCF80830F2E72D23F8E7DFF81C82D8F821
:1056400000000C2805D00D283FF415AC0E2806D01C
:10565000EFE18249A6F800B0012008800FE530880C
:1056600000287FF416AEB9F90010C9B30129F8D1AA
:10567000BAF90020002A3DF48DAF012AF1D114229D
:10568000C8F80020A9F80040AAF80040F3E30CE0B5
:10569000714801680C296FD00AE0012AE1D1BAF9FA
:1056A0000030002B7FF4B8AA0C2005F005FCC0E107
:1056B00080460D293FF4D9AD0E293FF4E1ADFFF747
:1056C000C1BA654801680C29F2D1B9F9002042B18C
:1056D000012AC6D1BAF90030002BE3D1FDF737BF5C
:1056E000F1E3A6F800B00120FEF7B1BE5A48006809
:1056F000072809D0DFF8608108283ED0092852D059
:10570000C6460A286DD094E0B9F9001011B10129FC
:105710000AD08EE05149A6F800B00420088000208D
:1057200002F0AEFD85E093E2BAF9001019B1D0465F
:10573000012904D07DE0162005F0BEFB79E0B5F923
:10574000000078B3012874D1386850BB6FF028008E
:10575000FCF766FB386801286BD13F4908200860D8
:10576000A9F800402C80A8F800403C4901203C608A
:1057700030800880042031E0FEE3308888B9288832
:1057800010B9012004F03AFAB5F90000002850DA07
:10579000012004F033FA288818B90921C8F800104C
:1057A0002C8046E005E0B5F9000010B1012804D0D6
:1057B0003FE0012004F070F83BE03868C8BB6FF0B0
:1057C0003100FCF72DFB3868012832D10A20C8F8D7
:1057D00000002C8009203C60308001202049088096
:1057E00027E0308828BB1F481F49012303800A880F
:1057F000012A1ED11D4AB2F90080B8F1010F38D03C
:105800000BDC6FF0590CE04503D06FF02C0CE04539
:1058100009D1104BC3F808C012E0B8F12D0F27D002
:10582000B8F15A0F13D003800C800A488068FAF749
:10583000F7FDDFF82080D8F8080001281ED081E0AD
:1058400004800C800B20CEF800001480EDE75A2372
:105850000FE0000094000020700000204C000020A9
:105860004E000020480000204A0000204400002094
:105870002D23DFF8F4C3CCF80830E1E7FB480168DA
:105880000B2907D00C2919D00D292BD002460E293F
:1058900046D0CAE0B9F9002012B1012A06D0C4E00E
:1058A000F349A6F800B00420088041E0BAF90030BE
:1058B0000BB9042044E0012B70D0B6E0288810B961
:1058C000012004F09BF9B5F9000000283ADA012024
:1058D00004F094F9288810BBE4490D2008602C805E
:1058E00030E0CAE0B5F9000010B1012804D09CE016
:1058F000012003F0D1FF25E0386838BB6FF031009C
:10590000FCF78EFA386801281CD1D8490E200860AF
:105910002C8009203C60D74930800420088011E0A9
:10592000308898B9B9F9001011B1012904D07CE090
:10593000002003F02BFA05E0BAF900303BB90B2048
:1059400005F0BAFAD8F808005A2808D06DE0012B03
:1059500071D06AE0A9F80040AAF8004065E0C348A9
:1059600001680B2907D00C291BD00D292CD0024629
:105970000E2947D059E0B9F9002012B1012A06D00A
:1059800053E0BB49A6F800B00420088042E0BAF911
:105990000030002B8FD10C2045E0FFE70C23036083
:1059A000D8E7288810B9012004F028F9B5F90000DB
:1059B00000283ADA012004F021F9288808BBAB4915
:1059C0000D2008602C8030E0B5F9000010B10128EE
:1059D00004D02AE0012003F05FFF26E0386880B998
:1059E0006FF03100FCF71CFA386801281DD19F497F
:1059F0000E2008602C8009203C609E4930800420E5
:105A0000088012E0308880B9B9F9000010B101288F
:105A100004D00AE0002003F0B9F906E0BAF900303A
:105A2000002B94D10B2005F047FAD8F808002D3050
:105A300004D032E3FFE7142313608BE78B4A10682E
:105A40000B280AD090460C283FF408AE0D283DF4F0
:105A50004FAB13460E2814D01FE3B9F9001061B103
:105A600001297FF416ACBAF90030002B3FF436AEB2
:105A7000012BF6D10C231360E0E0A6F800B004205F
:105A800032E6308800283EF4FFAC13E4FAE07748B1
:105A90000068072809D0DFF8D48108281ED009281B
:105AA00032D0C6460A2869D091E07149A6F800B004
:105AB00001200880288810B9012004F09FF8B5F96A
:105AC0000000002827DA012004F098F8288810BB8D
:105AD0006649082008602C8079E0C0E2B5F9000032
