:020000040800F2
:1000000058090020290200084D240008271E000876
:10001000D52300081F04000851AE000800000000AE
:10002000000000000000000000000000117800083F
:10003000DD0A000800000000E57700088978000864
:10004000430200084302000843020008430200087C
:10005000430200084302000843020008430200086C
:10006000430200084302000843020008430200085C
:10007000430200084302000843020008430200084C
:10008000430200084302000843020008430200083C
:10009000430200084302000843020008DD0B000889
:1000A000430200084302000843020008430200081C
:1000B000430200084302000843020008430200080C
:1000C00043020008430200084302000843020008FC
:1000D00043020008430200084302000843020008EC
:1000E00043020008430200084302000843020008DC
:1000F00043020008430200084302000843020008CC
:1001000043020008430200084302000843020008BB
:100110004302000843020008A17B000843020008D4
:10012000430200084302000843020008430200089B
:10013000430200084302000843020008430200088B
:10014000430200084302000843020008430200087B
:10015000430200084302000843020008430200086B
:10016000430200084302000843020008430200085B
:100170004302000843020008430200080000000098
:10018000430200084302000800F002F800F03CF8C7
:100190000AA090E8000C82448344AAF10107DA45E2
:1001A00001D100F031F8AFF2090EBAE80F0013F0F8
:1001B000010F18BFFB1A43F00103184750B50000A8
:1001C00070B50000103A24BF78C878C1FAD8520739
:1001D00024BF30C830C144BF04680C6070470000C1
:1001E0000023002400250026103A28BF78C1FBD840
:1001F000520728BF30C148BF0B6070471FB50BF0D6
:1002000071FA1FBD10B510BD00F0CFF81146FFF711
:10021000F5FF0BF08FF800F0EDF803B4FFF7F2FFF5
:1002200003BC00F0F5F80000094880470948004782
:10023000FEE7FEE7FEE7FEE7FEE7FEE7FEE7FEE796
:10024000FEE7FEE704480549054A064B70470000F3
:10025000217900088901000858030020580900206E
:10026000580500205805002053EA020C00F0698070
:100270002DE9F04B4FF00006002B1FBFB3FA83F5BA
:1002800003FA05F424FA05F65E4012BF1643B2FAEB
:1002900082F502FA05F4C5F120051EBF22FA05FC1D
:1002A00044EA0C04203556EA044C4FEA144418BFC3
:1002B000641C4FF000084FF00009904271EB030CF2
:1002C00039D3002919BFB1FA81F701FA07F6B0FA5C
:1002D00080F700FA07F6C7F120071EBF20FA07FCD7
:1002E00046EA0C062037B6FBF4FCA7EB0507103FE7
:1002F00007F01F0BCBF120060CFA0BFB2CFA06F6CD
:1003000044BFB3460026202FA4BF5E464FF0000B2B
:100310005BEA060C08BF4FF0010B19EB0B09ABFBB6
:10032000027C48EB0608C01B06FB02CC0BFB03CC8F
:1003300071EB0C01C1E70B46024641464846BDE859
:10034000F08B13B54FF000004FF00001AFF30080C9
:10035000BDE81C4070474FF0000200B513469446BC
:100360009646203922BFA0E80C50A0E80C50B1F10D
:100370002001BFF4F7AF090728BFA0E80C5048BF21
:100380000CC05DF804EB890028BF40F8042B08BFBF
:10039000704748BF20F8022B11F0804F18BF00F8BB
:1003A000012B7047704770477047754600F02CF876
:1003B000AE4605006946534620F00700854618B052
:1003C00020B5FFF73FFFBDE820404FF000064FF09B
:1003D00000074FF000084FF0000B21F00701AC467A
:1003E000ACE8C009ACE8C009ACE8C009ACE8C00999
:1003F0008D46704710B50446AFF300802046BDE837
:100400001040FFF70ABF000000487047F4020020C8
:1004100001491820ABBEFEE7260002007047FEE748
:100420000B49B1F900100C2909D00B2909D0042976
:100430000AD017290AD0162905D1064902E0064933
:1004400000E00649086070470549FBE70549F9E700
:10045000240000206C0000205C00002060000020D0
:1004600064000020680000202DE9F043F7486FF099
:100470002C055A26D0F80080F6482D246F0002681B
:10048000F548F349C1460368F4484FF0010CB8F150
:100490005A0F006803D0B9F1010F74D002E12D2B7F
:1004A00002D0012B1DD03CE0012A05D110F15A0FDA
:1004B00023D010F12D0F22D012F15A0F04D10128B0
:1004C0001BD010F12D0F03D012F12D0F03D028E017
:1004D000C1F800C025E010F15A0FF9D001280ED064
:1004E0001FE02D2A05D110F15A0F06D010F12D0F63
:1004F00005D012F15A0F04D008E00D6011E00F6032
:100500000FE02D28F9D010F12D0F03D012F12D0F8F
:1005100002D006E00C6004E010F15A0FFAD02D284A
:10052000EDD013F15A0F1ED1012A02D02D2A0AD084
:100530000EE02D2803D010F12D0F02D008E00D6041
:1005400011E00C600FE00128F9D010F12D0F03D05D
:1005500012F12D0F03D006E0C1F800C003E02D28F2
:10056000FAD00128EDD013F12D0F0BD1012A04D1BF
:1005700010F15A0F0DD02D2816D012F15A0F03D0BA
:100580002D2A08D08EE011E0012802D02D2808D0B5
:1005900088E00C6086E010F15A0F02D0012803D0E9
:1005A00080E0C1F800C07DE00F607BE02D2B02D021
:1005B0005A2B1CD03BE05A2A05D110F15A0F22D0F9
:1005C00010F12D0F21D012F15A0F04D15A281AD050
:1005D00010F12D0F03D012F12D0F02D027E00E6085
:1005E00025E010F15A0FFAD05A280ED01FE02D2A1C
:1005F00005D110F15A0F06D010F12D0F05D012F1D0
:100600005A0F04D008E00D6011E00F600FE02D28B4
:10061000F9D010F12D0F03D012F12D0F02D006E00A
:100620000C6004E010F15A0FFAD02D28EDD013F130
:100630005A0F1DD15A2A02D02D2A0AD00EE02D2899
:1006400003D010F12D0F02D008E00D6010E00C6017
:100650000EE05A28F9D010F12D0F03D012F12D0F12
:1006600002D005E00E6003E02D28FBD05A28EED022
:1006700013F12D0F16D15A2A04D110F15A0F88D038
:100680002D2891D012F15A0F02D02D2A05D009E061
:100690005A28F4D02D280CD004E010F15A0F08D0BD
:1006A0005A2881D019F15A0F05D0B9F12D0F7AD0FF
:1006B00006E10E60F6E72D2B04D05A2B1AD0012B41
:1006C00032D04FE05A2A02D0012A06D00AE001288F
:1006D00035D010F12D0F17D004E05A282FD010F18B
:1006E0002D0F39D012F12D0F3CD1012834D05A28CA
:1006F0000AD037E02D2A02D0012A08D00CE00128C8
:100700001DD010F12D0F07D1C1F800C02AE02D280F
:1007100015D010F12D0F14D012F12D0F22D1012878
:100720000FD02D28F0D01DE05A2A02D02D2A0AD051
:100730000EE02D2803D010F12D0F02D008E00D603F
:1007400010E00C600EE05A28F9D010F12D0F03D004
:1007500012F12D0F02D005E00E6003E02D28FBD032
:100760005A28EED013F12D0F05D15A2A04D0012AB0
:1007700007D02D2A0DD0A3E0012807D02D280FD0B7
:100780009EE05A2802D02D2808D099E00C6097E00E
:1007900009E0012802D05A2802D091E00E608FE0D3
:1007A000C1F800C08CE0012B02D05A2B1CD03CE0D9
:1007B0005A2A05D110F15A0F22D010F12D0F21D055
:1007C00012F15A0F04D15A281AD010F12D0F03D06C
:1007D00012F12D0F02D028E00E6026E010F15A0F22
:1007E000FAD05A280ED020E0012A05D110F15A0F74
:1007F00006D010F12D0F05D012F15A0F04D008E0E9
:100800000D6012E00F6010E00128F9D010F12D0FFB
:1008100003D012F12D0F03D007E0C1F800C004E0AF
:1008200010F15A0FF9D00128ECD013F15A0F29D149
:100830005A2A02D0012A16D01AE0012803D010F15A
:100840002D0F0DD014E00D601CE000005C000020B6
:100850006800002064000020600000206C00002080
:10086000C1F800C00EE05A28EDD010F12D0F03D0D2
:1008700012F12D0F02D005E00E6003E00128FBD03D
:100880005A28EDD013F12D0F1AD15A2A05D110F1A3
:100890005A0F3FF47BAF012811D012F15A0F02D04A
:1008A000012A07D00CE05A283FF47AAF01283FF420
:1008B00075AF05E010F15A0FF9D05A2800D10F603A
:1008C00019F12D0F4CD12D2B02D05A2B19D035E018
:1008D0005A2A04D110F15A0F20D0012821D012F148
:1008E0005A0F02D0012A06D028E05A2816D0012833
:1008F00024D10E6022E010F15A0FFAD05A2810D0FD
:100900001CE02D2A04D110F15A0F07D0012808D07D
:1009100012F15A0F07D0012A0BD00FE0C1F800C026
:100920000CE00F600AE02D28F8D0012806D10C60F9
:1009300004E010F15A0FFAD02D28F2D013F15A0F1B
:1009400004D0012B0CD15A2A19D01DE05A2A09D003
:100950002D2A0FD0012A03D12D2827D05A281FD0A5
:10096000BDE8F0832D2802D0012819D0F8E7C1F89E
:1009700000C0F5E75A28FAD0012817D0F0E710F1A7
:100980005A0F0DD02D2809D012F15A0F0AD02D2A56
:10099000E6D110F15A0F09D05A28E1D10F60DFE7F4
:1009A0000C60DDE75A28FBD02D28D9D10E60D7E79F
:1009B0002DE9F047464F0024464DB7F90000464E5A
:1009C0004FF4FA7A4FF47A79012825D0B8464FF4DB
:1009D000967702282CD04FF4E169032838D00428F8
:1009E0004CD005284AD0062822D0072852D0082803
:1009F00057D0474609285BD00A2860D0112865D116
:100A0000322000F0F1F800F06BF84FF4C87000BF2E
:100A100000F0EAF83C8017E0642000F0E5F80AF006
:100A20000BFC504600F0E0F800F05AF84846EFE7BB
:100A3000384600F0D9F800F053F8484600F0D4F8F2
:100A40000AF0FAFB504620E02C803480322011E07E
:100A5000384600F0C9F800F043F8484600F0C4F802
:100A60000AF0EAFB504600F0BFF8A8F800402C80DE
:100A700034801420BDE8F04700F0B6B8384600F0E6
:100A8000B3F80AF0D9FB504605E000F0ADF8A8F83D
:100A90000040D9E7384600F0A7F800F021F84846B2
:100AA000F3E7C82000F0A0F80AF0C6FB3846ECE7F0
:100AB000322000F099F80AF0BFFB6420A8E732204A
:100AC00000F092F80AF0B8FB5046A1E7BDE8F087C5
:100AD000420000204E00002044000020704700002B
:100AE0001A4B1B4840F2B632B3F9001005291DD04D
:100AF00008DC012911D0022912D0032919D00429B8
:100B000008D110E0172914D0222914D02D2915D08E
:100B1000332916D000201880704740F6020112E0F9
:100B200040F20E610FE04FF4E1710CE040F6C411A9
:100B300009E00260704740F2465104E040F692112D
:100B400001E040F2E2410160704700004E000020E9
:100B50003804014010B500211C4801F0AFF8042111
:100B60001A4801F0ABF80821184801F0A7F80C2149
:100B7000164801F0A3F80021154801F09FF8042160
:100B8000134801F09BF80821114801F097F80C2157
:100B90000F4801F093F80F494FF4AF600860091D4A
:100BA00040F2AA500860091D40F2DC500860091D9F
:100BB000086009490860091D40F602000860091D27
:100BC0004FF448700860091D086010BD8C010020BA
:100BD0001C0200203408004034040140202000F0B2
:100BE0001FB872B6FEE7000070B5044600F026F9A3
:100BF0000546601C02D004480078044400F01EF949
:100C0000401BA042FAD370BD74000020202803D1FD
:100C100002480168491C016070470000580000202C
:100C2000044910B50A68024202D00860FFF7EEFFDF
:100C300010BD0000143C01402DE9F84FDFF8BCA1C5
:100C40000022012503264FF00F090AF1040BAAF137
:100C5000040E00BF0B6805FA02F42340A34270D1D2
:100C60000F7907F00307012F01D0022F16D18768F3
:100C70004FEA420806FA08FC27EA0C07D1F80CC034
:100C80000CFA08FC4CEA070CC0F808C04768A743F8
:100C90000C79C4F3001494403C4344600C79E44361
:100CA000A4070AD0C4684FEA420C06FA0CF7BC430A
:100CB0008F6807FA0CF72743C7600C7904F0030428
:100CC000022C12D1D40800EB840CDCF8204057072A
:100CD000FF0E09FA07F824EA0804D1F8108008FA90
:100CE00007F848EA0408CCF8208004684FEA420C70
:100CF00006FA0CF7BC430F7907F0030707FA0CF765
:100D0000274307604C6814F4403F70D03C4C276880
:100D100047F480472760246822F0030704F48044E6
:100D20000094384C07EB040CDCF8084897074FEAAE
:100D3000177809FA08F7BC43334FB84202D10027AD
:100D400024E054E0314FB84201D101271EE0304F7A
:100D5000B84201D1022719E02E4FB84201D1032732
:100D600014E02D4FB84201D104270FE02B4FB842B9
:100D700001D105270AE02A4FB84201D1062705E034
:100D8000284FB84201D1072700E0082707FA08F7E3
:100D90002743CCF80878DAF800405746D1F804C069
:100DA0009C435FEACC2C00D51C433C60DBF8004040
:100DB0005F46D1F804C09C435FEA8C2C00D51C43ED
:100DC0003C60DEF800407746D1F804C09C435FEAFF
:100DD0008C3C00D51C433C60084F083F3C68D1F870
:100DE00004C09C435FEACC3C00D51C433C60521CD1
:100DF000102AFFF42FAFBDE8F88F0000083C014037
:100E0000443802400030014000000240000402402B
:100E100000080240000C0240001002400014024092
:100E200000180240001C02400069084000D0012068
:100E300070470AB1816170470904FBE70148806887
:100E40007047000074000020024881680278114455
:100E500081607047740000200B4810B5016841F4B0
:100E600000710160016841F480610160016841F432
:100E700080710160032000F06FF8002000F006F898
:100E800000F024F8002010BD003C024070B50D4D6C
:100E900004464FF47A712878B1FBF0F00A490968EA
:100EA000B1FBF0F000F0EAFA48B9102C07D20022AA
:100EB0002146501E00F030F800206C6070BD01200B
:100EC00070BD000074000020800000200A4808B5B2
:100ED000016841F480410160006800F480400090A6
:100EE0000548001F016841F080510160006800F072
:100EF0008050009008BD000044380240002809DB03
:100F000000F01F02012191404009800000F1E02023
:100F1000C0F8001170470000F0B40E4B1B680C467F
:100F2000C3F30223C3F10705042D00D90425191DBD
:100F3000072901D2002300E0DB1E012606FA05F195
:100F4000491E214099409E40761E16403143F0BC18
:100F50000AF062B90CED00E0064900F007020868EB
:100F60004FF6FF03184040EA0220034A104308608E
:100F7000704700000CED00E00000FA052DE9F04795
:100F80000E46050065D0DFF81481D8F80000F7B2EE
:100F900000F00700B04207D288F80070D8F80000CF
:100FA00000F00700B04254D128683D4C810712D5AB
:100FB000400703D5206840F4E050206028780007FF
:100FC00003D5206840F4604020602068A96820F0C4
:100FD000F000084320602878C0072DD030496868A9
:100FE0000839012812D0022813D0032811D009682B
:100FF000890700292DDA216821F0030101432160CE
:10100000FFF71CFF814641F2883A0EE00968890328
:10101000EFE709688901ECE7FFF710FFA0EB090192
:10102000514502D90320BDE8F0872068696800F0C7
:101030000C00B0EB810FEFD1D8F80010404601F062
:101040000701B14207D90770006800F00700B042FD
:1010500001D00120E7E72878400705D52068E96836
:1010600020F4E050084320602878000706D5206867
:10107000296920F4604040EAC100206000F018F8BF
:101080002168084AC1F30311515CC8400649086051
:1010900006480068FFF7FAFE0020C4E7003C024063
:1010A00008380240EEB600088000002078000020DA
:1010B000154810B5006810F00C02144813D0411008
:1010C000042A0FD0082A0ED10F4C241F226823684F
:1010D00002F03F025B0207D52068C0F38810A0FB36
:1010E000010106E0084610BD2168C1F38811A1FB8B
:1010F00000010023FFF7B8F82168C1F30141491C42
:101100004900B0FBF1F010BD083802400024F400A3
:101110002DE9F84F04006ED02078DFF84C93C0071B
:10112000A9F104054AD009F104000168C1F3810165
:10113000012908D00068C0F3810002280AD1D9F83B
:101140000000400206D52868800337D56068002873
:10115000E1D033E06068B0F5803F10D0B0F5A02F4B
:10116000286810D020F480302860286820F480207F
:1011700028606068A8B1FFF761FE06460DE02868A8
:1011800040F48030F4E740F480202860F7E700BFA7
:10119000FFF754FE801B642873D828688003F7D5B6
:1011A0000CE0FFF74BFE064605E000BFFFF746FEEA
:1011B000801B6428F0D828688003F7D42078DFF8F3
:1011C000AC8280074FF0000A3ED5A748001D016899
:1011D00011F00C0F08D00068C0F3810002280BD179
:1011E000D9F80000400207D42868800716D5E068C7
:1011F000012800D112E033E1E068B8B10120C8F85D
:101200000000FFF71BFE064605E000BFFFF716FED5
:10121000801B0228C0D828688007F7D52868216974
:1012200020F0F80040EAC10028600DE0C8F800A0F6
:10123000FFF704FE064604E0FFF700FE801B0228CD
:101240001FD828688007F7D42078000722D5864F5A
:1012500087486169703771B101210160FFF7EEFDC8
:10126000064604E0FFF7EAFD801B022809D838682B
:101270008007F7D50EE0C0F800A0FFF7DFFD0646B7
:1012800005E082E0FFF7DAFD801B02287DD8386890
:101290008007F7D42078400768D5DFF8CCB1002765
:1012A0000BF13C0BDBF80000C0000BD4DBF80010A6
:1012B00041F08051CBF80010DBF80000012700F06E
:1012C000805000906B4E3068C00510D4306840F4F8
:1012D00080703060FFF7B2FD009005E0FFF7AEFDD3
:1012E0000099401A022850D83068C005F6D55E4EE5
:1012F000A0686C3601280FD00528306810D020F087
:1013000001003060306820F004003060A068B8B19F
:10131000FFF794FD00900FE0306840F00100F4E723
:1013200040F004003060F7E7FFF788FD0099411AAC
:1013300041F28830814266D830688007F4D50EE0EB
:10134000FFF77CFD009007E0FFF778FD0099411A58
:1013500041F28830814256D830688007F4D42FB1EA
:10136000DBF8001021F08051CBF80010A069C8B361
:101370003D49091D0968C1F3810102294AD00228AB
:10138000504607D0C8F8600000E03CE0FFF756FD8B
:1013900004463BE04746C8F86000FFF74FFD0646AD
:1013A00005E000BFFFF74AFD801B02282BD8286804
:1013B0008001F7D4D4E907010843A16A2E4A4908FD
:1013C00002EB0141626A41EA8211084394F82C1051
:1013D00040EA0161C9F8001001203866FFF72EFDD0
:1013E000044606E03EE000BFFFF728FD001B022890
:1013F00009D828688001F7D534E000BFFFF71EFD4B
:10140000001B022802D90320BDE8F88F286880015C
:10141000F4D427E00128F7D0D9F80000E26900F4FD
:10142000800191421CD1226A00F03F01914217D104
:1014300047F6C071626A0140B1EB821F10D1A26A07
:101440004FF0FF3300F4403103EB5202B1EB024F97
:1014500006D194F82C1000F07060B0EB016F01D051
:101460000120D1E70020CFE70438024000004742C6
:10147000800E4742007000400000FFFF10B5401E84
:10148000B0F1807F01D3012010BD4FF0E0246061F6
:101490000F21601709F0C0FE0020A0610720206125
:1014A000002010BD7047704710B590F83C20012A0D
:1014B00022D0012280F83C20CA688C6822F4407255
:1014C00022434C6822F4806222430C6822F40062BA
:1014D00022430C6922F4805222434C6922F40052C8
:1014E0002243C969002322F480420A4301684A6406
:1014F00080F83C30002010BD022010BD70B590F87F
:101500003C20012A32D0012480F83C40022280F89D
:101510003D2003685A689D6822F070060A683243CD
:101520005A60134B02689A4214D0B2F1804F11D026
:10153000104B9A420ED0104B9A420BD00F4B9A424E
:1015400008D00F4B9A4205D00E4B9A4202D00E4B58
:101550009A4204D1496825F080031943916080F8CC
:101560003D40002180F83C10084670BD022070BD4F
:10157000000001400004004000080040000C004052
:1015800000040140004001400018004010B5040074
:1015900003D094F83D0010B107E0012010BD0020F9
:1015A00084F83C00204600F01FF8022084F83D003B
:1015B000211D206806F0FAFA012084F8460084F81C
:1015C0003E0084F83F0084F8400084F8410084F82D
:1015D000420084F8430084F8440084F8450084F80D
:1015E0003D00002010BD000008B51D4902681D48DF
:1015F0008A4207D1016841F001010160006800F0F2
:1016000001000BE01749184B091F9A4208D10868DE
:1016100040F004000860086800F00400009008BD75
:10162000124B9A4211D1086840F010000860086817
:10163000002200F01000009001213620FFF76CFC22
:10164000BDE808403620FFF759BC09498A42E6D177
:10165000016841F002010160006800F00200DDE76E
:1016600000000140443802400008004000100040E3
:101670000004014090F83D10012901D0012070477D
:10168000022180F83D100168CA6842F00102CA6078
:1016900000681149884214D0B0F1804F11D00F4931
:1016A00088420ED00E4988420BD00E49884208D09D
:1016B0000D49884205D00D49884202D00C49884224
:1016C00004D1816801F00701062903D0016841F0C7
:1016D000010101600020704700000140000400404B
:1016E00000080040000C00400004014000400140A0
:1016F0000018004070B5044690F83C000025012811
:1017000017D0012684F83C60022084F83D00206850
:10171000826822F0770222F47F42826008685028B3
:1017200038D00DDC20284FD005DC90B3102811D123
:101730004AE0022070BD302846D040280AD13BE064
:1017400060282FD070280DD0B0F5805F03D0B0F5A1
:10175000005F12D0012584F83D60002084F83C0031
:10176000284670BDCB68D1E90121206806F097FAC0
:101770002068816841F0770109E0CB68D1E9012157
:10178000206806F08CFA2068816841F4804181600D
:10179000E1E719E0CA684968206806F055FB502166
:1017A000206806E0CA684968206806F05EFB602190
:1017B000206806F07EFACEE7CA684968206806F01D
:1017C00043FB40212068F4E7226801461046F0E719
:1017D0002DE9F0410D46040003D094F83D0018B106
:1017E00008E00120BDE8F081002084F83C0020469C
:1017F00000F040F8022084F83D002068816844F23F
:10180000070291438160211D206806F0CFF922680C
:1018100090689169166A2B68AF69034340F2033000
:10182000814341EA0721A868EF6908434FF6FC416C
:101830008843E96840EA0720014328692F6A0001CC
:1018400040EA0730084369686D6926F0AA0646EA4F
:101850000515294393602268906154F8460B016294
:10186000012004F81F09E0752076E0762077A07546
:101870000020B7E770B586B0044614216846FEF72D
:101880006AFD214A256800231F49103A02241F4897
:10189000B5F1804F1ED01E4EB54219D10D6845F0EE
:1018A00002050D60096801F002010591116841F01F
:1018B00001011160116801F001010591C021009141
:1018C000CDE90143CDE90334694600BFFFF7B4F920
:1018D00006B070BD0D6845F001050D60096801F0A6
:1018E00001010591116841F001011160116801F0D9
:1018F0000101059103210091CDE901430121CDE9C9
:1019000003316946E2E7000040380240000002402F
:101910000004004070B590F83E60044690F83F50D7
:1019200090F8423090F84320022021B104290ED0D3
:10193000012E1BD114E0012E18D1012B16D184F8F1
:101940003E0084F8420001220021206820E0012DA1
:101950000CD1012A0AD184F83F0084F8430014E036
:10196000012D03D1012B01D1012A01D0012070BD2D
:1019700084F83E0084F83F0084F8420084F8430075
:1019800001220021206806F07DF90122042120684F
:1019900006F078F92068016841F00101016000203B
:1019A00070BD70472DE9F04104460068C6680569BE
:1019B0004FF00007A90713D5B10711D5F91E016132
:1019C00001202077206880698007204602D0FFF739
:1019D000E8FF04E000F0DCF8204600F06EF927771D
:1019E000680716D5700714D521686FF004000861E8
:1019F000022020772068806910F4407F204602D0C2
:101A0000FFF7CFFF04E000F0C3F8204600F055F9DF
:101A10002777280715D5300713D521686FF0080000
:101A20000861042020772068C0698007204602D022
:101A3000FFF7B7FF04E000F0ABF8204600F03DF9F7
:101A40002777E80616D5F00614D521686FF0100048
:101A50000861082020772068C06910F4407F204684
:101A600002D0FFF79EFF04E000F092F8204600F05D
:101A700024F92777E80708D0F00706D021686FF02F
:101A800001000861204600F07DF9280608D53006DF
:101A900006D521686FF0800008612046FFF702FD3F
:101AA000680608D5700606D521686FF04000086109
:101AB000204600F0B7F9A8060AD5B00608D5216877
:101AC0006FF0200008612046BDE8F041FFF7EBBC55
:101AD000BDE8F08110B586B0044614216846FEF7D3
:101AE0003AFC2368234C002123480222A34212D14E
:101AF000036843F001030360006800F001000590F3
:101B00004FF410600090CDE901210120CDE90310D0
:101B100069461A4813E01A4CA34214D1036843F0F3
:101B200008030360006800F0080005904FF470405F
:101B30000090CDE90121CDE9031269461148FFF774
:101B40007BF806B010BD104CA342FAD1036843F0F5
:101B500004030360006800F0040005904FF4707007
:101B60000090CDE901210320CDE903106946074823
:101B7000E5E700000000014030380240000002406C
:101B800000080040000C0240000401400008024030
:101B9000704770B5044690F83C0000260D460128B9
:101BA0000FD0012084F83C006AB1042A1DD0082A15
:101BB0002FD00C2A3FD00126002084F83C0030466C
:101BC00070BD022070BD206806F07CF82068816935
:101BD00041F0080181612068816921F0040181617F
:101BE000206881692A69114311E0206806F09AF89B
:101BF0002068816941F4006181612068816921F474
:101C000080618161206881692A6941EA02218161DC
:101C1000D2E7206806F0BCF82068C16941F00801ED
:101C2000C1612068C16921F00401C1612068C169F6
:101C30002A69114311E0206806F0DEF82068C169C6
:101C400041F40061C1612068C16921F48061C16112
:101C50002068C1692A6941EA0221C161ACE710B577
:101C6000040003D094F83D0010B107E0012010BD3E
:101C7000002084F83C00204600F01EF8022084F882
:101C80003D00211D206805F091FF012084F84600E9
:101C900084F83E0084F83F0084F8400084F8410056
:101CA00084F8420084F8430084F8440084F8450036
:101CB00084F83D00002010BD7047704710B5044601
:101CC000022249B104290ED0082913D094F841000A
:101CD000012816D0012010BD94F83E000128F9D14A
:101CE00084F83E200FE094F83F000128F2D184F8F8
:101CF0003F2008E094F840000128EBD184F8402010
:101D000001E084F841200122206805F0BBFF16495C
:101D10002068164A884201D0904203D1436C43F4B4
:101D2000004343642068884213D0B0F1804F10D044
:101D30000F4988420DD00F4988420AD00E49884287
:101D400007D0904205D00D49884202D00C49884204
:101D500004D1816801F00701062903D0016841F030
:101D600001010160002010BD00000140000401409D
:101D70000004004000080040000C0040004001400A
:101D80000018004070B500681D49884237D1022014
:101D900005F02AFD1B4D2860032005F025FD1A4C97
:101DA0004042206005F000FE18480088012801D15B
:101DB00000F098FC164895ED000AD0ED000AB8EE48
:101DC000C00A144800F044FBBDEEC00A124A134892
:101DD00082ED000AD0ED000A94ED000A0D48B8EE3D
:101DE000C00A483000F09AFBBDEEC00A0C4810EE65
:101DF000101A01601068BDE8704005F00BBD70BDA1
:101E000000100040000000200400002054000020CA
:101E100010000020640200200800002014000020B0
:101E20000C0000207047FEE7F0B5DFF88CE0234996
:101E30004FF0010CDEF80070D7B1084600230268AD
:101E40001F4C204D204E9FED210A501E012F1ED009
:101E5000022F0CD1002A2CDD08609FED1D0A84EDB5
:101E6000000A9FED1C0A00BF85ED000A3360F0BD3B
:101E7000002803DD0860CEF800C0F0BDFDDAC0F137
:101E8000000008604FF00200CEF80000F0BD002A0C
:101E900005DD08609FED100A84ED000AE4E7F5D146
:101EA00084ED000A85ED000ACEF80030C6F800C0C7
:101EB000F0BDF5D0F0BD0000840000202C00002013
:101EC0001000002014000020280000200000000066
:101ED000000091C3000096C3000096432DE9F04F27
:101EE00087B014216846FEF736FA48480024016896
:101EF00041F010010160016801F0100105910168D5
:101F000041F080010160016801F0800105910168E4
:101F100041F001010160016801F0010105910168D2
:101F200041F004010160016801F0040105910168BC
:101F300041F002010160016801F0020105910168B0
:101F400041F0080101600068DFF8C49000F008006B
:101F5000059000221F214846FEF76BFFDFF8B4A072
:101F60004FF47047002239465046FEF762FFDFF813
:101F7000A8B04FF48078002241465846FEF759FF3A
:101F80001F200126CDE90006022569464846CDE915
:101F90000245FEF751FE202000904FF48810CDE955
:101FA000010469461D48FEF747FE30208DE83100E8
:101FB00069461B48FEF740FE03208DE83100694664
:101FC0005046FEF739FE4FF4FF408DE83100694678
:101FD0004846FEF731FECDE9007669465046CDE928
:101FE0000245FEF729FECDE9008669465846CDE94F
:101FF0000245FEF721FE002202211720FEF78CFF8A
:102000001720FEF77BFF07B0BDE8F08F30380240A5
:102010000010024000040240000C02400000024098
:102020000008024010B596B000240F94109411944B
:10203000129413941C2168461494FEF78CF9202105
:1020400007A8FEF788F92C482A49C0E9001444F291
:102050009F11C0E90241046144618461FFF796FA6F
:1020600008B1FEF7BEFD4FF480500F900FA9224833
:10207000FFF740FB08B1FEF7B4FD1F48FFF7EFFD87
:1020800008B1FEF7AEFD139413A91B481494FFF793
:1020900035FA08B1FEF7A5FD6020CDE900040294F1
:1020A0000394049405940022694613480694FFF7AC
:1020B00070FD08B1FEF795FD0C2269460E48FFF74A
:1020C00068FD08B1FEF78DFD0794089409944FF45C
:1020D00000500A94CDE90B4007A907480E94FFF77A
:1020E000E3F908B1FEF77DFD0348FFF7F3FC16B0F6
:1020F00010BD000000000140B400002010B58CB0FD
:1021000024216846FEF727F90024154809944FF06A
:1021100080410A94C0E900144FF6FF71C0E9024102
:10212000046184610320CDE900040120CDE90204AB
:102130000494CDE905400794694609480894FFF7DF
:1021400047FB08B1FEF74DFD099409A904480A941C
:10215000FFF7D4F9002801D0FEF743FD0CB010BD05
:10216000FC00002010B58CB024216846FEF7F3F87F
:1021700000241648099414490A94C0E900144FF643
:10218000FF71C0E90241046184610320CDE90004CC
:102190000120CDE902040494CDE905400794694685
:1021A0000A480894FFF714FB08B1FEF71AFD0994DA
:1021B00009A906480A94FFF7A1F9002801D0FEF703
:1021C00010FD0CB010BD00000004004044010020D0
:1021D00010B58EB000240794089409940A940B94C7
:1021E0001C2168460C94FEF7B6F82A48284901607D
:1021F0005321C0E9011444F61F61C0E9031484614E
:10220000FFF7C4F908B1FEF7ECFC4FF480500790DB
:1022100007A92048FFF76EFA08B1FEF7E2FC1D4857
:10222000FFF71DFD08B1FEF7DCFC0B940BA9194864
:102230000C94FFF763F908B1FEF7D3FC6020CDE9F9
:10224000000402940022694612480494FFF7A1FC9E
:1022500008B1FEF7C6FC042269460E48FFF799FC58
:1022600008B1FEF7BEFC082269460A48FFF791FC58
:1022700008B1FEF7B6FC0C2269460648FFF789FC58
:1022800008B1FEF7AEFC0348FFF724FC0EB010BD0A
:10229000000800408C0100201CB500240E4800946A
:1022A0000C49019401605321C0E9011442F20F71FD
:1022B0008461C160FFF76AF908B1FEF792FC0094EF
:1022C000694605480194FFF719F9002801D0FEF787
:1022D00088FC1CBD00100040D401002010B596B051
:1022E00000240F9410941194129413941C216846A6
:1022F0001494FEF730F8202107A8FEF72CF8344894
:1023000032490160A721C0E9011444F61F61C0E908
:10231000031444618461FFF739F908B1FEF761FCE9
:102320004FF480500F900FA92948FFF7E3F908B147
:10233000FEF757FC2648FFF792FC08B1FEF751FC68
:10234000139413A922481494FFF7D8F808B1FEF7A4
:1023500048FC6020CDE900040294039404940594A1
:10236000002269461A480694FFF713FC08B1FEF7ED
:1023700038FC042269461648FFF70BFC08B1FEF74B
:1023800030FC082269461248FFF703FC08B1FEF74B
:1023900028FC0C2269460E48FFF7FBFB08B1FEF74C
:1023A00020FC0794089409944FF400500A94CDE956
:1023B0000B4007A906480E94FFF776F808B1FEF720
:1023C00010FC0348FFF786FB16B010BD0004014067
:1023D0001C020020FEE7000010B53C210448FFF776
:1023E00099FABDE810403C210248FFF793BA00007B
:1023F000FC0000204401002010B500211148FFF727
:102400005DFC0C210F48FFF759FC0F4C0022012105
:102410002046FEF70EFD002202212046FEF709FDB0
:10242000002208212046FEF704FD0022102120464C
:10243000FEF7FFFC20460122BDE810400421FEF714
:10244000F8BC0000B400002000100240FEE70000CD
:1024500090B190ED101A80ED111AD0ED0F1AC0ED69
:10246000101AC0ED060A80ED070A30EEC00A80EDB2
:102470000F0A017819B14BE09FED270A7047D0EDA4
:10248000010A20EE801A80ED091AD0ED0A0A90EDBB
:10249000022A42EE000A30EE610AC0ED0A0A90ED0F
:1024A0000D2A80ED0E2A90ED0C2A80ED0D2A80ED8C
:1024B0000C0AD0ED031A61EE801AC0ED0B1A90EDF4
:1024C000050AF4EEC00AF1EE10FA09DCB1EE400A9A
:1024D000F4EEC00AF1EE10FA02D390ED0A0A01E020
:1024E00080ED0A0A31EE000A30EE210A80ED080A7A
:1024F000D0ED040AB4EEE00AF1EE10FA06DCF1EEDB
:10250000600AB4EEE00AF1EE10FA01D2C0ED080A5A
:1025100090ED080A704700000000000090B190EDB7
:10252000101A80ED111AD0ED0F1AC0ED101AC0ED7F
:10253000060A80ED070A30EEC00A80ED0F0A017826
:1025400019B14BE09FED270A7047D0ED010A20EE4C
:10255000801A80ED091AD0ED0A0A90ED022A42EEA7
:10256000000A30EE610AC0ED0A0A90ED0D2A80EDF6
:102570000E2A90ED0C2A80ED0D2A80ED0C0AD0ED8C
:10258000031A61EE801AC0ED0B1A90ED050AF4EE05
:10259000C00AF1EE10FA09DCB1EE400AF4EEC00A0E
:1025A000F1EE10FA02D390ED0A0A01E080ED0A0A7A
:1025B00031EE000A30EE210A80ED080AD0ED040A5F
:1025C000B4EEE00AF1EE10FA06DCF1EE600AB4EEC9
:1025D000E00AF1EE10FA01D2C0ED080A90ED080A07
:1025E0007047000000000000DFED0C1A9FED0C2A80
:1025F00000B5F0EE610AB0EE420A0A4A00210A482C
:1026000000F014F808480021F0EE610AB0EE420A2A
:10261000044A48305DF804EB00F036B800409C45B1
:1026200000C0DA4500B7000864020020002828D066
:10263000002A26D0017092ED001A80ED011A92ED69
:10264000011A80ED021A92ED021A80ED031A80ED54
:10265000040A9FED0C0AC0ED050A80ED0E0A80ED1C
:102660000D0A80ED0C0A80ED080A80ED0B0A80ED62
:102670000A0A80ED090A80ED110A80ED100A80ED4A
:102680000F0A704700000000002828D0002A26D03A
:10269000017092ED001A80ED011A92ED011A80EDA1
:1026A000021A92ED021A80ED031A80ED040A9FEDE2
:1026B0000C0AC0ED050A80ED0E0A80ED0D0A80EDD2
:1026C0000C0A80ED080A80ED0B0A80ED0A0A80ED05
:1026D000090A80ED110A80ED100A80ED0F0A70479B
:1026E000000000002DE9FE4FF748F849F94E006858
:1026F0000290B1F900100191F549F74FF94AB1F98B
:1027000000100091F84DB6F90010DFF8D093DFF813
:10271000D0A3D7F800E0B5F9008013684FF0070B9D
:102720000024E8B184464846BCF1010FB0F900200E
:102730005046B0F9000078D01CF15A0F6DD0DDF88A
:1027400008C0BCF15A0F69D01CF12D0F02F0218195
:10275000DDF808C0BCF12D0F02F04D8603F0FABC85
:1027600023B1DFF880E3012B24D0F7E7B8F1000FA5
:102770000DD0B8F1010F7BD15FEA0E00FBD16FF0F5
:102780002800FFF751FB3868012807D0E6E7D74952
:1027900004200880012005F07BFBDFE7D149012000
:1027A000D34A0860A9F800402C803C603080172193
:1027B0001180FDE10029DED1CE480123C449038008
:1027C000009A012AD7D1DDF80480C04AB8F1010F80
:1027D00026D00BDC6FF0590CE04503D06FF02C0CC9
:1027E000E04509D1B84BC3F800C00CE0B8F12D0F9B
:1027F00015D0B8F15A0F0DD003800C80B248006894
:10280000FDF70EFEAAE704800C800221CEF800102E
:102810001480F3E75A2303E007E0F4E3F4E32D2305
:10282000DFF8A4C2CCF80030EDE7022B08D0032B70
:102830001FD0042B36D0DFF8ACE2052B69D08FE037
:10284000AB490120A6F800B00880B8F1000F01D113
:1028500007F0A2F9B5F90000002827DA012007F0F7
:102860009BF9288810BB9F48032101602C8077E0EA
:1028700000E2B8F1000F2DD0B8F1010F70D15FEA7E
:102880000E006DD16FF03100FFF7CEFA38680128E5
:1028900066D19449042008602C8009203C60308077
:1028A000012033E011B912B1012A04D058E0002010
:1028B00006F0CAFA54E010B1012804D050E0162006
:1028C00008F0C8FA4CE0B8F1000F03D0B8F1010FDE
:1028D00004D045E0012007F03DF841E05FEA0E003A
:1028E0003ED16FF02800FFF79FFA3868012837D1F2
:1028F0007C4805217E4A0160A9F800402C80AAF896
:10290000004001203C603080172111807A49088006
:1029100026E029BB774801236D490380009A012AEC
:102920001ED1DDF80480694AB8F1010F2FD00BDC0D
:102930006FF0590CE04503D06FF02C0CE04509D145
:10294000614BC3F804C018E0B8F12D0F1ED0B8F1E8
:102950005A0F19D003800C805B484068FDF760FD7A
:102960005948406810F15A0F16D05A286ED010F10D
:102970002D0F6CD02D286BD0F0E604800C80062043
:10298000CEF800001480E7E75A2300E02D23DFF89B
:1029900038C1CCF80430F0E752480068062809D066
:1029A000DFF8408107281DD0082832D0C646092804
:1029B0006CD0AFE04E49A6F800B00120088028880E
:1029C00010B9012007F0E8F8B5F90000002827DA6F
:1029D000012007F0E1F8288810BB4249C1F800B097
:1029E0002C8097E0B5F9000078B3012818D1386839
:1029F000B0B96FF03100FFF717FA386801280FD12E
:102A00000820C8F800002C8009203C60308001209C
:102A100039E0308820B9B9F9001011B1012904D08A
:102A200078E0002006F010FA74E0BAF9001011B155
:102A3000012904D06EE00C2008F00CFA6AE0B5F928
:102A4000000010B1012808D064E002E01FE147E275
:102A5000FDE3012006F07EFF5CE0386890BB6FF07C
:102A60002800FFF7E1F93868012853D10921C8F897
:102A70000010A9F800402C80AAF800401C4A3C60D5
:102A80003080172111801C49088043E03088C8B984
:102A900018480F49012303800A88012A3AD10B4ABA
:102AA000B2F90080B8F1010F48D027DC6FF0590C63
:102AB000E04503D06FF02C0CE04525D1024BC3F864
:102AC00008C031E026E0000094000020460000200D
:102AD0004C00002042000020280000203E00002082
:102AE0002000002070000020400000202400002072
:102AF0004E0000204A00002044000020B8F12D0FB5
:102B00001BD0B8F15A0F16D003800C80F9488068AA
:102B1000FDF786FCF74880685A2814D010F12D0F75
:102B200056D02D286FD019E604800C800A20CEF8EC
:102B300000001480EAE75A2300E02D23DFF8B4C335
:102B4000CCF80830F0E7DFF8B083D8F800000A28A6
:102B500005D00B2819D00C2803F0FE80FEE5E749CC
:102B6000A6F800B001200880288810B9012007F0DD
:102B700013F8B5F900000028D5DA012007F00CF8A9
:102B800028880028CFD10B2046E0B5F900000028A6
:102B900003F0D18201286DD1386800286AD16FF026
:102BA0003100FFF741F938680128BCD10C206EE2F2
:102BB000D3497EE2B9F90010002903F0C882012947
:102BC00058D1BAF9003072E11423C8F80030F6E3A6
:102BD000C94908680A2810D1B9F9000090B3012842
:102BE00048D1BAF90030002B75D041E00B230B60BF
:102BF000A9F800402C8002F0BDBB88460B286BD1A1
:102C00002888C8B3FCE326E0012006F0C5FF288829
:102C1000002803F09E80A1E5C8F8000004F08CBDF8
:102C2000B5F900000028B3D0012823D13868002866
:102C300020D16FF03100FFF7F7F8386801288DD107
:102C40000D20B4E719E00A460D2803F07B8285E5E4
:102C500014231360BBE7A84908680A28CDD1B9F945
:102C6000000050B1012805D1BAF90030002B70D016
:102C7000012BBBD0BDE8FE8F03E0002005F05EFB1A
:102C80006CE59E49A6F800B001200880F8E39A4858
:102C90000068062809D0DFF8608207283DD00828A0
:102CA00050D0C64609286CD093E0B9F9001011B194
:102CB000012909D08DE09149A6F800B004200880D0
:102CC000002005F03BFB84E0BAF9001029B1D046A2
:102CD000012906D07DE058E16BE20C2008F0BAF83B
:102CE00077E0B5F9000098B3012872D1386840BB8D
:102CF0006FF02800FFF798F83868012869D17E49FD
:102D0000C1F800B0A9F800402C80A8F800407B4929
:102D10003C6030800880042030E0308888B9288802
:102D200010B9012006F038FFB5F90000002850DA8C
:102D3000012006F031FF288818B90820C8F80000E3
:102D40002C8046E0B5F9000010B1012806D040E023
:102D500000E038E1012006F0FDFD3AE03868C0BB34
:102D60006FF03100FFF760F83868012831D1092091
:102D7000C8F800002C803C60308001206049088049
:102D800027E0308828BB5F485F49012303800A8819
:102D9000012A1ED15D4AB2F90080B8F1010F2DD091
:102DA0000BDC6FF0590CE04503D06FF02C0CE045C4
:102DB00009D1504BC3F808C016E0B8F12D0F1CD054
:102DC000B8F15A0F17D003800C804A488068FDF78D
:102DD00027FB4848806810F15A0F14D010F12D0FCE
:102DE00043D02D2867D0B9E404800C800A20CEF8A7
:102DF00000001480E9E75A2300E02D23DFF8F4C037
:102E0000CCF80830F0E73C4A10680A2810D1B9F92C
:102E10000000002802F0AD8601287FF42BAFBAF93C
:102E20000030002B65D054E00B23136004F098BCF5
:102E300090460B2850D00C2813D100BFB5F90000E4
:102E4000002803F078810128E7D138680028E4D110
:102E50006FF03100FEF7E8FF38680128C3D10D207C
:102E6000F4E10D2802F0788778E4234A10680A28F4
:102E700008D090460B282FD00C28DFD00D2802F068
:102E800066806BE4B9F900100029C3D00129C4D1D0
:102E9000BAF90030002B78D01BE000BFB9F9000070
:102EA000002803F054810128B7D1BAF90030002B73
:102EB0006CD003F021B9104A10680A28B8D1B9F9CA
:102EC00000100029A6D00129A7D1BAF90030002BA3
:102ED00079D0012BA8D0CDE63088002875D0C9E67E
:102EE00005480068062813D0DFF80CE007284ED00C
:102EF00078E0A1E294000020700000204E00002045
:102F0000440000204A0000204C0000204600002021
:102F1000B9F9001011B1012909D063E0F949A6F807
:102F200000B004200880002005F008FA5AE0BAF941
:102F3000001019B1D046012904D053E00C2007F04D
:102F400089FF4FE0B5F9000010B1012804D049E035
:102F5000012006F0FFFC45E03868A8BB6FF02800B0
:102F6000FEF762FF386801283CD1E749C1F800B09C
:102F7000A9F800402C80A8F80040E2493C6030806D
:102F80000880E249042008802CE0D8E00FE3308874
:102F9000D0B9DF48DF49012303800A88012A21D103
:102FA000DD4AB2F900C0BCF1010F31D00EDC6FF088
:102FB0005908C44503D06FF02C08C4450CD1D74B39
:102FC000C3F8088018E043E10CE06DE1BCF12D0F7F
:102FD0001DD0BCF15A0F18D003800C80CF488068F8
:102FE000FDF71EFACD48806810F15A0F15D05A2807
:102FF0007BD02D287AD005E404800C800820CEF800
:1030000000001480EAE7D4E2F4E35A2300E02D2321
:10301000DFF808C3CCF80830EEE7BB490868082899
:103020000CD08846092871D00A281ED00A460B28E1
:103030002ED00C286BD00D2845D058E0B9F90020CF
:10304000002A3FF41AAE012A7FF445AFBAF90030E6
:10305000002B74D0DFE109230B604FE2012006F062
:103060009BFD288800286BD086E4B5F90000002875
:1030700003F061800128E7D138680028E4D16FF0BF
:103080003100FEF7D1FE38680128B4D10B20EFE300
:1030900030880028D8D1B9F90010002903F05780F2
:1030A0000129D1D1BAF90030C5E10C231360ADE09C
:1030B00094490880DEE5012006F06EFD288800288E
:1030C00002F05D8658E4B5F900000028D0D0012850
:1030D000F0D138680028EDD16FF03100FEF7A4FE82
:1030E0003868012887D10E20B0E004E070E00E2897
:1030F00002F0328640E4DFF81082D8F80000082899
:1031000006D009281DD00A2831D04DE0DCE0DCE0F3
:103110007C49A6F800B004200880288810B9012056
:1031200006F03AFDB5F9000000283DDA012006F06E
:1031300033FD288880BB0921C8F800106EE5C5E082
:1031400027E2B5F9000060B10128B3D13868002842
:10315000B0D16FF03100FEF767FE3868012804D067
:1031600022E0012006F0F6FB1EE00A206EE0308827
:1031700000289FD1B9F9001079B101299AD1BAF983
:10318000002072B1012A95D10B22C8F80020A9F8BD
:103190000040AAF80040F7E306E0002005F054FEE6
:1031A00002E0172007F056FED8F8000041460B2831
:1031B0007AD00C287FF447AD32E500BFB9F9001092
:1031C000002902F0C487012985D1BAF90030BAE399
:1031D0004D49086808280BD08846092874D00A2869
:1031E00022D00A460B283CD00C286ED002F0FDB845
:1031F000B9F90020002A3FF440AD012AA5D1BAF95F
:1032000000302BB3012BA0D109230B60A9F800409B
:10321000AAF80040A6F800B0042049E7B5F900007C
:103220000028FFF61BAF7EE4B5F90000002802F08D
:103230008287012889D13868002886D16FF0310053
:10324000FEF7F2FD38680128EDD10B2001E02CE0FB
:1032500017E1C8F800002C8009203C603080042071
:10326000A6E43088002884D1B9F900000028A8D04D
:10327000012888D1BAF9003043B3012BA4D10C2323
:1032800013603BE1B5F900000028D0D001289BD1A4
:103290003868002898D16FF03100FEF7C5FD386816
:1032A0000128C0D10E20E3E229E117480068062872
:1032B00004D0DFF854E007284FD076E0B9F90010C9
:1032C00029B101290CD070E006E12FE14CE10D4954
:1032D000A6F800B004200880002005F02FF864E074
:1032E000BAF9001019B1D046012904D05DE00C20D4
:1032F00007F0B0FD59E0B5F9000088B1012813D0FE
:1033000053E000004E000020700000204400002028
:103310004A0000204C0000204600002094000020BD
:10332000012006F017FB40E0386880BB6FF02800F2
:10333000FEF77AFD3868012837D1F949C1F800B0A5
:10334000A9F800402C80A8F80040F6493C60308085
:103350000880F5490420088027E03088B8B9F34890
:10336000F3494FF0010CA0F800C00A88012A1CD1D3
:10337000F04AB2F90080B8F1010F21D008DC6FF0FB
:103380005903984527D05B10984507D123E00CE0FE
:10339000B8F12D0F24D0B8F15A0F1BD0A0F800C0FF
:1033A0000C80E5488068FDF73BF8E348806810F141
:1033B0005A0F17D05A284ED02D3079D02BE4E9E39C
:1033C000DD4BC3F808C004800C800820CEF8000054
:1033D0001480E6E75A23DFF860C3CCF80830F2E740
:1033E0002D23F8E7CE49086808280AD0884609281E
:1033F00072D00A283FF439AE0A460B280FD022E0DB
:1034000082E0B9F90020002A3FF437ACB3E000BFF6
:10341000BAF90030ABB3012B3FF41DAE2AE430887B
:103420000028FBD1B9F90000002802F0908601289D
:10343000F4D1BAF9003013B9162002F0BDB9012B4E
:103440003FF433AE16E40C2870D00D283FF43BAEA9
:103450000E286CD014E4DFF8C882D8F800000828E1
:1034600010D0092825D042460A2836D00B2846D04D
:103470000C283FF4A1AE13460D2802F08284B2E47A
:103480003FE073E0A749A6F800B004200880288830
:1034900010B9012006F080FBB5F9000000288DDA94
:1034A000012006F079FB288800283FF444AE9AE416
:1034B0003EE0B5F90000002802F03D860128ADD1BC
:1034C00038680028AAD16FF03100FEF7ADFC3868EB
:1034D00001283FF44AAE86E453E0308800289DD1AD
:1034E000B9F900100029A0D0012997D1BAF900300C
:1034F000E3B3012B92D10B23C8F800300FE32888E7
:1035000010B9012006F048FBB5F900000028FFF6CD
:103510007BAB68E4B9F90010002986D0012991D16C
:10352000BAF90020EAE314221A6033E334E0FBE343
:103530007B49086808281AD08846092821D00A281B
:103540003FF493AD0A460B287FF459AF308800282A
:10355000B5D1B9F900100029C5D00129AFD1BAF908
:103560000030002B7FF46BAF172066E707E0B9F956
:103570000020002AB7D0012A3FF44AAFABE40D2067
:103580005BE7288800287FF449AE012006F004FBA1
:1035900044E60A20FFF740BB288810B9012006F056
:1035A000FBFAB5F900000028FFF685AD1BE40B20FF
:1035B00043E7022B08D0032B3AD0042B4DD0DFF881
:1035C00060E1052B69D08FE012B1012A09D08BE0B0
:1035D0005449A6F800B004200880002004F0AEFE94
:1035E00082E010B1012804D07EE0162007F032FC02
:1035F0007AE0B8F1000F37D0B8F1010F74D15FEA6B
:103600000E0071D16FF02800FEF70EFC386801281B
:103610006AD1434803210160A9F800402C80AAF830
:103620000040404901203C6030800880042031E0A7
:1036300091BBB8F1000F02D1012006F0ADFAB5F947
:103640000000002850DA012006F0A6FA288818BBEE
:103650003349042008602C8046E0B8F1000F03D005
:10366000B8F1010F04D03FE0012006F073F93BE010
:103670005FEA0E0038D16FF03100FEF7D5FB3868F5
:10368000012831D12648052101602C8009203C60A9
:10369000308001202449088026E029BB23480123EB
:1036A00023490380009A012A1ED1DDF80480214AB3
:1036B000B8F1010F2ED00BDC6FF0590CE04503D0B0
:1036C0006FF02C0CE04509D11B4BC3F804C017E088
:1036D000B8F12D0F1DD0B8F15A0F18D003800C800F
:1036E00015484068FCF79CFE13484068012825D027
:1036F0005A287CD010F12D0F7AD02D2879D07AE479
:1037000004800C800620CEF800001480E8E75A23DD
:1037100000E02D23DFF820C0CCF80430F0E70000F3
:10372000700000204E000020440000204A000020CD
:103730004C0000204600002094000020FC48006857
:1037400006280BD0DFF8E883072823D0082834D0D8
:10375000092850D0C6460A287ED0B3E0B9F9000047
:1037600010B1012806D0ADE0F249A6F800B004205F
:10377000088048E0BAF9002012B1012A02D0A1E085
:1037800004204BE0EA4BC3F800B0A9F80040AAF8C7
:10379000004097E0288810B9012006F0FDF9B5F93E
:1037A000000000282EDA012006F0F6F9288848BB30
:1037B0000820C8F800002C8084E0B5F9000080B330
:1037C00001287FD13868E8B96FF03100FEF72CFB93
:1037D0003868012876D10921C8F800102C80D64914
:1037E00004203C60308008800120D2493EE0CCE0DB
:1037F000D1E1CDE2F7E3308820B9B9F9001011B179
:10380000012904D05EE0002005F01EFB5AE0BAF961
:10381000001011B1012905D054E0162007F01AFB61
:1038200050E005E0B5F9000010B1012804D049E0EE
:10383000012006F08FF845E03868B0BB6FF0280033
:10384000FEF7F2FA386801283CD10A20C8F80000D7
:10385000A9F800402C8000E00BE0AAF8004001200D
:10386000B44A3C60308017211180B349088029E0B8
:1038700076E23088C8B9B148B149012303800A888B
:10388000012A1FD1AF4AB2F90080B8F1010F2ED042
:103890000CDC6FF0590CE04503D06FF02C0CE045C8
:1038A0000AD1A94BC3F808C017E00BE0B8F12D0FFF
:1038B0001CD0B8F15A0F17D003800C80A248806842
:1038C000FCF7AEFDA04880685A2802F0368210F15D
:1038D0002D0F11D02D283DD00CE404800C800B203E
:1038E000CEF800001480E9E75A2300E02D23DFF82A
:1038F00058C2CCF80830F0E78D4908680B280BD087
:1039000088460C283FF448AE0D283FF4BBAC0A466D
:103910000E2802F00D8286E4B9F90020002A02F098
:103920000184012A7FF42AAEBAF90030002B3FF45B
:103930001BAE2EE3B9F90000002802F0088401282C
:10394000F0D1BAF90030002B3FF431AE012B3FF437
:103950007FA963E5764908680B2809D088460C28BA
:10396000D0D00D28D1D00A460E2802F0EB835AE4BD
:10397000B9F900000028D2D00128EAD1BAF9003004
:10398000002B3FF4FCAD04E320E3694800680628FF
:1039900009D0DFF89C81072836D0082849D0C646D0
:1039A000092867D08FE0B9F9001011B1012904D0BE
:1039B00089E0002005F048FA85E0BAF9001019B155
:1039C000D046012904D07EE00C2007F043FA7AE0CB
:1039D000B5F9000098B3012875D1386840BB6FF085
:1039E0002800FEF721FA386801286CD15049C1F847
:1039F00000B0A9F800402C80A8F800404E493C6077
:103A000030800880042032E0308888B9288810B9D6
:103A1000012006F0C1F8B5F90000002853DA0120B2
:103A200006F0BAF8288818B90820C8F800002C80D9
:103A300049E0B5F9000010B1012805D043E0FFE7E7
:103A4000012005F087FF3EE0386878BB6FF0310059
:103A5000FEF7EAF93868012835D10921C8F80010C5
:103A60002C80354904203C60308008801720314983
:103A7000088028E03088C8B93048314901230380E4
:103A80000A88012A1FD12F4AB2F90080B8F1010F2C
:103A90002DD00CDC6FF0590CE04503D06FF02C0CEE
:103AA000E0450AD1284BC3F808C016E00BE0B8F196
:103AB0002D0F1BD0B8F15A0F16D003800C8022486E
:103AC0008068FCF7ADFC20488068012814D010F114
:103AD0002D0F40D02D284DD070E404800C800A209A
:103AE000CEF800001480EAE75A2300E02D23DFF827
:103AF00058C0CCF80830F0E70D4801680A296ED1AB
:103B0000B9F90020002A02F02283012A7FF421AFB4
:103B1000BAF90030EBB3012BF8D10B230360A9F8FD
:103B20000040AAF80040A6F800B00120FFF7C0BA94
:103B3000700000204E000020440000204A000020B9
:103B40004C000020460000209400002002460D2971
:103B500002F0F88232E4F74801680A293FD1B9F946
:103B60000020002ACFD0012AD0D1BAF90030002B92
:103B7000D1D1F9E4EF4801680A2930D1B9F9002020
:103B8000002AC0D0012AC1D1BAF90030002BC2D11D
:103B9000F5E402E215E2E748006806280BD0DFF8FA
:103BA0009483072824D0082835D009284CD0C6464D
:103BB0000A287DD0AFE0B9F9000010B1012806D085
:103BC000A9E0DD49A6F800B00420088044E0BAF975
:103BD000002012B1012A03D09DE0172047E0FDE349
:103BE000D44BC3F800B0A9F80040AAF8004092E016
:103BF000288810B9012005F0CFFFB5F90000002892
:103C000029DA012005F0C8FF288820BB0820C8F861
:103C100000002C807FE0B5F9000088B301287AD13C
:103C20003868C0B96FF03100FEF7FEF83868012837
:103C300071D10921C8F800102C80C04904203C60D3
:103C400030800880012039E0308820B9B9F90010AF
:103C500011B1012904D05EE0002005F0F5F85AE02A
:103C6000BAF9001011B1012904D054E00C2007F07A
:103C7000F1F850E0B5F9000010B1012805D04AE094
:103C8000FFE7012005F066FE45E03868A8BB6FF04D
:103C90002800FEF7C9F8386801283CD10A20C8F886
:103CA0000000A9F800402C80AAF80040012000E0A4
:103CB00007E0A2493C603080088017209E490880B8
:103CC00029E03088C8B99E489E49012303800A88AC
:103CD000012A20D19C4AB2F90080B8F1010F2ED000
:103CE0000DDC6FF0590CE04503D06FF02C0CE04573
:103CF0000BD1964BC3F808C017E00CE0F1E3B8F124
:103D00002D0F1BD0B8F15A0F16D003800C808F48AE
:103D10008068FCF785FB8D488068012878D05A2898
:103D200077D02D2876D041E4F9E304800C800B2075
:103D3000CEF800001480EAE75A2300E02D23DFF8D4
:103D40000CC2CCF80830F0E7B9F90020002A02F0E4
:103D5000E981012A7FF4FDADBAF90030A3BB1CE173
:103D6000C8F800002C8009203C6030800120FEF75C
:103D70001FBF02460E296FD018E400BFB9F900201A
:103D8000002AE4D0FBE302460E2902F0DB810DE4B9
:103D90006848006806280BD0DFF89881072824D0EF
:103DA000082838D009284FD0C6460A286AD0B1E082
:103DB000B9F9000010B1012807D0ABE05E49A6F8C0
:103DC00000B00420088048E0CCE2BAF9002012B12B
:103DD000012A02D09EE00D204AE0564BC3F800B005
:103DE000A9F80040AAF8004094E0288810B9012002
:103DF00005F0D2FEB5F9000000282CDA012005F00C
:103E0000CBFE288838BB0820C8F800002C8081E051
:103E1000EFE3F4E0EEE3B5F9000090B3012879D1C7
:103E20003868C0B96FF03100FDF7FEFF386801282F
:103E300070D10921C8F800102C80404904203C6052
:103E400030800880012039E0308820B9B9F90010AD
:103E500019B1012905D05DE0F2E3002004F0F4FF80
:103E600058E0BAF9001011B1012904D052E00C2039
:103E700006F0F0FF4EE0B5F9000010B1012806D0C1
:103E800048E000E01DE0012005F064FD42E03868F4
:103E900098BB6FF02800FDF7C7FF3868012839D1BB
:103EA0000A20C8F80000A9F800402C80AAF80040B9
:103EB000224901203C603080088017201E4908807C
:103EC00028E03088C8B91E481E49012303800A88AB
:103ED000012A1FD11C4AB2F90080B8F1010F3AD073
:103EE0000CDC6FF0590CE04503D06FF02C0CE04572
:103EF0000AD1164BC3F808C015E00BE0B8F12D0F3E
:103F000028D0B8F15A0F23D003800C800F48806866
:103F1000FCF786FA0D488068012821D05A286ED017
:103F20002D306DD0D8E404800C800B20CEF800003A
:103F30001480EBE7700000204E00002044000020B9
:103F40004A0000204C000020460000209400002081
:103F50005A2300E02D23DFF8F0C3CCF80830E2E765
:103F6000FA4908680B280AD088460C283FF414AB9D
:103F70000D283FF487A90B460E2810D0ACE4B9F900
:103F80000020002A71D0012A7FF4E3ACBAF9003096
:103F90001BB1012BF8D10C23E2E20420F4E33088BA
:103FA0000028F1D1B9F90000002874D00128EBD124
:103FB000BAF9000000283FF4FAAA0128E4D114203D
:103FC0001860A9F80040AAF80040F0E3A6F800B095
:103FD0000120B5E1B9F90020002AD3D0012AD3D1BC
:103FE000BAF90030FCE3FFE7022B0AD0032B3DD0E7
:103FF000042B51D0DFF854E3052B6DD090E0F0E3B3
:1040000081E112B1012A09D08AE0D149A6F800B0B5
:1040100004200880002004F091F981E010B101280B
:1040200004D07DE00C2006F015FF79E0B8F1000F18
:1040300039D0B8F1010F73D15FEA0E0070D16FF083
:104040002800FDF7F1FE3868012869D1BF48032137
:104050000160A9F800402C80AAF80040BC4901206A
:104060003C6030800880042033E0FDE399BBB8F168
:10407000000F02D1012005F08FFDB5F900000028E6
:104080004EDA012005F088FD288820BBAF490420C6
:1040900008602C8044E045E2B8F1000F03D0B8F18D
:1040A000010F04D03CE0012005F054FC38E05FEA49
:1040B0000E0035D16FF03100FDF7B6FE38680128EB
:1040C0002ED1A248052101602C8009203C6030805F
:1040D0000120A049088023E011BB9F4801239F498C
:1040E0000380009A012A1BD1DDF804809C4AB8F1B4
:1040F000010F22D008DC6FF0590CE04522D06FF0A0
:104100002C02904506D129E0B8F12D0F2ED0B8F140
:104110005A0F21D003800C808B484068FCF780F94F
:1041200089484068012823D010F15A0F79D010F146
:104130002D0F77D02D2876D019E4DFF80CC2CCF8FB
:10414000043002E0804BC3F804C004800C800620D9
:10415000CEF800001480DFE75A23EEE77A4B5A606E
:1041600004800C800620CEF80000D5E72D22F5E76C
:104170007648006806280BD0DFF8D081072823D0C6
:10418000082834D009284FD0C6460A287DD0B1E08F
:10419000B9F9001011B1012906D0ABE06C49A6F8BD
:1041A00000B00420088047E0BAF9002012B1012ACB
:1041B00002D09FE004204AE0644BC3F800B0A9F8A5
:1041C0000040AAF8004095E0288810B9012005F0C9
:1041D000E3FCB5F9000000282DDA012005F0DCFC35
:1041E000288840BB0820C8F800002C8082E0B5F980
:1041F000000078B301287DD13868E0B96FF0310054
:10420000FDF712FE3868012874D10921C8F80010A2
:104210002C80504904203C603080088001204C49AB
:104220003DE0A4E0B8E1CBE2308820B9B9F9001054
:1042300011B1012904D05DE0002004F005FE59E031
:10424000BAF9001011B1012905D053E0162006F08B
:1042500001FE4FE005E0B5F9000010B1012804D0DF
:1042600048E0012005F076FB44E03868A8BB6FF019
:104270002800FDF7D9FD386801283BD10A20C8F88D
:104280000000A9F800402C8000E00AE0AAF80040F5
:1042900001202F4A3C603080172111802D49088071
:1042A00028E03088C8B92C482C49012303800A88AB
:1042B000012A1FD12A4AB2F90080B8F1010F32D089
:1042C0000CDC6FF0590CE04503D06FF02C0CE0458E
:1042D0000AD11D4BC3F808C01BE00BE0B8F12D0F4D
:1042E00020D0B8F15A0F1BD003800C80164880688C
:1042F000FCF796F81448806810F15A0F18D010F1A6
:104300002D0F7FF40EAD114801680B293FF462AE0A
:10431000FEE304800C800B20CEF800001480E5E75B
:104320005A2300E02D23DFF820C0CCF80830F0E756
:10433000DFF81880D8F800000B286FD101203080FA
:1043400003490880FFF7DBB89400002070000020CC
:104350004E000020440000204A0000204C000020B5
:1043600046000020012B7FF459A80C23DBE0F7481E
:104370000068062809D0DFF8D483072838D0082839
:104380004DD0C64609286AD092E0B9F9001011B1A3
:10439000012904D08CE0002004F056FD88E0BAF931
:1043A000001019B1D046012904D081E0162006F092
:1043B00051FD7DE0B5F9000078B3012878D1386867
:1043C00050BB6FF02800FDF72FFD386801286FD132
:1043D000DE49C1F800B0A9F8004000E086E02C807A
:1043E000A8F80040DA493C6030800880042033E0BF
:1043F000308888B9288810B9012005F0CDFBB5F9BF
:104400000000002854DA012005F0C6FB288818B9FE
:104410000820C8F800002C804AE006E0F6E3B5F971
:10442000000010B1012804D042E0012005F092FA0A
:104430003EE0386878BB6FF03100FDF7F5FC386876
:10444000012835D10921C8F800102C80C04904206A
:104450003C60308008801720BE49088028E0308802
:10446000C8B9BD48BD49012303800A88012A1FD16C
:10447000BB4AB2F90080B8F1010F2DD00CDC6FF00F
:10448000590CE04503D06FF02C0CE0450AD1B54B38
:10449000C3F808C016E00BE0B8F12D0F1BD0B8F13F
:1044A0005A0F16D003800C80AE488068FBF7B8FF27
:1044B000AC488068012815D010F12D0F35D02D287B
:1044C00050D030E404800C800A20CEF80000148024
:1044D000EAE75A2300E02D23DFF888C2CCF8083041
:1044E000F0E75CE1994801680A2908D080460B2969
:1044F0003FF428AF0C297FF429ABFEF791BBB9F943
:104500000020002A74D0012A7EF488AFBAF9003066
:10451000002B3FF424AC012BF6D10B2303E0EEE398
:104520008C490880A2E10360EAE3884908680A2808
:1045300008D088460B28DBD00C28DED00A460D2890
:104540007ED019E4B9F900000028DBD00128DBD1C6
:10455000BAF90030002B3FF407A8012BD4D10B236C
:104560000B60CDE3794801680A2909D080460B2900
:10457000BED00C29C1D002460D29E1D007E417E1D5
:10458000B9F90020002ABDD0012ABDD1BAF9003006
:10459000002BC0D1FEF7F3BF6C48006806280BD093
:1045A000DFF8A881072826D0082837D0092850D05E
:1045B000C6460A286AD0B1E0B9F9001011B1012944
:1045C00006D0ABE06349A6F800B00420088048E0BC
:1045D000BAF9002012B1012A02D09FE017204BE067
:1045E0005A4BC3F800B0A9F80040AAF8004095E083
:1045F000F6E3F6E3F6E3288810B9012005F0CCFADB
:10460000B5F9000000282BDA012005F0C5FA28884A
:1046100030BB0820C8F800002C807FE0B5F900000E
:1046200098B301287AD13868D0B96FF03100FDF71E
:10463000FBFB3868012871D10921C8F8001000E09F
:10464000E9E32C80424904203C603080088001204E
:1046500038E0308820B9B9F9001011B1012904D02F
:104660005CE0002004F0F0FB58E0BAF9001011B152
:10467000012904D052E0162006F0ECFB4EE0B5F91B
:10468000000010B1012806D048E000E01DE0012044
:1046900005F060F942E0386898BB6FF02800FDF73C
:1046A000C3FB3868012839D10A20C8F80000A9F8EE
:1046B00000402C80AAF80040254901203C60308051
:1046C000088017202349088028E03088C8B922488C
:1046D0002249012303800A88012A1FD1204AB2F906
:1046E0000080B8F1010F2CD00CDC6FF0590CE045C4
:1046F00003D06FF02C0CE0450AD11A4BC3F808C068
:1047000015E00BE0B8F12D0F1AD0B8F15A0F15D003
:1047100003800C8013488068FBF782FE1148806894
:10472000012821D010F15A0F70D0FFF7FABA048097
:104730000C800B20CEF800001480EBE75A2300E039
:104740002D23DFF820C0CCF80830F0E770000020FF
:10475000440000204E0000204A0000204C000020B1
:104760004600002094000020FB4801680B293FF41C
:10477000EBAA80460C293EF40FAF0D293EF482AD22
:1047800003460E2971D0B0E2F2E300BFB9F9000090
:1047900000286BD001287EF441AEBAF90020002A2F
:1047A0003EF405AF012A3EF4BEAEBDE8FE8FE0E365
:1047B000012AFAD1BAF90030002B7FF4D3ADE9E633
:1047C000E548006806280DD0DFF88C83072826D03E
:1047D000082837D0092852D0C6460A2870D0B3E03E
:1047E000F0E32BE1B9F9001011B1012906D0ABE0DB
:1047F000DA49A6F800B00420088048E0BAF90020A1
:1048000012B1012A03D09FE00D204BE074E3D24B9C
:10481000C3F800B0A9F80040AAF8004094E0288846
:1048200010B9012005F0B8F9B5F9000000282DDA1B
:10483000012005F0B1F9288840BB0820C8F8000025
:104840002C8081E0B5F9000078B301287CD138686C
:10485000E0B96FF03100FDF7E7FA3868012873D14D
:104860000921C8F8001002E0D4E2EFE3EFE32C8066
:10487000BB4904203C6030800880012038E030884B
:1048800020B9B9F9000010B1012804D05CE0002083
:1048900004F0DAFA58E0BAF9001011B1012905D094
:1048A00052E0162006F0D6FA4EE005E0B5F9000019
:1048B00010B1012805D047E0012005F04BF843E096
:1048C00019E0386898BB6FF02800FDF7ADFA38683A
:1048D000012839D10A20C8F80000A9F800402C802E
:1048E000AAF800409E4901203C60308008801720D3
:1048F0009A49088028E03088C8B99A489A49012323
:1049000003800A88012A1FD1984AB2F90080B8F1C1
:10491000010F2DD00CDC6FF0590CE04503D06FF087
:104920002C0CE0450AD1924BC3F808C016E00BE00E
:10493000B8F12D0F1BD0B8F15A0F16D003800C80A0
:104940008B488068FBF76CFD89488068012814D08B
:1049500010F15A0F72D02D3015D0C6E104800C80B2
:104960000B20CEF800001480EAE75A2300E02D2344
:10497000DFF8FCC1CCF80830F0E7774801680B2974
:104980003FF4E2A9EDE2744801680B293FF422AB41
:10499000E7E2022B0AD0032B23D0042B35D0052BC2
:1049A0004DD0DFF8B4E1062B7ED0A8E012B1012A89
:1049B00009D0A4E06949A6F800B0012008800020D1
:1049C00003F0BCFC9BE010B1012802D097E0172057
:1049D00043E0614803230360A9F80040AAF80040BF
:1049E0008DE0B8F1000F02D1012005F0D5F8B5F93E
:1049F0000000002827DA012005F0CEF8288810BB37
:104A00005549042008602C8079E0B8F1000F2ED0C1
:104A1000B8F1010F73D15FEA0E0070D16FF0310071
:104A2000FDF702FA3868012869D14B480521016079
:104A30002C8009203C603080012034E0FDE311B976
:104A400012B1012A04D05AE0002004F0FDF956E02A
:104A500010B1012804D052E0162006F0FBF94EE018
:104A6000B8F1000F03D0B8F1010F04D047E00120E6
:104A700004F070FF43E05FEA0E0040D16FF02800C1
:104A8000FDF7D2F93868012839D133490620334A75
:104A90000860A9F800402C80AAF8004001203C6082
:104AA00030801721118000E002E02D49088026E0C7
:104AB00029BB2C4801232C490380009A012A1ED1CE
:104AC000DDF80480294AB8F1010F2FD00BDC6FF01C
:104AD000590CE04503D06FF02C0CE04509D1244B74
:104AE000C3F804C019E0B8F12D0F1ED0B8F15A0F69
:104AF00019D003800C801E484068FBF791FC1C48CD
:104B00004068012817D010F15A0F7CD05A2800E0D5
:104B1000EDE379D02D2878D0E7E004800C80CEF842
:104B200000B01480E7E75A2300E02D23DFF840C0EF
:104B3000CCF80430F1E70848006807281AD0DFF8FD
:104B40001880082835D0092846D00A285FD0C646E4
:104B50000B286ED0C0E00000700000204E00002046
:104B6000440000204A0000204C00002046000020A5
:104B700094000020B9F9001011B1012909D0ABE06F
:104B8000FC49A6F800B001200880002003F0D6FB05
:104B9000A2E0BAF9002012B1012A02D09CE0042060
:104BA0004AE0F54B08221A60A9F80040AAF8004034
:104BB00092E0288810B9012004F0EEFFB5F900005A
:104BC00000282BDA012004F0E7FF288830BB0921F8
:104BD000C8F800102C807FE0B5F9000050B3012820
:104BE0007AD13868D0B96FF03100FDF71DF9386817
:104BF000012871D10A20C8F800002C8009203C60EF
:104C0000308001203CE0C5E0C2E1BCE2F2E3308844
:104C100020B9B9F9001011B1012904D05CE00020DD
:104C200004F012F958E0BAF9001021B1012906D0B8
:104C300052E028E009E00C2006F00CF94CE0B5F950
:104C4000000010B1012804D046E0012004F082FEEB
:104C500042E0386898BB6FF02800FDF7E5F8386847
:104C6000012839D10B20C8F80000A9F800402C8099
:104C7000AAF800400120BF4A3C6030801721118013
:104C8000BE49088028E03088C8B9BD48BD49012325
:104C900003800A88012A1FD1BB4AB2F90080B8F10B
:104CA000010F2FD00CDC6FF0590CE04503D06FF0F2
:104CB0002C0CE0450AD1B54BC3F808C016E00BE058
:104CC000B8F12D0F1DD0B8F15A0F16D003800C800B
:104CD000AE488068FBF7A4FBAC48806810F15A0F1F
:104CE00015D05A283CD02D2845D007E204800C80EE
:104CF0000C20CEF800001480EAE75A2302E026E1F7
:104D000036E32D23DFF884C2CCF80830EEE79A486A
:104D100001680C2967D100BFB9F90020002A79D0B9
:104D2000012A7FF442ADBAF90030002B3EF484AB87
:104D3000012BF6D10D23FFF7F6BB012004F02CFF69
:104D40002888002868D0D9E16FF03100FDF76CF8B1
:104D50003868012873D0D1E102460F2970D0CDE127
:104D6000DFF81482D8F800000C286AD00D287EF4F1
:104D70006FABFEF787BA804801680C2933D1B9F9C7
:104D80000020002ACBD0012ACBD1BAF90030002B69
:104D9000CED114E578480068072809D0DFF8D8811B
:104DA000082821D0092838D0C6460A2874D09CE0AB
:104DB0007049A6F800B001200880288810B90120A9
:104DC00004F0EAFEB5F9000000282DDA012004F015
:104DD000E3FE288840BB6849082008602C8084E0F6
:104DE000F2E3F2E3B8E0F1E3B5F9000050B30128D3
:104DF0007BD13868C0B96FF03100FDF715F838681D
:104E0000012872D10920C8F800002C803C60308055
:104E100001203DE0B1E245E3F2E3308820B9B9F981
:104E2000001011B1012904D05FE0002004F00CF85B
:104E30005BE0BAF9001031B1012908D055E0F3E385
:104E4000F3E348E309E00C2006F004F84DE0B5F97F
:104E5000000010B1012804D047E0012004F07AFDE1
:104E600043E03868A0BB6FF02800FCF7DDFF38682E
:104E700001283AD10A20C8F80000A9F800402C8087
:104E8000AAF8004001203B4A3C6030801721118085
:104E90003A49088029E0FFE73088C8B938483949DD
:104EA000012303800A88012A1FD1374AB2F9008002
:104EB000B8F1010F36D00CDC6FF0590CE04503D08F
:104EC0006FF02C0CE0450AD1304BC3F808C01FE04E
:104ED0000BE0B8F12D0F24D0B8F15A0F1FD003808A
:104EE0000C802A488068FBF79BFA284880680128D4
:104EF0001DD05A287FF419ACDFF87C80D8F8000068
:104F00000B283FF463A80C287DF4B8AFFDF788BEEA
:104F100004800C800B20CEF800001480E1E75A23B7
:104F200000E02D23DFF864C0CCF80830F0E7124928
:104F300008680B283FF423A888460C283EF42CABC5
:104F40000D283FF416AF0B460E287DD0D6E03088F2
:104F500000283DF4A3AF28E4074801680B293EF47C
:104F60000DAF80460C29E9D00D297EF40CAF00E787
:104F7000EFE3EFE34E00002070000020440000202B
:104F80004A0000204C000020460000209400002031
:104F9000FA48006807282DD1B9F9001011B101298C
:104FA00009D0A2E0F649A6F800B00420088000204D
:104FB00003F0C4F91EE0BAF9001021B1D04601296E
:104FC00005D092E0EEE30C2005F044FF12E0B5F9C5
:104FD000000010B1012804D087E0012004F0BAFCE1
:104FE00008E0386888BB6FF02800FCF71DFF3868C0
:104FF00001280AD0E1490868082816D088460928FF
:105000002DD08E460A2848D06FE0DC490820086081
:10501000A9F800402C80A8F80040D94901203C6044
:1050200030800880D74904200880308868B92888F3
:1050300010B9012004F0B0FDB5F90000002854DAE1
:10504000012004F0A9FD03E0EFE325E0D4E3EDE364
:10505000288808BBC948092101602C8045E0B5F9C2
:10506000000010B1012804D03FE0012004F072FCE0
:105070003BE0386880B96FF03100FCF7D5FE386846
:10508000012832D10A20C8F800002C8009203C6099
:10509000BC4930800120088027E0308828BBBA480E
:1050A000BA49012303800A88012A1ED1B84AB2F9FD
:1050B0000080B8F1010F2CD00BDC6FF0590CE045EB
:1050C00003D06FF02C0CE04509D1B24BC3F808C0F7
:1050D00015E0B8F12D0F1BD0B8F15A0F16D0038090
:1050E0000C80AC488068FBF79BF9AA4880680128CF
:1050F00014D010F15A0F1FD02D2836D03FE2048073
:105100000C800B20CEF800001480EAE75A2300E060
:105110002D23DFF880C2CCF80830F0E7974801680B
:105120000B2926D1B9F90020EAB3FEF712BE0D29EA
:105130007EF429AEFDF7C7BF904801680B2907D060
:1051400080460C293EF428AA0D297FF419ABF1E71B
:10515000B9F900203AB3012A7FF4FDAEBAF9003064
:10516000002B7FF4FFA8FEF767B9844801680B297C
:1051700004D080460C29DAD1FEF70EBAB9F9002026
:105180008AB1FFF715BB7D48006807280CD0DFF80F
:10519000EC81082827D0092838D00A284ED0C646E6
:1051A0000B2868D0B0E0F3E3B9F9001011B1012980
:1051B00009D0A9E07249A6F800B0012008800020BB
:1051C00003F0BCF8A0E0BAF9002012B1012A02D025
:1051D0009AE00D2045E0694B08221A60A9F80040CA
:1051E000AAF8004090E0288810B9012004F0D4FC0F
:1051F000B5F90000002828DA012004F0CDFC288849
:1052000018BB0921C8F800102C807DE0B5F900001A
:1052100080B3012878D13868B8B96FF03100FCF755
:1052200003FE386801286FD10A20C8F800002C80DE
:1052300009203C603080012039E0EFE3308820B95C
:10524000B9F9000010B1012804D05DE0002003F09E
:10525000FBFD59E0BAF9001011B1012904D053E067
:105260000C2005F0F7FD4FE0B5F9000010B1012862
:1052700006D049E000E01DE0012004F06BFB43E0B4
:10528000386898BB6FF02800FCF7CEFD386801281D
:105290003AD10B20C8F80000A9F800402C80AAF8E9
:1052A00000400120364A3C6030801721118035498A
:1052B000088029E03088C8B9334834490123038085
:1052C0000A88012A20D1324AB2F90080B8F1010FD0
:1052D0002ED00DDC6FF0590CE04503D06FF02C0C94
:1052E000E0450BD12B4BC3F808C017E00CE0F1E30D
:1052F000B8F12D0F1BD0B8F15A0F16D003800C80D7
:1053000024488068FBF78CF822488068012814D074
:1053100010F15A0F40D05A2861D030E104800C803F
:105320000C20CEF800001480EAE75A2300E02D2379
:10533000DFF860C0CCF80830F0E7104A10680C289D
:1053400007D090460D2835D00E283ED00F2871D0BA
:1053500015E1B9F9000080B101287FF4FCADBAF97C
:105360000030002B3EF419AE012BF6D10D23136053
:10537000A9F80040AAF80040EDE5F9E3700000202C
:105380004E000020440000204A0000204C00002075
:105390004600002094000020FB4801680C293FF4DF
:1053A000BBAC80460D2905D00E290ED002460F2930
:1053B00078D0E4E0288810B9012004F0EDFBB5F9BD
:1053C00000000028FFF6B9ACD9E0B5F9000080B3C1
:1053D0000128D1D1386800283FF4B6ACBBE5DFF82E
:1053E000A883D8F800000C2875D00D283FF4C1AC74
:1053F000FDF77DBEDFE3022B0AD0032B25D0042B63
:1054000037D0052B4FD0DFF880E3062B7ED0ABE002
:1054100012B1012A09D0A7E0DC49A6F800B00120AA
:105420000880002002F08AFF9EE020B1012804D00D
:105430009AE0EEE3EEE30D2043E0D348032303605C
:10544000A9F80040AAF800408EE0B8F1000F02D1A0
:10545000012004F0A1FBB5F90000002827DA0120A3
:1054600004F09AFB288810BBC749042008602C80F0
:105470007AE0B8F1000F2FD0B8F1010F74D15FEAD4
:105480000E0071D16FF03100FCF7CEFC38680128B6
:105490006AD1BD48052101602C8009203C60308024
:1054A000012037E0F3E311B912B1012A04D05BE027
:1054B000002003F0C9FC57E010B1012804D053E0EC
:1054C0000C2005F0C7FC4FE0B8F1000F04D0B8F194
:1054D000010F05D048E044E1012004F03BFA43E02D
:1054E0005FEA0E0040D16FF02800FCF79DFC3868A1
:1054F000012839D1A44906200860A9F800402C8071
:10550000AAF8004001203C60308000E005E09F4A9E
:10551000172111809E49088026E029BB9D48012360
:105520009D490380009A012A1ED1DDF804809B4A20
:10553000B8F1010F2DD00BDC6FF0590CE04503D012
:105540006FF02C0CE04509D1954BC3F804C017E06F
:10555000B8F12D0F1CD0B8F15A0F17D003800C8072
:105560008F484068FAF75CFF8D484068012815D0E5
:1055700010F15A0F71D05A2870D02D306FD0D9E267
:1055800004800C80CEF800B01480E9E75A2300E0D4
:105590002D23DFF80CC2CCF80430F1E77A4800681C
:1055A00007280BD0DFF8E08108282AD009283DD051
:1055B0000A2855D0C6460B286FD0B6E0B9F90000CE
:1055C00028B101280CD0B0E011E1A3E3D3E06F498A
:1055D000A6F800B001200880002002F0AFFEA4E091
:1055E000BAF9002012B1012A02D09EE004204AE05C
:1055F000654B08221A60A9F80040AAF8004094E020
:10560000F0E3288810B9012004F0C6FAB5F90000CB
:1056100000282CDA012004F0BFFA288838BB0921C1
:10562000C8F800102C8080E0F0E3F0E3B5F900004A
:1056300090B3012879D13868C8B96FF03100FCF710
:10564000F3FB3868012870D10A20C8F800002C80CC
:1056500009203C60308001203BE0D2E08DE295E300
:10566000308820B9B9F9001011B1012904D05CE0EB
:10567000002003F0E9FB58E0BAF9001011B101294C
:1056800004D052E0162005F0E5FB4EE0B5F900002D
:1056900010B1012806D048E000E01DE0012004F030
:1056A00059F942E0386898BB6FF02800FCF7BCFB62
:1056B0003868012839D10B20C8F80000A9F800404B
:1056C0002C80AAF800400120304A3C60308017212D
:1056D00011802F49088028E03088C8B92D482E490C
:1056E000012303800A88012A1FD12C4AB2F90080C5
:1056F000B8F1010F30D00CDC6FF0590CE04503D04D
:105700006FF02C0CE0450AD1254BC3F808C017E018
:105710000BE0B8F12D0F1ED0B8F15A0F17D003804F
:105720000C801F488068FAF77BFE1D48806810F1E6
:105730005A0F3FF454AE5A2819D02D303FD0F9E11A
:1057400004800C800C20CEF800001480E9E75A2376
:1057500002E031E0F1E32D23DFF844C0CCF808305B
:10576000EEE70A49A6F800B00120088004E50648E3
:1057700001680C296FD080460D293FF41BAE0E291D
:105780003FF423AEFFF7E8BA700000204E0000207F
:10579000440000204A0000204C0000204600002069
:1057A00094000020E0E1012A7FF4E6ADBAF9003070
:1057B000002B7FF4BDAA0C2005F04CFBBAE1FE489B
:1057C00001680C2908D080460D29D6D00E29D7D0E3
:1057D00003460F2910D0ADE1B9F900203AB1012AF2
:1057E000E2D1BAF90030002BE3D1FDF7BDBEA6F837
:1057F00000B00120FEF794BE308800283EF4C6AF0A
:10580000BAE5ED480068072809D0DFF8AC8308281E
:105810003FD0092852D0C6460A286FD096E0B9F981
:10582000001021B101290BD090E0AAE2F4E3E34992
:10583000A6F800B004200880002002F07FFD85E07B
:10584000BAF9001019B1D046012905D07EE0162022
:1058500005F000FB7AE0F2E3B5F90000A0B30128FF
:1058600074D1386848BB6FF02800FCF7DDFA38685F
:1058700001286BD1D04908200860A9F800402C808D
:10588000A8F80040CD4901203C6030800880042009
:1058900030E0308888B9288810B9012004F07CF9FC
:1058A000B5F90000002851DA012004F075F92888C4
:1058B00018B90921C8F800102C8047E0B5F900009C
:1058C00010B1012805D041E0FFE7012004F042F8C3
:1058D0003CE03868D0BB6FF03100FCF7A5FA3868BF
:1058E000012833D10A20C8F800002C8009203C6030
:1058F00030800120B249088028E0FFE7308828BBCB
:10590000B048B149012303800A88012A1ED1AF4A59
:10591000B2F90080B8F1010F29D00BDC6FF0590CFF
:10592000E04503D06FF02C0CE04509D1A84BC3F83B
:1059300008C012E0B8F12D0F18D0B8F15A0F13D0EB
:1059400003800C80A2488068FAF76AFDDFF8808245
:10595000D8F8080001280FD073E004800C800B20D9
:10596000CEF800001480EDE75A2300E02D23DFF885
:1059700060C2CCF80830F0E78F4801680B2908D0E6
:105980000C291AD00D292BD002460E2947D0CDE084
:10599000EFE0B9F9002012B1012A06D0C6E087492C
:1059A000A6F800B00420088041E0BAF900300BB935
:1059B000042044E0012B71D0B8E0288810B9012000
:1059C00004F0EAF8B5F9000000283ADA012004F002
:1059D000E3F8288808BB78490D2008602C8030E067
:1059E000B5F9000010B1012804D09FE0012003F0B8
:1059F000B1FF26E0386840BB6FF03100FCF714FAC5
:105A0000386801281DD16C490E2008602C800920BF
:105A10003C606B4930800420088012E08DE13088C2
:105A200098B9B9F9001011B1012904D07EE0002025
:105A300003F00AFA05E0BAF900303BB90B2005F093
:105A400009FAD8F808005A2809D06FE0012B73D062
:105A50006CE000BFA9F80040AAF8004066E0564894
:105A600001680B2907D00C291BD00D292CD0024628
:105A70000E2948D05AE0B9F9002012B1012A06D007
:105A800054E04E49A6F800B00420088043E0BAF97B
:105A90000030002B8ED10C2046E0FFE70C23036082
:105AA000D8E7288810B9012004F076F8B5F900008D
:105AB00000283BDA012004F06FF8288810BB3E492B
:105AC0000D2008602C8031E0B5F9000018B10128E4
:105AD00005D02BE023E1012003F03CFF26E03868ED
